{
  "contractName": "DaiPriceOracle",
  "abi": [
    {
      "constant": true,
      "inputs": [],
      "name": "OASIS",
      "outputs": [
        {
          "name": "",
          "type": "address"
        }
      ],
      "payable": false,
      "stateMutability": "view",
      "type": "function"
    },
    {
      "constant": true,
      "inputs": [],
      "name": "DEVIATION_PARAMS",
      "outputs": [
        {
          "name": "denominator",
          "type": "uint64"
        },
        {
          "name": "maximumPerSecond",
          "type": "uint64"
        },
        {
          "name": "maximumAbsolute",
          "type": "uint64"
        }
      ],
      "payable": false,
      "stateMutability": "view",
      "type": "function"
    },
    {
      "constant": true,
      "inputs": [],
      "name": "ONE_DOLLAR",
      "outputs": [
        {
          "name": "",
          "type": "uint256"
        }
      ],
      "payable": false,
      "stateMutability": "view",
      "type": "function"
    },
    {
      "constant": false,
      "inputs": [],
      "name": "renounceOwnership",
      "outputs": [],
      "payable": false,
      "stateMutability": "nonpayable",
      "type": "function"
    },
    {
      "constant": true,
      "inputs": [],
      "name": "g_poker",
      "outputs": [
        {
          "name": "",
          "type": "address"
        }
      ],
      "payable": false,
      "stateMutability": "view",
      "type": "function"
    },
    {
      "constant": true,
      "inputs": [],
      "name": "owner",
      "outputs": [
        {
          "name": "",
          "type": "address"
        }
      ],
      "payable": false,
      "stateMutability": "view",
      "type": "function"
    },
    {
      "constant": true,
      "inputs": [],
      "name": "isOwner",
      "outputs": [
        {
          "name": "",
          "type": "bool"
        }
      ],
      "payable": false,
      "stateMutability": "view",
      "type": "function"
    },
    {
      "constant": true,
      "inputs": [],
      "name": "MEDIANIZER",
      "outputs": [
        {
          "name": "",
          "type": "address"
        }
      ],
      "payable": false,
      "stateMutability": "view",
      "type": "function"
    },
    {
      "constant": true,
      "inputs": [],
      "name": "OASIS_ETH_AMOUNT",
      "outputs": [
        {
          "name": "",
          "type": "uint256"
        }
      ],
      "payable": false,
      "stateMutability": "view",
      "type": "function"
    },
    {
      "constant": true,
      "inputs": [],
      "name": "WETH",
      "outputs": [
        {
          "name": "",
          "type": "address"
        }
      ],
      "payable": false,
      "stateMutability": "view",
      "type": "function"
    },
    {
      "constant": true,
      "inputs": [],
      "name": "g_priceInfo",
      "outputs": [
        {
          "name": "price",
          "type": "uint128"
        },
        {
          "name": "lastUpdate",
          "type": "uint32"
        }
      ],
      "payable": false,
      "stateMutability": "view",
      "type": "function"
    },
    {
      "constant": true,
      "inputs": [],
      "name": "UNISWAP",
      "outputs": [
        {
          "name": "",
          "type": "address"
        }
      ],
      "payable": false,
      "stateMutability": "view",
      "type": "function"
    },
    {
      "constant": true,
      "inputs": [],
      "name": "DAI",
      "outputs": [
        {
          "name": "",
          "type": "address"
        }
      ],
      "payable": false,
      "stateMutability": "view",
      "type": "function"
    },
    {
      "constant": false,
      "inputs": [
        {
          "name": "newOwner",
          "type": "address"
        }
      ],
      "name": "transferOwnership",
      "outputs": [],
      "payable": false,
      "stateMutability": "nonpayable",
      "type": "function"
    },
    {
      "inputs": [
        {
          "name": "poker",
          "type": "address"
        },
        {
          "name": "weth",
          "type": "address"
        },
        {
          "name": "dai",
          "type": "address"
        },
        {
          "name": "medianizer",
          "type": "address"
        },
        {
          "name": "oasis",
          "type": "address"
        },
        {
          "name": "uniswap",
          "type": "address"
        },
        {
          "name": "oasisEthAmount",
          "type": "uint256"
        },
        {
          "components": [
            {
              "name": "denominator",
              "type": "uint64"
            },
            {
              "name": "maximumPerSecond",
              "type": "uint64"
            },
            {
              "name": "maximumAbsolute",
              "type": "uint64"
            }
          ],
          "name": "deviationParams",
          "type": "tuple"
        }
      ],
      "payable": false,
      "stateMutability": "nonpayable",
      "type": "constructor"
    },
    {
      "anonymous": false,
      "inputs": [
        {
          "components": [
            {
              "name": "price",
              "type": "uint128"
            },
            {
              "name": "lastUpdate",
              "type": "uint32"
            }
          ],
          "indexed": false,
          "name": "newPriceInfo",
          "type": "tuple"
        }
      ],
      "name": "PriceSet",
      "type": "event"
    },
    {
      "anonymous": false,
      "inputs": [
        {
          "indexed": true,
          "name": "previousOwner",
          "type": "address"
        },
        {
          "indexed": true,
          "name": "newOwner",
          "type": "address"
        }
      ],
      "name": "OwnershipTransferred",
      "type": "event"
    },
    {
      "constant": false,
      "inputs": [
        {
          "name": "newPoker",
          "type": "address"
        }
      ],
      "name": "ownerSetPokerAddress",
      "outputs": [],
      "payable": false,
      "stateMutability": "nonpayable",
      "type": "function"
    },
    {
      "constant": false,
      "inputs": [
        {
          "components": [
            {
              "name": "value",
              "type": "uint256"
            }
          ],
          "name": "minimum",
          "type": "tuple"
        },
        {
          "components": [
            {
              "name": "value",
              "type": "uint256"
            }
          ],
          "name": "maximum",
          "type": "tuple"
        }
      ],
      "name": "updatePrice",
      "outputs": [
        {
          "components": [
            {
              "name": "price",
              "type": "uint128"
            },
            {
              "name": "lastUpdate",
              "type": "uint32"
            }
          ],
          "name": "",
          "type": "tuple"
        }
      ],
      "payable": false,
      "stateMutability": "nonpayable",
      "type": "function"
    },
    {
      "constant": true,
      "inputs": [
        {
          "name": "",
          "type": "address"
        }
      ],
      "name": "getPrice",
      "outputs": [
        {
          "components": [
            {
              "name": "value",
              "type": "uint256"
            }
          ],
          "name": "",
          "type": "tuple"
        }
      ],
      "payable": false,
      "stateMutability": "view",
      "type": "function"
    },
    {
      "constant": true,
      "inputs": [],
      "name": "getBoundedTargetPrice",
      "outputs": [
        {
          "components": [
            {
              "name": "value",
              "type": "uint256"
            }
          ],
          "name": "",
          "type": "tuple"
        }
      ],
      "payable": false,
      "stateMutability": "view",
      "type": "function"
    },
    {
      "constant": true,
      "inputs": [],
      "name": "getTargetPrice",
      "outputs": [
        {
          "components": [
            {
              "name": "value",
              "type": "uint256"
            }
          ],
          "name": "",
          "type": "tuple"
        }
      ],
      "payable": false,
      "stateMutability": "view",
      "type": "function"
    },
    {
      "constant": true,
      "inputs": [],
      "name": "getMedianizerPrice",
      "outputs": [
        {
          "components": [
            {
              "name": "value",
              "type": "uint256"
            }
          ],
          "name": "",
          "type": "tuple"
        }
      ],
      "payable": false,
      "stateMutability": "view",
      "type": "function"
    },
    {
      "constant": true,
      "inputs": [
        {
          "components": [
            {
              "name": "value",
              "type": "uint256"
            }
          ],
          "name": "ethUsd",
          "type": "tuple"
        }
      ],
      "name": "getOasisPrice",
      "outputs": [
        {
          "components": [
            {
              "name": "value",
              "type": "uint256"
            }
          ],
          "name": "",
          "type": "tuple"
        }
      ],
      "payable": false,
      "stateMutability": "view",
      "type": "function"
    },
    {
      "constant": true,
      "inputs": [
        {
          "components": [
            {
              "name": "value",
              "type": "uint256"
            }
          ],
          "name": "ethUsd",
          "type": "tuple"
        }
      ],
      "name": "getUniswapPrice",
      "outputs": [
        {
          "components": [
            {
              "name": "value",
              "type": "uint256"
            }
          ],
          "name": "",
          "type": "tuple"
        }
      ],
      "payable": false,
      "stateMutability": "view",
      "type": "function"
    }
  ],
  "bytecode": "0x60806040523480156200001157600080fd5b50604051610140806200228c833981018060405262000034919081019062000251565b60008054600160a060020a0319163317808255604051600160a060020a039190911691907f8be0079c531659141344cd1fd0a4f28419497f9722a3daafe3b4186f6b6457e0908290a360028054600160a060020a03998a16600160a060020a03199182161790915560078054968a169682169690961790955560058054978916978616979097179096556006805495881695851695909517909455600880549287169284169290921790915560098054919095169116179092558051600380546020808501516040958601516001604060020a03908116700100000000000000000000000000000000908102608060020a60c060020a03199383166801000000000000000002604060020a608060020a03199390981667ffffffffffffffff1990961695909517919091169590951716919091179091556004939093558151808301909252670de0b6b3a76400008083524263ffffffff1692909301829052600180546001608060020a031916909317608060020a63ffffffff021916910217905562000367565b6000620001ca825162000339565b9392505050565b600060608284031215620001e457600080fd5b620001f0606062000312565b9050600062000200848462000243565b8252506020620002138484830162000243565b6020830152506040620002298482850162000243565b60408301525092915050565b6000620001ca825162000358565b6000620001ca82516200035b565b600080600080600080600080610140898b0312156200026f57600080fd5b60006200027d8b8b620001bc565b9850506020620002908b828c01620001bc565b9750506040620002a38b828c01620001bc565b9650506060620002b68b828c01620001bc565b9550506080620002c98b828c01620001bc565b94505060a0620002dc8b828c01620001bc565b93505060c0620002ef8b828c0162000235565b92505060e0620003028b828c01620001d1565b9150509295985092959890939650565b6040518181016001604060020a03811182821017156200033157600080fd5b604052919050565b600062000346826200034c565b92915050565b600160a060020a031690565b90565b6001604060020a031690565b611f1580620003776000396000f3fe608060405234801561001057600080fd5b506004361061019e576000357c0100000000000000000000000000000000000000000000000000000000900480638da5cb5b116100f5578063ad5c4648116100a9578063c745d9e711610083578063c745d9e7146102e8578063e0bab4c4146102f0578063f2fde38b146102f85761019e565b8063ad5c4648146102c2578063afb1f8d6146102ca578063bd01bb32146102e05761019e565b806394c5eddb116100da57806394c5eddb1461029257806396363e291461029a578063a9000566146102a25761019e565b80638da5cb5b146102755780638f32d59b1461027d5761019e565b806325878e0d11610157578063572ca9e711610131578063572ca9e714610243578063715018a614610258578063748635c7146102605761019e565b806325878e0d1461020657806341976e091461021d5780634a7454f8146102305761019e565b80630a7d8486116101885780630a7d8486146101d65780630ced7610146101de5780631ebd567b146101f15761019e565b8062a341c8146101a357806303ad0d63146101b8575b600080fd5b6101b66101b1366004611980565b61030b565b005b6101c0610363565b6040516101cd9190611d0b565b60405180910390f35b6101c061043f565b6101c06101ec3660046119e2565b610515565b6101f9610926565b6040516101cd9190611cd0565b61020e610942565b6040516101cd93929190611d42565b6101c061022b366004611980565b61097a565b6101c061023e3660046119e2565b6109a9565b61024b610a8e565b6040516101cd9190611d34565b6101b6610aa1565b610268610b21565b6040516101cd9190611c8c565b610268610b3d565b610285610b59565b6040516101cd9190611cc2565b6101f9610b77565b61024b610b93565b6102b56102b0366004611a00565b610b99565b6040516101cd9190611cef565b6101f9610e14565b6102d2610e30565b6040516101cd929190611d19565b6101c0610e64565b610268610eba565b6101f9610ed6565b6101b6610306366004611980565b610ef2565b610313610b59565b61031c57600080fd5b600280547fffffffffffffffffffffffff00000000000000000000000000000000000000001673ffffffffffffffffffffffffffffffffffffffff92909216919091179055565b61036b6118d3565b6103736118d3565b61037b610e64565b90506103856118e6565b50604080518082019091526001546fffffffffffffffffffffffffffffffff81168252700100000000000000000000000000000000900463ffffffff16602082018190526000906103ec906103d8610f0f565b63ffffffff16610f1f90919063ffffffff16565b905060008061041184600001516fffffffffffffffffffffffffffffffff1684610f34565b91509150600061042686600001518484610ff2565b6040805160208101909152908152965050505050505090565b6104476118d3565b6040518060200160405280600760009054906101000a900473ffffffffffffffffffffffffffffffffffffffff1673ffffffffffffffffffffffffffffffffffffffff166357de26a46040518163ffffffff167c010000000000000000000000000000000000000000000000000000000002815260040160206040518083038186803b1580156104d657600080fd5b505afa1580156104ea573d6000803e3d6000fd5b505050506040513d601f19601f8201168201806040525061050e91908101906119c4565b9052905090565b61051d6118d3565b600854604080517fc2b6b58c000000000000000000000000000000000000000000000000000000008152905173ffffffffffffffffffffffffffffffffffffffff90921691829163c2b6b58c916004808301926020929190829003018186803b15801561058957600080fd5b505afa15801561059d573d6000803e3d6000fd5b505050506040513d601f19601f820116820180604052506105c191908101906119a6565b8061066357508073ffffffffffffffffffffffffffffffffffffffff1663f582d2936040518163ffffffff167c010000000000000000000000000000000000000000000000000000000002815260040160206040518083038186803b15801561062957600080fd5b505afa15801561063d573d6000803e3d6000fd5b505050506040513d601f19601f8201168201806040525061066191908101906119a6565b155b8061070557508073ffffffffffffffffffffffffffffffffffffffff166301492a0b6040518163ffffffff167c010000000000000000000000000000000000000000000000000000000002815260040160206040518083038186803b1580156106cb57600080fd5b505afa1580156106df573d6000803e3d6000fd5b505050506040513d601f19601f8201168201806040525061070391908101906119a6565b155b1561073357505060408051602081019091526001546fffffffffffffffffffffffffffffffff168152610921565b600480546006546005546040517f144a2752000000000000000000000000000000000000000000000000000000008152929373ffffffffffffffffffffffffffffffffffffffff92831693918316926000929087169163144a27529161079f91879187918a9101611c9a565b60206040518083038186803b1580156107b757600080fd5b505afa1580156107cb573d6000803e3d6000fd5b505050506040513d601f19601f820116820180604052506107ef91908101906119c4565b905060008573ffffffffffffffffffffffffffffffffffffffff1663ff1fd9748585886040518463ffffffff167c010000000000000000000000000000000000000000000000000000000002815260040161084c93929190611c9a565b60206040518083038186803b15801561086457600080fd5b505afa158015610878573d6000803e3d6000fd5b505050506040513d601f19601f8201168201806040525061089c91908101906119c4565b905060006108cf6108b3878563ffffffff61101b16565b6108c3888563ffffffff61101b16565b9063ffffffff61104216565b905060006108f460026108e8868663ffffffff61101b16565b9063ffffffff61101b16565b905060006109078b600001518484611054565b604080516020810190915290815299505050505050505050505b919050565b60085473ffffffffffffffffffffffffffffffffffffffff1681565b60035467ffffffffffffffff808216916801000000000000000081048216917001000000000000000000000000000000009091041683565b6109826118d3565b505060408051602081019091526001546fffffffffffffffffffffffffffffffff16815290565b6109b16118d3565b6009546006546040517f70a0823100000000000000000000000000000000000000000000000000000000815273ffffffffffffffffffffffffffffffffffffffff928316928331926000929116906370a0823190610a13908690600401611c8c565b60206040518083038186803b158015610a2b57600080fd5b505afa158015610a3f573d6000803e3d6000fd5b505050506040513d601f19601f82011682018060405250610a6391908101906119c4565b90506000610a7686600001518484611054565b60408051602081019091529081529695505050505050565b6ec097ce7bc90715b34b9f100000000081565b610aa9610b59565b610ab257600080fd5b6000805460405173ffffffffffffffffffffffffffffffffffffffff909116907f8be0079c531659141344cd1fd0a4f28419497f9722a3daafe3b4186f6b6457e0908390a3600080547fffffffffffffffffffffffff0000000000000000000000000000000000000000169055565b60025473ffffffffffffffffffffffffffffffffffffffff1681565b60005473ffffffffffffffffffffffffffffffffffffffff1690565b60005473ffffffffffffffffffffffffffffffffffffffff16331490565b60075473ffffffffffffffffffffffffffffffffffffffff1681565b60045481565b610ba16118e6565b600254610c0c9073ffffffffffffffffffffffffffffffffffffffff1633908114907f44616950726963654f7261636c65000000000000000000000000000000000000907f4f6e6c7920706f6b65722063616e2063616c6c2075706461746550726963650090611076565b610c146118d3565b610c1c610363565b84518151919250610c759181811015917f44616950726963654f7261636c65000000000000000000000000000000000000917f6e657750726963652062656c6f77206d696e696d756d000000000000000000009161117b565b82518151610ccc9180821115917f44616950726963654f7261636c65000000000000000000000000000000000000917f6e657750726963652061626f7665206d6178696d756d00000000000000000000919061117b565b6040518060400160405280610ce48360000151611246565b6fffffffffffffffffffffffffffffffff168152602001610d03610f0f565b63ffffffff908116909152815160018054602090940151909216700100000000000000000000000000000000027fffffffffffffffffffffffff00000000ffffffffffffffffffffffffffffffff6fffffffffffffffffffffffffffffffff9092167fffffffffffffffffffffffffffffffff0000000000000000000000000000000090941693909317169190911781556040517fe98273326f8618f83229329c983e5dfeafe5dd27b8d4bdf152fb230a73f112d491610dc291611cfd565b60405180910390a15050604080518082019091526001546fffffffffffffffffffffffffffffffff81168252700100000000000000000000000000000000900463ffffffff1660208201525b92915050565b60055473ffffffffffffffffffffffffffffffffffffffff1681565b6001546fffffffffffffffffffffffffffffffff811690700100000000000000000000000000000000900463ffffffff1682565b610e6c6118d3565b610e746118d3565b610e7c61043f565b90506000610ea5670de0b6b3a7640000610e9584610515565b51610e9f856109a9565b516112a8565b60408051602081019091529081529250505090565b60095473ffffffffffffffffffffffffffffffffffffffff1681565b60065473ffffffffffffffffffffffffffffffffffffffff1681565b610efa610b59565b610f0357600080fd5b610f0c816112fa565b50565b6000610f1a426113a7565b905090565b600082821115610f2e57600080fd5b50900390565b600080610f3f6118fd565b506040805160608101825260035467ffffffffffffffff8082168352680100000000000000008204811660208401819052700100000000000000000000000000000000909204169282018390529091600091610fc3918891610fb29190610fad908a9063ffffffff61101b16565b6113fd565b845167ffffffffffffffff16611054565b9050610fd5868263ffffffff610f1f16565b610fe5878363ffffffff61104216565b9350935050509250929050565b600081831115610ffe57fe5b6110118361100c84876113fd565b611413565b90505b9392505050565b60008261102a57506000610e0e565b8282028284828161103757fe5b041461101457600080fd5b60008282018381101561101457600080fd5b60006110118261106a868663ffffffff61101b16565b9063ffffffff61142216565b836111755761108483611444565b7f3a200000000000000000000000000000000000000000000000000000000000006110ae84611444565b7f203c0000000000000000000000000000000000000000000000000000000000006110d885611543565b60405161110e9594939291907f3e0000000000000000000000000000000000000000000000000000000000000090602001611bb2565b604080517fffffffffffffffffffffffffffffffffffffffffffffffffffffffffffffffe0818403018152908290527f08c379a000000000000000000000000000000000000000000000000000000000825261116c91600401611cde565b60405180910390fd5b50505050565b8461123f5761118984611444565b7f3a200000000000000000000000000000000000000000000000000000000000006111b385611444565b7f203c0000000000000000000000000000000000000000000000000000000000006111dd866116f6565b7f2c20000000000000000000000000000000000000000000000000000000000000611207876116f6565b60405161110e97969594939291907f3e0000000000000000000000000000000000000000000000000000000000000090602001611c10565b5050505050565b600081610e0e6fffffffffffffffffffffffffffffffff821682147f4d617468000000000000000000000000000000000000000000000000000000007f556e73616665206361737420746f2075696e7431323800000000000000000000611824565b6000806112b98561100c8686611413565b9050848114156112d5576112cd8484611413565b915050611014565b838114156112e7576112cd8584611413565b6112f18585611413565b95945050505050565b73ffffffffffffffffffffffffffffffffffffffff811661131a57600080fd5b6000805460405173ffffffffffffffffffffffffffffffffffffffff808516939216917f8be0079c531659141344cd1fd0a4f28419497f9722a3daafe3b4186f6b6457e091a3600080547fffffffffffffffffffffffff00000000000000000000000000000000000000001673ffffffffffffffffffffffffffffffffffffffff92909216919091179055565b600081610e0e63ffffffff821682147f4d617468000000000000000000000000000000000000000000000000000000007f556e73616665206361737420746f2075696e7433320000000000000000000000611824565b600081831061140c5781611014565b5090919050565b600081831161140c5781611014565b600080821161143057600080fd5b600082848161143b57fe5b04949350505050565b606080826040516020016114589190611b75565b604080517fffffffffffffffffffffffffffffffffffffffffffffffffffffffffffffffe0818403018152919052905060205b80156115285781517fffffffffffffffffffffffffffffffffffffffffffffffffffffffffffffffff909101908290829081106114c457fe5b6020910101517f010000000000000000000000000000000000000000000000000000000000000090819004027fff0000000000000000000000000000000000000000000000000000000000000016156115235760010181529050610921565b61148b565b5060408051600080825260208201909252905b509392505050565b60408051602a808252606082810190935273ffffffffffffffffffffffffffffffffffffffff841691839160208201818038833901905050905060307f010000000000000000000000000000000000000000000000000000000000000002816000815181106115ae57fe5b60200101907effffffffffffffffffffffffffffffffffffffffffffffffffffffffffffff1916908160001a90535060787f0100000000000000000000000000000000000000000000000000000000000000028160018151811061160e57fe5b60200101907effffffffffffffffffffffffffffffffffffffffffffffffffffffffffffff1916908160001a90535060005b601481101561153b5760028102611659600f8516611873565b83826029038151811061166857fe5b60200101907effffffffffffffffffffffffffffffffffffffffffffffffffffffffffffff1916908160001a9053506010909304926116a9600f8516611873565b8382602803815181106116b857fe5b60200101907effffffffffffffffffffffffffffffffffffffffffffffffffffffffffffff1916908160001a90535050601090920491600101611640565b606081611737575060408051808201909152600181527f30000000000000000000000000000000000000000000000000000000000000006020820152610921565b8160005b811561174f57600101600a8204915061173b565b6060816040519080825280601f01601f19166020018201604052801561177c576020820181803883390190505b508593509050815b801561181b577fffffffffffffffffffffffffffffffffffffffffffffffffffffffffffffffff01600a84066030017f0100000000000000000000000000000000000000000000000000000000000000028282815181106117e157fe5b60200101907effffffffffffffffffffffffffffffffffffffffffffffffffffffffffffff1916908160001a905350600a84049350611784565b50949350505050565b8261186e5761183282611444565b7f3a2000000000000000000000000000000000000000000000000000000000000061185c83611444565b60405160200161110e93929190611b8a565b505050565b6000600a8210156118aa57507f01000000000000000000000000000000000000000000000000000000000000006030820102610921565b506057017f01000000000000000000000000000000000000000000000000000000000000000290565b6040518060200160405280600081525090565b604080518082019091526000808252602082015290565b604080516060810182526000808252602082018190529181019190915290565b60006110148235611d9e565b60006110148251611da9565b60006110148251611df8565b60006020828403121561195357600080fd5b61195d6020611d6a565b9050600061196b8484611974565b82525092915050565b60006110148235611df8565b60006020828403121561199257600080fd5b600061199e848461191d565b949350505050565b6000602082840312156119b857600080fd5b600061199e8484611929565b6000602082840312156119d657600080fd5b600061199e8484611935565b6000602082840312156119f457600080fd5b600061199e8484611941565b60008060408385031215611a1357600080fd5b6000611a1f8585611941565b9250506020611a3085828601611941565b9150509250929050565b611a4381611d9e565b82525050565b611a4381611da9565b611a43611a5e82611dae565b611df8565b611a43611a5e82611dd3565b611a43611a5e82611df8565b6000611a8682611d91565b611a908185610921565b9350611aa0818560208601611e4a565b9290920192915050565b611a4381611e3f565b6000611abe82611d91565b611ac88185611d95565b9350611ad8818560208601611e4a565b611ae181611e9c565b9093019392505050565b80516040830190611afc8482611b51565b5060208201516111756020850182611b63565b80546040830190611b1f81611e76565b611b298582611b51565b50611b3381611e89565b61123f6020860182611b63565b805160208301906111758482611b5a565b611a4381611dfb565b611a4381611df8565b611a4381611e29565b611a4381611e32565b6000611b818284611a6f565b50602001919050565b6000611b968286611a7b565b9150611ba28285611a63565b6002820191506112f18284611a7b565b6000611bbe8289611a7b565b9150611bca8288611a63565b600282019150611bda8287611a7b565b9150611be68286611a63565b600282019150611bf68285611a7b565b9150611c028284611a52565b506001019695505050505050565b6000611c1c828b611a7b565b9150611c28828a611a63565b600282019150611c388289611a7b565b9150611c448288611a63565b600282019150611c548287611a7b565b9150611c608286611a63565b600282019150611c708285611a7b565b9150611c7c8284611a52565b5060010198975050505050505050565b60208101610e0e8284611a3a565b60608101611ca88286611a3a565b611cb56020830185611a3a565b61199e6040830184611b5a565b60208101610e0e8284611a49565b60208101610e0e8284611aaa565b602080825281016110148184611ab3565b60408101610e0e8284611aeb565b60408101610e0e8284611b0f565b60208101610e0e8284611b40565b60408101611d278285611b51565b6110146020830184611b63565b60208101610e0e8284611b5a565b60608101611d508286611b6c565b611d5d6020830185611b6c565b61199e6040830184611b6c565b60405181810167ffffffffffffffff81118282101715611d8957600080fd5b604052919050565b5190565b90815260200190565b6000610e0e82611e10565b151590565b7fff000000000000000000000000000000000000000000000000000000000000001690565b7fffff0000000000000000000000000000000000000000000000000000000000001690565b90565b6fffffffffffffffffffffffffffffffff1690565b73ffffffffffffffffffffffffffffffffffffffff1690565b63ffffffff1690565b67ffffffffffffffff1690565b6000610e0e82611d9e565b60005b83811015611e65578181015183820152602001611e4d565b838111156111755750506000910152565b6000610e0e611e8483611df8565b611dfb565b6000610e0e611e9783611ec4565b611e29565b601f017fffffffffffffffffffffffffffffffffffffffffffffffffffffffffffffffe01690565b70010000000000000000000000000000000090049056fea265627a7a7230582050fedd6683637a4d1483f54a72435435b5255b64eda8204c3500e5d314e35a996c6578706572696d656e74616cf50037",
  "source": "/*\n\n    Copyright 2019 dYdX Trading Inc.\n\n    Licensed under the Apache License, Version 2.0 (the \"License\");\n    you may not use this file except in compliance with the License.\n    You may obtain a copy of the License at\n\n    http://www.apache.org/licenses/LICENSE-2.0\n\n    Unless required by applicable law or agreed to in writing, software\n    distributed under the License is distributed on an \"AS IS\" BASIS,\n    WITHOUT WARRANTIES OR CONDITIONS OF ANY KIND, either express or implied.\n    See the License for the specific language governing permissions and\n    limitations under the License.\n\n*/\n\npragma solidity 0.5.7;\npragma experimental ABIEncoderV2;\n\nimport { SafeMath } from \"openzeppelin-solidity/contracts/math/SafeMath.sol\";\nimport { Ownable } from \"openzeppelin-solidity/contracts/ownership/Ownable.sol\";\nimport { IErc20 } from \"../../protocol/interfaces/IErc20.sol\";\nimport { IPriceOracle } from \"../../protocol/interfaces/IPriceOracle.sol\";\nimport { Math } from \"../../protocol/lib/Math.sol\";\nimport { Monetary } from \"../../protocol/lib/Monetary.sol\";\nimport { Require } from \"../../protocol/lib/Require.sol\";\nimport { Time } from \"../../protocol/lib/Time.sol\";\nimport { IMakerOracle } from \"../interfaces/IMakerOracle.sol\";\nimport { IOasisDex } from \"../interfaces/IOasisDex.sol\";\n\n\n/**\n * @title DaiPriceOracle\n * @author dYdX\n *\n * PriceOracle that gives the price of Dai in USD\n */\ncontract DaiPriceOracle is\n    Ownable,\n    IPriceOracle\n{\n    using SafeMath for uint256;\n\n    // ============ Constants ============\n\n    bytes32 constant FILE = \"DaiPriceOracle\";\n\n    uint256 constant DECIMALS = 18;\n\n    uint256 constant EXPECTED_PRICE = ONE_DOLLAR / (10 ** DECIMALS);\n\n    // ============ Structs ============\n\n    struct PriceInfo {\n        uint128 price;\n        uint32 lastUpdate;\n    }\n\n    struct DeviationParams {\n        uint64 denominator;\n        uint64 maximumPerSecond;\n        uint64 maximumAbsolute;\n    }\n\n    // ============ Events ============\n\n    event PriceSet(\n        PriceInfo newPriceInfo\n    );\n\n    // ============ Storage ============\n\n    PriceInfo public g_priceInfo;\n\n    address public g_poker;\n\n    DeviationParams public DEVIATION_PARAMS;\n\n    uint256 public OASIS_ETH_AMOUNT;\n\n    IErc20 public WETH;\n\n    IErc20 public DAI;\n\n    IMakerOracle public MEDIANIZER;\n\n    IOasisDex public OASIS;\n\n    address public UNISWAP;\n\n    // ============ Constructor =============\n\n    constructor(\n        address poker,\n        address weth,\n        address dai,\n        address medianizer,\n        address oasis,\n        address uniswap,\n        uint256 oasisEthAmount,\n        DeviationParams memory deviationParams\n    )\n        public\n    {\n        g_poker = poker;\n        MEDIANIZER = IMakerOracle(medianizer);\n        WETH = IErc20(weth);\n        DAI = IErc20(dai);\n        OASIS = IOasisDex(oasis);\n        UNISWAP = uniswap;\n        DEVIATION_PARAMS = deviationParams;\n        OASIS_ETH_AMOUNT = oasisEthAmount;\n        g_priceInfo = PriceInfo({\n            lastUpdate: uint32(block.timestamp),\n            price: uint128(EXPECTED_PRICE)\n        });\n    }\n\n    // ============ Admin Functions ============\n\n    function ownerSetPokerAddress(\n        address newPoker\n    )\n        external\n        onlyOwner\n    {\n        g_poker = newPoker;\n    }\n\n    // ============ Public Functions ============\n\n    function updatePrice(\n        Monetary.Price memory minimum,\n        Monetary.Price memory maximum\n    )\n        public\n        returns (PriceInfo memory)\n    {\n        Require.that(\n            msg.sender == g_poker,\n            FILE,\n            \"Only poker can call updatePrice\",\n            msg.sender\n        );\n\n        Monetary.Price memory newPrice = getBoundedTargetPrice();\n\n        Require.that(\n            newPrice.value >= minimum.value,\n            FILE,\n            \"newPrice below minimum\",\n            newPrice.value,\n            minimum.value\n        );\n\n        Require.that(\n            newPrice.value <= maximum.value,\n            FILE,\n            \"newPrice above maximum\",\n            newPrice.value,\n            maximum.value\n        );\n\n        g_priceInfo = PriceInfo({\n            price: Math.to128(newPrice.value),\n            lastUpdate: Time.currentTime()\n        });\n\n        emit PriceSet(g_priceInfo);\n        return g_priceInfo;\n    }\n\n    // ============ IPriceOracle Functions ============\n\n    function getPrice(\n        address /* token */\n    )\n        public\n        view\n        returns (Monetary.Price memory)\n    {\n        return Monetary.Price({\n            value: g_priceInfo.price\n        });\n    }\n\n    // ============ Price-Query Functions ============\n\n    /**\n     * Get the new price that would be stored if updated right now.\n     */\n    function getBoundedTargetPrice()\n        public\n        view\n        returns (Monetary.Price memory)\n    {\n        Monetary.Price memory targetPrice = getTargetPrice();\n\n        PriceInfo memory oldInfo = g_priceInfo;\n        uint256 timeDelta = uint256(Time.currentTime()).sub(oldInfo.lastUpdate);\n        (uint256 minPrice, uint256 maxPrice) = getPriceBounds(oldInfo.price, timeDelta);\n        uint256 boundedTargetPrice = boundValue(targetPrice.value, minPrice, maxPrice);\n\n        return Monetary.Price({\n            value: boundedTargetPrice\n        });\n    }\n\n    /**\n     * Get the USD price of DAI that this contract will move towards when updated. This price is\n     * not bounded by the variables governing the maximum deviation from the old price.\n     */\n    function getTargetPrice()\n        public\n        view\n        returns (Monetary.Price memory)\n    {\n        Monetary.Price memory ethUsd = getMedianizerPrice();\n\n        uint256 targetPrice = getMidValue(\n            EXPECTED_PRICE,\n            getOasisPrice(ethUsd).value,\n            getUniswapPrice(ethUsd).value\n        );\n\n        return Monetary.Price({\n            value: targetPrice\n        });\n    }\n\n    /**\n     * Get the USD price of ETH according the Maker Medianizer contract.\n     */\n    function getMedianizerPrice()\n        public\n        view\n        returns (Monetary.Price memory)\n    {\n        // throws if the price is not fresh\n        return Monetary.Price({\n            value: uint256(MEDIANIZER.read())\n        });\n    }\n\n    /**\n     * Get the USD price of DAI according to OasisDEX given the USD price of ETH.\n     */\n    function getOasisPrice(\n        Monetary.Price memory ethUsd\n    )\n        public\n        view\n        returns (Monetary.Price memory)\n    {\n        IOasisDex oasis = OASIS;\n\n        // If exchange is not operational, return old value.\n        // This allows the price to move only towards 1 USD\n        if (\n            oasis.isClosed()\n            || !oasis.buyEnabled()\n            || !oasis.matchingEnabled()\n        ) {\n            return Monetary.Price({\n                value: g_priceInfo.price\n            });\n        }\n\n        uint256 numWei = OASIS_ETH_AMOUNT;\n        address dai = address(DAI);\n        address weth = address(WETH);\n\n        // Assumes at least `numWei` of depth on both sides of the book if the exchange is active.\n        // Will revert if not enough depth.\n        uint256 daiAmt1 = oasis.getBuyAmount(dai, weth, numWei);\n        uint256 daiAmt2 = oasis.getPayAmount(dai, weth, numWei);\n\n        uint256 num = numWei.mul(daiAmt2).add(numWei.mul(daiAmt1));\n        uint256 den = daiAmt1.mul(daiAmt2).mul(2);\n        uint256 oasisPrice = Math.getPartial(ethUsd.value, num, den);\n\n        return Monetary.Price({\n            value: oasisPrice\n        });\n    }\n\n    /**\n     * Get the USD price of DAI according to Uniswap given the USD price of ETH.\n     */\n    function getUniswapPrice(\n        Monetary.Price memory ethUsd\n    )\n        public\n        view\n        returns (Monetary.Price memory)\n    {\n        address uniswap = address(UNISWAP);\n        uint256 ethAmt = uniswap.balance;\n        uint256 daiAmt = DAI.balanceOf(uniswap);\n        uint256 uniswapPrice = Math.getPartial(ethUsd.value, ethAmt, daiAmt);\n\n        return Monetary.Price({\n            value: uniswapPrice\n        });\n    }\n\n    // ============ Helper Functions ============\n\n    function getPriceBounds(\n        uint256 oldPrice,\n        uint256 timeDelta\n    )\n        private\n        view\n        returns (uint256, uint256)\n    {\n        DeviationParams memory deviation = DEVIATION_PARAMS;\n\n        uint256 maxDeviation = Math.getPartial(\n            oldPrice,\n            Math.min(deviation.maximumAbsolute, timeDelta.mul(deviation.maximumPerSecond)),\n            deviation.denominator\n        );\n\n        return (\n            oldPrice.sub(maxDeviation),\n            oldPrice.add(maxDeviation)\n        );\n    }\n\n    function getMidValue(\n        uint256 valueA,\n        uint256 valueB,\n        uint256 valueC\n    )\n        private\n        pure\n        returns (uint256)\n    {\n        uint256 maximum = Math.max(valueA, Math.max(valueB, valueC));\n        if (maximum == valueA) {\n            return Math.max(valueB, valueC);\n        }\n        if (maximum == valueB) {\n            return Math.max(valueA, valueC);\n        }\n        return Math.max(valueA, valueB);\n    }\n\n    function boundValue(\n        uint256 value,\n        uint256 minimum,\n        uint256 maximum\n    )\n        private\n        pure\n        returns (uint256)\n    {\n        assert(minimum <= maximum);\n        return Math.max(minimum, Math.min(maximum, value));\n    }\n}\n",
  "sourcePath": "/home/ankit/projects/solo/contracts/external/oracles/DaiPriceOracle.sol",
  "compiler": {
    "name": "solc",
    "version": "0.5.7+commit.6da8b019.Linux.g++"
  },
  "schemaVersion": "3.0.23",
  "updatedAt": "2020-04-24T13:34:22.079Z",
  "devdoc": {
    "author": "dYdX * PriceOracle that gives the price of Dai in USD",
    "methods": {
      "isOwner()": {
        "return": "true if `msg.sender` is the owner of the contract."
      },
      "owner()": {
        "return": "the address of the owner."
      },
      "renounceOwnership()": {
        "details": "Allows the current owner to relinquish control of the contract."
      },
      "transferOwnership(address)": {
        "details": "Allows the current owner to transfer control of the contract to a newOwner.",
        "params": {
          "newOwner": "The address to transfer ownership to."
        }
      }
    },
    "title": "DaiPriceOracle"
  },
  "userdoc": {
    "methods": {
      "getBoundedTargetPrice()": {
        "notice": "Get the new price that would be stored if updated right now."
      },
      "getMedianizerPrice()": {
        "notice": "Get the USD price of ETH according the Maker Medianizer contract."
      },
      "getOasisPrice((uint256))": {
        "notice": "Get the USD price of DAI according to OasisDEX given the USD price of ETH."
      },
      "getTargetPrice()": {
        "notice": "Get the USD price of DAI that this contract will move towards when updated. This price is not bounded by the variables governing the maximum deviation from the old price."
      },
      "getUniswapPrice((uint256))": {
        "notice": "Get the USD price of DAI according to Uniswap given the USD price of ETH."
      },
      "renounceOwnership()": {
        "notice": "Renouncing to ownership will leave the contract without an owner. It will not be possible to call the functions with the `onlyOwner` modifier anymore."
      }
    }
  }
}