{
  "contractName": "Expiry",
  "abi": [
    {
      "constant": true,
      "inputs": [],
      "name": "SOLO_MARGIN",
      "outputs": [
        {
          "name": "",
          "type": "address"
        }
      ],
      "payable": false,
      "stateMutability": "view",
      "type": "function"
    },
    {
      "constant": false,
      "inputs": [],
      "name": "renounceOwnership",
      "outputs": [],
      "payable": false,
      "stateMutability": "nonpayable",
      "type": "function"
    },
    {
      "constant": true,
      "inputs": [],
      "name": "owner",
      "outputs": [
        {
          "name": "",
          "type": "address"
        }
      ],
      "payable": false,
      "stateMutability": "view",
      "type": "function"
    },
    {
      "constant": true,
      "inputs": [],
      "name": "isOwner",
      "outputs": [
        {
          "name": "",
          "type": "bool"
        }
      ],
      "payable": false,
      "stateMutability": "view",
      "type": "function"
    },
    {
      "constant": true,
      "inputs": [],
      "name": "g_expiryRampTime",
      "outputs": [
        {
          "name": "",
          "type": "uint256"
        }
      ],
      "payable": false,
      "stateMutability": "view",
      "type": "function"
    },
    {
      "constant": false,
      "inputs": [
        {
          "name": "newOwner",
          "type": "address"
        }
      ],
      "name": "transferOwnership",
      "outputs": [],
      "payable": false,
      "stateMutability": "nonpayable",
      "type": "function"
    },
    {
      "inputs": [
        {
          "name": "soloMargin",
          "type": "address"
        },
        {
          "name": "expiryRampTime",
          "type": "uint256"
        }
      ],
      "payable": false,
      "stateMutability": "nonpayable",
      "type": "constructor"
    },
    {
      "anonymous": false,
      "inputs": [
        {
          "indexed": false,
          "name": "owner",
          "type": "address"
        },
        {
          "indexed": false,
          "name": "number",
          "type": "uint256"
        },
        {
          "indexed": false,
          "name": "marketId",
          "type": "uint256"
        },
        {
          "indexed": false,
          "name": "time",
          "type": "uint32"
        }
      ],
      "name": "ExpirySet",
      "type": "event"
    },
    {
      "anonymous": false,
      "inputs": [
        {
          "indexed": false,
          "name": "expiryRampTime",
          "type": "uint256"
        }
      ],
      "name": "LogExpiryRampTimeSet",
      "type": "event"
    },
    {
      "anonymous": false,
      "inputs": [
        {
          "indexed": true,
          "name": "previousOwner",
          "type": "address"
        },
        {
          "indexed": true,
          "name": "newOwner",
          "type": "address"
        }
      ],
      "name": "OwnershipTransferred",
      "type": "event"
    },
    {
      "constant": false,
      "inputs": [
        {
          "name": "newExpiryRampTime",
          "type": "uint256"
        }
      ],
      "name": "ownerSetExpiryRampTime",
      "outputs": [],
      "payable": false,
      "stateMutability": "nonpayable",
      "type": "function"
    },
    {
      "constant": false,
      "inputs": [
        {
          "name": "",
          "type": "address"
        },
        {
          "components": [
            {
              "name": "owner",
              "type": "address"
            },
            {
              "name": "number",
              "type": "uint256"
            }
          ],
          "name": "account",
          "type": "tuple"
        },
        {
          "name": "data",
          "type": "bytes"
        }
      ],
      "name": "callFunction",
      "outputs": [],
      "payable": false,
      "stateMutability": "nonpayable",
      "type": "function"
    },
    {
      "constant": false,
      "inputs": [
        {
          "name": "inputMarketId",
          "type": "uint256"
        },
        {
          "name": "outputMarketId",
          "type": "uint256"
        },
        {
          "components": [
            {
              "name": "owner",
              "type": "address"
            },
            {
              "name": "number",
              "type": "uint256"
            }
          ],
          "name": "makerAccount",
          "type": "tuple"
        },
        {
          "components": [
            {
              "name": "owner",
              "type": "address"
            },
            {
              "name": "number",
              "type": "uint256"
            }
          ],
          "name": "",
          "type": "tuple"
        },
        {
          "components": [
            {
              "name": "sign",
              "type": "bool"
            },
            {
              "name": "value",
              "type": "uint128"
            }
          ],
          "name": "oldInputPar",
          "type": "tuple"
        },
        {
          "components": [
            {
              "name": "sign",
              "type": "bool"
            },
            {
              "name": "value",
              "type": "uint128"
            }
          ],
          "name": "newInputPar",
          "type": "tuple"
        },
        {
          "components": [
            {
              "name": "sign",
              "type": "bool"
            },
            {
              "name": "value",
              "type": "uint256"
            }
          ],
          "name": "inputWei",
          "type": "tuple"
        },
        {
          "name": "data",
          "type": "bytes"
        }
      ],
      "name": "getTradeCost",
      "outputs": [
        {
          "components": [
            {
              "name": "sign",
              "type": "bool"
            },
            {
              "name": "denomination",
              "type": "uint8"
            },
            {
              "name": "ref",
              "type": "uint8"
            },
            {
              "name": "value",
              "type": "uint256"
            }
          ],
          "name": "",
          "type": "tuple"
        }
      ],
      "payable": false,
      "stateMutability": "nonpayable",
      "type": "function"
    },
    {
      "constant": true,
      "inputs": [
        {
          "components": [
            {
              "name": "owner",
              "type": "address"
            },
            {
              "name": "number",
              "type": "uint256"
            }
          ],
          "name": "account",
          "type": "tuple"
        },
        {
          "name": "marketId",
          "type": "uint256"
        }
      ],
      "name": "getExpiry",
      "outputs": [
        {
          "name": "",
          "type": "uint32"
        }
      ],
      "payable": false,
      "stateMutability": "view",
      "type": "function"
    },
    {
      "constant": true,
      "inputs": [
        {
          "name": "heldMarketId",
          "type": "uint256"
        },
        {
          "name": "owedMarketId",
          "type": "uint256"
        },
        {
          "name": "expiry",
          "type": "uint32"
        }
      ],
      "name": "getSpreadAdjustedPrices",
      "outputs": [
        {
          "components": [
            {
              "name": "value",
              "type": "uint256"
            }
          ],
          "name": "",
          "type": "tuple"
        },
        {
          "components": [
            {
              "name": "value",
              "type": "uint256"
            }
          ],
          "name": "",
          "type": "tuple"
        }
      ],
      "payable": false,
      "stateMutability": "view",
      "type": "function"
    }
  ],
  "bytecode": "0x60806040523480156200001157600080fd5b50604051604080620025c08339810180604052620000339190810190620000cb565b60008054600160a060020a03191633178082556040518492600160a060020a039290921691907f8be0079c531659141344cd1fd0a4f28419497f9722a3daafe3b4186f6b6457e0908290a360018054600160a060020a031916600160a060020a0392909216919091179055600355506200012c565b6000620000b682516200010a565b9392505050565b6000620000b6825162000129565b60008060408385031215620000df57600080fd5b6000620000ed8585620000a8565b92505060206200010085828601620000bd565b9150509250929050565b600062000117826200011d565b92915050565b600160a060020a031690565b90565b612484806200013c6000396000f3fe608060405234801561001057600080fd5b50600436106100e6576000357c0100000000000000000000000000000000000000000000000000000000900480638da5cb5b1161009e578063d886248411610078578063d8862484146101b1578063f2fde38b146101c6578063f64e654c146101d9576100e6565b80638da5cb5b146101665780638f32d59b1461017b578063b139654214610190576100e6565b8063448f7065116100cf578063448f706514610129578063715018a6146101495780638b41871314610153576100e6565b80631b1fe68a146100eb5780631be7dd8314610109575b600080fd5b6100f36101ec565b604051610100919061221c565b60405180910390f35b61011c610117366004611d28565b610208565b60405161010091906122a8565b61013c610137366004611dbc565b610252565b604051610100919061223b565b610151610468565b005b610151610161366004611ca5565b6104e8565b61016e610643565b60405161010091906121cb565b61018361065f565b604051610100919061220e565b6101a361019e366004611e87565b61067d565b604051610100929190612264565b6101b9610916565b604051610100919061227f565b6101516101d4366004611c7f565b61091c565b6101516101e7366004611d9e565b610939565b60015473ffffffffffffffffffffffffffffffffffffffff1681565b815173ffffffffffffffffffffffffffffffffffffffff166000908152600260209081526040808320828601518452825280832084845290915290205463ffffffff165b92915050565b61025a611a23565b60015433906102c39073ffffffffffffffffffffffffffffffffffffffff1682147f4f6e6c79536f6c6f0000000000000000000000000000000000000000000000007f4f6e6c7920536f6c6f2063616e2063616c6c2066756e6374696f6e000000000084610986565b6102cc84610a85565b156102fe576040805160808101909152600180825260208201908152602001600081526020016000815250915061045b565b60008061030a85610a91565b91509150600061031a8b84610208565b905061037c8163ffffffff16600014157f45787069727900000000000000000000000000000000000000000000000000007f457870697279206e6f74207365740000000000000000000000000000000000008e600001518f6020015188610b04565b6103e4610387610bf4565b63ffffffff168263ffffffff1611157f45787069727900000000000000000000000000000000000000000000000000007f426f72726f77206e6f74207965742065787069726564000000000000000000008463ffffffff16610c04565b6104458263ffffffff168263ffffffff1611157f45787069727900000000000000000000000000000000000000000000000000007f4578706972792070617374206d617845787069727900000000000000000000008463ffffffff16610c04565b6104558d8d8d8c8c8c8988610c66565b94505050505b5098975050505050505050565b61047061065f565b61047957600080fd5b6000805460405173ffffffffffffffffffffffffffffffffffffffff909116907f8be0079c531659141344cd1fd0a4f28419497f9722a3daafe3b4186f6b6457e0908390a3600080547fffffffffffffffffffffffff0000000000000000000000000000000000000000169055565b60015433906105519073ffffffffffffffffffffffffffffffffffffffff1682147f4f6e6c79536f6c6f0000000000000000000000000000000000000000000000007f4f6e6c7920536f6c6f2063616e2063616c6c2066756e6374696f6e000000000084610986565b60008061055d8461104a565b915091508063ffffffff1660001415801561062357506001546040517f47d1b53c0000000000000000000000000000000000000000000000000000000081526106219173ffffffffffffffffffffffffffffffffffffffff16906347d1b53c906105cd9089908790600401612249565b604080518083038186803b1580156105e457600080fd5b505afa1580156105f8573d6000803e3d6000fd5b505050506040513d601f19601f8201168201806040525061061c9190810190611d62565b61109e565b155b1561062f57505061063d565b61063a8583836110c7565b50505b50505050565b60005473ffffffffffffffffffffffffffffffffffffffff1690565b60005473ffffffffffffffffffffffffffffffffffffffff16331490565b610685611a4c565b61068d611a4c565b610695611a4c565b6001546040517fd24c48bc00000000000000000000000000000000000000000000000000000000815273ffffffffffffffffffffffffffffffffffffffff9091169063d24c48bc906106ed908990899060040161228d565b60206040518083038186803b15801561070557600080fd5b505afa158015610719573d6000803e3d6000fd5b505050506040513d601f19601f8201168201806040525061073d9190810190611d0a565b905060006107678563ffffffff16610753610bf4565b63ffffffff1661117790919063ffffffff16565b90506003548110156107875761078482600001518260035461118c565b82525b61078f611a4c565b6001546040517f8928378e00000000000000000000000000000000000000000000000000000000815273ffffffffffffffffffffffffffffffffffffffff90911690638928378e906107e5908b9060040161227f565b60206040518083038186803b1580156107fd57600080fd5b505afa158015610811573d6000803e3d6000fd5b505050506040513d601f19601f820116820180604052506108359190810190611d0a565b905061083f611a4c565b6001546040517f8928378e00000000000000000000000000000000000000000000000000000000815273ffffffffffffffffffffffffffffffffffffffff90911690638928378e90610895908b9060040161227f565b60206040518083038186803b1580156108ad57600080fd5b505afa1580156108c1573d6000803e3d6000fd5b505050506040513d601f19601f820116820180604052506108e59190810190611d0a565b90506109066108f88260000151866111b8565b82519063ffffffff6111d116565b8152909890975095505050505050565b60035481565b61092461065f565b61092d57600080fd5b610936816111e3565b50565b61094161065f565b61094a57600080fd5b7fd08f204a092297d87c6a408c8d66cb1b189734e8284e655f896717b45a93a53681604051610979919061227f565b60405180910390a1600355565b8361063d5761099483611290565b7f3a200000000000000000000000000000000000000000000000000000000000006109be84611290565b7f203c0000000000000000000000000000000000000000000000000000000000006109e88561138f565b604051610a1e9594939291907f3e0000000000000000000000000000000000000000000000000000000000000090602001612057565b604080517fffffffffffffffffffffffffffffffffffffffffffffffffffffffffffffffe0818403018152908290527f08c379a0000000000000000000000000000000000000000000000000000000008252610a7c9160040161222a565b60405180910390fd5b6020810151155b919050565b600080610ae583516040147f45787069727900000000000000000000000000000000000000000000000000007f5472616465206461746120696e76616c6964206c656e677468000000000000008651610c04565b6020830151604084015181610af982611542565b935093505050915091565b8561063a57610b1285611290565b7f3a20000000000000000000000000000000000000000000000000000000000000610b3c86611290565b7f203c000000000000000000000000000000000000000000000000000000000000610b668761138f565b7f2c20000000000000000000000000000000000000000000000000000000000000610b9088611598565b7f2c20000000000000000000000000000000000000000000000000000000000000610bba89611598565b604051610a1e999897969594939291907f3e0000000000000000000000000000000000000000000000000000000000000090602001612131565b6000610bff42611542565b905090565b8361063d57610c1283611290565b7f3a20000000000000000000000000000000000000000000000000000000000000610c3c84611290565b7f203c0000000000000000000000000000000000000000000000000000000000006109e885611598565b610c6e611a23565b610c76611a23565b610c7e611a5f565b6001546040517fc190c2ec00000000000000000000000000000000000000000000000000000000815273ffffffffffffffffffffffffffffffffffffffff9091169063c190c2ec90610cd6908c908e90600401612249565b604080518083038186803b158015610ced57600080fd5b505afa158015610d01573d6000803e3d6000fd5b505050506040513d601f19601f82011682018060405250610d259190810190611d80565b9050610d30866116c6565b15610e8357610d83858c147f45787069727900000000000000000000000000000000000000000000000000007f696e7075744d61726b6574206d69736d617463680000000000000000000000008e610c04565b610dee610d8f886116dc565b157f45787069727900000000000000000000000000000000000000000000000000007f426f72726f77732063616e6e6f74206265206f766572706169640000000000008a602001516fffffffffffffffffffffffffffffffff16610c04565b610df78861109e565b610dfd57fe5b610e56610e09826116c6565b7f45787069727900000000000000000000000000000000000000000000000000007f436f6c6c61746572616c206d75737420626520706f73697469766500000000008d8560200151611704565b610e62868b8d876117cf565b9150610e6d87611844565b15610e7e57610e7e898660006110c7565b610fce565b610ed1858b147f45787069727900000000000000000000000000000000000000000000000000007f6f75747075744d61726b6574206d69736d6174636800000000000000000000008d610c04565b610f3c610edd8861109e565b157f45787069727900000000000000000000000000000000000000000000000000007f436f6c6c61746572616c2063616e6e6f74206265206f766572757365640000008a602001516fffffffffffffffffffffffffffffffff16610c04565b610f45886116dc565b610f4b57fe5b610fa4610f578261185e565b7f45787069727900000000000000000000000000000000000000000000000000007f426f72726f7773206d757374206265206e6567617469766500000000000000008d8560200151611704565b610fb0868c8c87611875565b9150806020015182606001511415610fce57610fce898660006110c7565b6020810151606083015161102b9180821115917f4578706972790000000000000000000000000000000000000000000000000000917f6f75747075744d61726b657420746f6f20736d616c6c000000000000000000009190611704565b805182511515901515141561103c57fe5b509998505050505050505050565b600080610ae583516040147f45787069727900000000000000000000000000000000000000000000000000007f43616c6c206461746120696e76616c6964206c656e67746800000000000000008651610c04565b805160009015801561024c575050602001516fffffffffffffffffffffffffffffffff16151590565b825173ffffffffffffffffffffffffffffffffffffffff166000908152600260209081526040808320828701805185529083528184208685529092529182902080547fffffffffffffffffffffffffffffffffffffffffffffffffffffffff000000001663ffffffff85161790558451905191517ecee2201664da23900ada76f5e96bcae576e5d7253b36f10dc1b379597d521b9261116a9291869086906121d9565b60405180910390a1505050565b60008282111561118657600080fd5b50900390565b60006111ae826111a2868663ffffffff6118d216565b9063ffffffff6118f916565b90505b9392505050565b60006111b1838360000151670de0b6b3a764000061118c565b6000828201838110156111b157600080fd5b73ffffffffffffffffffffffffffffffffffffffff811661120357600080fd5b6000805460405173ffffffffffffffffffffffffffffffffffffffff808516939216917f8be0079c531659141344cd1fd0a4f28419497f9722a3daafe3b4186f6b6457e091a3600080547fffffffffffffffffffffffff00000000000000000000000000000000000000001673ffffffffffffffffffffffffffffffffffffffff92909216919091179055565b606080826040516020016112a49190612011565b604080517fffffffffffffffffffffffffffffffffffffffffffffffffffffffffffffffe0818403018152919052905060205b80156113745781517fffffffffffffffffffffffffffffffffffffffffffffffffffffffffffffffff9091019082908290811061131057fe5b6020910101517f010000000000000000000000000000000000000000000000000000000000000090819004027fff00000000000000000000000000000000000000000000000000000000000000161561136f5760010181529050610a8c565b6112d7565b5060408051600080825260208201909252905b509392505050565b60408051602a808252606082810190935273ffffffffffffffffffffffffffffffffffffffff841691839160208201818038833901905050905060307f010000000000000000000000000000000000000000000000000000000000000002816000815181106113fa57fe5b60200101907effffffffffffffffffffffffffffffffffffffffffffffffffffffffffffff1916908160001a90535060787f0100000000000000000000000000000000000000000000000000000000000000028160018151811061145a57fe5b60200101907effffffffffffffffffffffffffffffffffffffffffffffffffffffffffffff1916908160001a90535060005b601481101561138757600281026114a5600f851661191b565b8382602903815181106114b457fe5b60200101907effffffffffffffffffffffffffffffffffffffffffffffffffffffffffffff1916908160001a9053506010909304926114f5600f851661191b565b83826028038151811061150457fe5b60200101907effffffffffffffffffffffffffffffffffffffffffffffffffffffffffffff1916908160001a9053505060109092049160010161148c565b60008161024c63ffffffff821682147f4d617468000000000000000000000000000000000000000000000000000000007f556e73616665206361737420746f2075696e743332000000000000000000000061197b565b6060816115d9575060408051808201909152600181527f30000000000000000000000000000000000000000000000000000000000000006020820152610a8c565b8160005b81156115f157600101600a820491506115dd565b6060816040519080825280601f01601f19166020018201604052801561161e576020820181803883390190505b508593509050815b80156116bd577fffffffffffffffffffffffffffffffffffffffffffffffffffffffffffffffff01600a84066030017f01000000000000000000000000000000000000000000000000000000000000000282828151811061168357fe5b60200101907effffffffffffffffffffffffffffffffffffffffffffffffffffffffffffff1916908160001a905350600a84049350611626565b50949350505050565b8051600090801561024c57505060200151151590565b8051600090801561024c575050602001516fffffffffffffffffffffffffffffffff16151590565b846117c85761171284611290565b7f3a2000000000000000000000000000000000000000000000000000000000000061173c85611290565b7f203c00000000000000000000000000000000000000000000000000000000000061176686611598565b7f2c2000000000000000000000000000000000000000000000000000000000000061179087611598565b604051610a1e97969594939291907f3e00000000000000000000000000000000000000000000000000000000000000906020016120b5565b5050505050565b6117d7611a23565b6117df611a4c565b6117e7611a4c565b6117f286868661067d565b91509150600061180f88602001518360000151856000015161118c565b604080516080810190915260008082529192509060208201905b81526020016000815260200191909152979650505050505050565b602001516fffffffffffffffffffffffffffffffff161590565b805160009015801561024c57505060200151151590565b61187d611a23565b611885611a4c565b61188d611a4c565b61189886868661067d565b9150915060006118b58860200151846000015184600001516119ca565b604080516080810190915260018152909150602081016000611829565b6000826118e15750600061024c565b828202828482816118ee57fe5b04146111b157600080fd5b600080821161190757600080fd5b600082848161191257fe5b04949350505050565b6000600a82101561195257507f01000000000000000000000000000000000000000000000000000000000000006030820102610a8c565b506057017f01000000000000000000000000000000000000000000000000000000000000000290565b826119c55761198982611290565b7f3a200000000000000000000000000000000000000000000000000000000000006119b383611290565b604051602001610a1e93929190612026565b505050565b60008315806119d7575082155b156119ee576119e76000836118f9565b90506111b1565b6111ae6001611a17846111a283611a0b8a8a63ffffffff6118d216565b9063ffffffff61117716565b9063ffffffff6111d116565b604080516080810190915260008082526020820190815260200160008152602001600081525090565b6040518060200160405280600081525090565b604080518082019091526000808252602082015290565b60006111b18235612330565b60006111b1823561233b565b60006111b1825161233b565b600082601f830112611aab57600080fd5b8135611abe611ab9826122dd565b6122b6565b91508082526020830160208301858383011115611ada57600080fd5b611ae58382846123ea565b50505092915050565b600060208284031215611b0057600080fd5b611b0a60206122b6565b90506000611b188484611c67565b82525092915050565b600060408284031215611b3357600080fd5b611b3d60406122b6565b90506000611b4b8484611a76565b8252506020611b5c84848301611c5b565b60208301525092915050565b600060408284031215611b7a57600080fd5b611b8460406122b6565b90506000611b928484611a82565b8252506020611b5c84848301611c43565b600060408284031215611bb557600080fd5b611bbf60406122b6565b90506000611bcd8484611a8e565b8252506020611b5c84848301611c4f565b600060408284031215611bf057600080fd5b611bfa60406122b6565b90506000611b4b8484611a82565b600060408284031215611c1a57600080fd5b611c2460406122b6565b90506000611c328484611a8e565b8252506020611b5c84848301611c67565b60006111b182356123bf565b60006111b182516123bf565b60006111b1823561238a565b60006111b1825161238a565b60006111b182356123b6565b600060208284031215611c9157600080fd5b6000611c9d8484611a76565b949350505050565b600080600060808486031215611cba57600080fd5b6000611cc68686611a76565b9350506020611cd786828701611b21565b925050606084013567ffffffffffffffff811115611cf457600080fd5b611d0086828701611a9a565b9150509250925092565b600060208284031215611d1c57600080fd5b6000611c9d8484611aee565b60008060608385031215611d3b57600080fd5b6000611d478585611b21565b9250506040611d5885828601611c5b565b9150509250929050565b600060408284031215611d7457600080fd5b6000611c9d8484611ba3565b600060408284031215611d9257600080fd5b6000611c9d8484611c08565b600060208284031215611db057600080fd5b6000611c9d8484611c5b565b6000806000806000806000806101a0898b031215611dd957600080fd5b6000611de58b8b611c5b565b9850506020611df68b828c01611c5b565b9750506040611e078b828c01611b21565b9650506080611e188b828c01611b21565b95505060c0611e298b828c01611b68565b945050610100611e3b8b828c01611b68565b935050610140611e4d8b828c01611bde565b92505061018089013567ffffffffffffffff811115611e6b57600080fd5b611e778b828c01611a9a565b9150509295985092959890939650565b600080600060608486031215611e9c57600080fd5b6000611ea88686611c5b565b9350506020611eb986828701611c5b565b9250506040611d0086828701611c73565b611ed381612330565b82525050565b611ed38161233b565b611ed3611eee82612340565b61238a565b611ed3611eee82612365565b611ed3611eee8261238a565b6000611f1682612323565b611f208185610a8c565b9350611f308185602086016123f6565b9290920192915050565b611ed3816123d4565b611ed3816123df565b6000611f5782612323565b611f618185612327565b9350611f718185602086016123f6565b611f7a81612422565b9093019392505050565b80516080830190611f958482611ed9565b506020820151611fa86020850182611f43565b506040820151611fbb6040850182611f43565b50606082015161063d6060850182611fff565b80516040830190611fdf8482611eca565b50602082015161063d6020850182611fff565b8051602083019061063d84825b611ed38161238a565b611ed3816123b6565b600061201d8284611eff565b50602001919050565b60006120328286611f0b565b915061203e8285611ef3565b60028201915061204e8284611f0b565b95945050505050565b60006120638289611f0b565b915061206f8288611ef3565b60028201915061207f8287611f0b565b915061208b8286611ef3565b60028201915061209b8285611f0b565b91506120a78284611ee2565b506001019695505050505050565b60006120c1828b611f0b565b91506120cd828a611ef3565b6002820191506120dd8289611f0b565b91506120e98288611ef3565b6002820191506120f98287611f0b565b91506121058286611ef3565b6002820191506121158285611f0b565b91506121218284611ee2565b5060010198975050505050505050565b600061213d828d611f0b565b9150612149828c611ef3565b600282019150612159828b611f0b565b9150612165828a611ef3565b6002820191506121758289611f0b565b91506121818288611ef3565b6002820191506121918287611f0b565b915061219d8286611ef3565b6002820191506121ad8285611f0b565b91506121b98284611ee2565b506001019a9950505050505050505050565b6020810161024c8284611eca565b608081016121e78287611eca565b6121f46020830186611fff565b6122016040830185611fff565b61204e6060830184612008565b6020810161024c8284611ed9565b6020810161024c8284611f3a565b602080825281016111b18184611f4c565b6080810161024c8284611f84565b606081016122578285611fce565b6111b16040830184611fff565b604081016122728285611ff2565b6111b16020830184611ff2565b6020810161024c8284611fff565b6040810161229b8285611fff565b6111b16020830184611fff565b6020810161024c8284612008565b60405181810167ffffffffffffffff811182821017156122d557600080fd5b604052919050565b600067ffffffffffffffff8211156122f457600080fd5b506020601f919091017fffffffffffffffffffffffffffffffffffffffffffffffffffffffffffffffe0160190565b5190565b90815260200190565b600061024c8261239d565b151590565b7fff000000000000000000000000000000000000000000000000000000000000001690565b7fffff0000000000000000000000000000000000000000000000000000000000001690565b90565b60006002821061239957fe5b5090565b73ffffffffffffffffffffffffffffffffffffffff1690565b63ffffffff1690565b6fffffffffffffffffffffffffffffffff1690565b600061024c82612330565b600061024c8261238d565b82818337506000910152565b60005b838110156124115781810151838201526020016123f9565b8381111561063d5750506000910152565b601f017fffffffffffffffffffffffffffffffffffffffffffffffffffffffffffffffe0169056fea265627a7a72305820f3bc71ac9a2a2f4fb207263d5df3d0d12d79875d2c0ce88875248e96e50641fc6c6578706572696d656e74616cf50037",
  "source": "/*\n\n    Copyright 2019 dYdX Trading Inc.\n\n    Licensed under the Apache License, Version 2.0 (the \"License\");\n    you may not use this file except in compliance with the License.\n    You may obtain a copy of the License at\n\n    http://www.apache.org/licenses/LICENSE-2.0\n\n    Unless required by applicable law or agreed to in writing, software\n    distributed under the License is distributed on an \"AS IS\" BASIS,\n    WITHOUT WARRANTIES OR CONDITIONS OF ANY KIND, either express or implied.\n    See the License for the specific language governing permissions and\n    limitations under the License.\n\n*/\n\npragma solidity 0.5.7;\npragma experimental ABIEncoderV2;\n\nimport { SafeMath } from \"openzeppelin-solidity/contracts/math/SafeMath.sol\";\nimport { Ownable } from \"openzeppelin-solidity/contracts/ownership/Ownable.sol\";\nimport { IAutoTrader } from \"../../protocol/interfaces/IAutoTrader.sol\";\nimport { ICallee } from \"../../protocol/interfaces/ICallee.sol\";\nimport { Account } from \"../../protocol/lib/Account.sol\";\nimport { Decimal } from \"../../protocol/lib/Decimal.sol\";\nimport { Math } from \"../../protocol/lib/Math.sol\";\nimport { Monetary } from \"../../protocol/lib/Monetary.sol\";\nimport { Require } from \"../../protocol/lib/Require.sol\";\nimport { Time } from \"../../protocol/lib/Time.sol\";\nimport { Types } from \"../../protocol/lib/Types.sol\";\nimport { OnlySolo } from \"../helpers/OnlySolo.sol\";\n\n\n/**\n * @title Expiry\n * @author dYdX\n *\n * Sets the negative balance for an account to expire at a certain time. This allows any other\n * account to repay that negative balance after expiry using any positive balance in the same\n * account. The arbitrage incentive is the same as liquidation in the base protocol.\n */\ncontract Expiry is\n    Ownable,\n    OnlySolo,\n    ICallee,\n    IAutoTrader\n{\n    using SafeMath for uint32;\n    using SafeMath for uint256;\n    using Types for Types.Par;\n    using Types for Types.Wei;\n\n    // ============ Constants ============\n\n    bytes32 constant FILE = \"Expiry\";\n\n    // ============ Events ============\n\n    event ExpirySet(\n        address owner,\n        uint256 number,\n        uint256 marketId,\n        uint32 time\n    );\n\n    event LogExpiryRampTimeSet(\n        uint256 expiryRampTime\n    );\n\n    // ============ Storage ============\n\n    // owner => number => market => time\n    mapping (address => mapping (uint256 => mapping (uint256 => uint32))) g_expiries;\n\n    // time over which the liquidation ratio goes from zero to maximum\n    uint256 public g_expiryRampTime;\n\n    // ============ Constructor ============\n\n    constructor (\n        address soloMargin,\n        uint256 expiryRampTime\n    )\n        public\n        OnlySolo(soloMargin)\n    {\n        g_expiryRampTime = expiryRampTime;\n    }\n\n    // ============ Admin Functions ============\n\n    function ownerSetExpiryRampTime(\n        uint256 newExpiryRampTime\n    )\n        external\n        onlyOwner\n    {\n        emit LogExpiryRampTimeSet(newExpiryRampTime);\n        g_expiryRampTime = newExpiryRampTime;\n    }\n\n    // ============ Only-Solo Functions ============\n\n    function callFunction(\n        address /* sender */,\n        Account.Info memory account,\n        bytes memory data\n    )\n        public\n        onlySolo(msg.sender)\n    {\n        (\n            uint256 marketId,\n            uint32 expiryTime\n        ) = parseCallArgs(data);\n\n        // don't set expiry time for accounts with positive balance\n        if (expiryTime != 0 && !SOLO_MARGIN.getAccountPar(account, marketId).isNegative()) {\n            return;\n        }\n\n        setExpiry(account, marketId, expiryTime);\n    }\n\n    function getTradeCost(\n        uint256 inputMarketId,\n        uint256 outputMarketId,\n        Account.Info memory makerAccount,\n        Account.Info memory /* takerAccount */,\n        Types.Par memory oldInputPar,\n        Types.Par memory newInputPar,\n        Types.Wei memory inputWei,\n        bytes memory data\n    )\n        public\n        onlySolo(msg.sender)\n        returns (Types.AssetAmount memory)\n    {\n        // return zero if input amount is zero\n        if (inputWei.isZero()) {\n            return Types.AssetAmount({\n                sign: true,\n                denomination: Types.AssetDenomination.Par,\n                ref: Types.AssetReference.Delta,\n                value: 0\n            });\n        }\n\n        (\n            uint256 owedMarketId,\n            uint32 maxExpiry\n        ) = parseTradeArgs(data);\n\n        uint32 expiry = getExpiry(makerAccount, owedMarketId);\n\n        // validate expiry\n        Require.that(\n            expiry != 0,\n            FILE,\n            \"Expiry not set\",\n            makerAccount.owner,\n            makerAccount.number,\n            owedMarketId\n        );\n        Require.that(\n            expiry <= Time.currentTime(),\n            FILE,\n            \"Borrow not yet expired\",\n            expiry\n        );\n        Require.that(\n            expiry <= maxExpiry,\n            FILE,\n            \"Expiry past maxExpiry\",\n            expiry\n        );\n\n        return getTradeCostInternal(\n            inputMarketId,\n            outputMarketId,\n            makerAccount,\n            oldInputPar,\n            newInputPar,\n            inputWei,\n            owedMarketId,\n            expiry\n        );\n    }\n\n    // ============ Getters ============\n\n    function getExpiry(\n        Account.Info memory account,\n        uint256 marketId\n    )\n        public\n        view\n        returns (uint32)\n    {\n        return g_expiries[account.owner][account.number][marketId];\n    }\n\n    function getSpreadAdjustedPrices(\n        uint256 heldMarketId,\n        uint256 owedMarketId,\n        uint32 expiry\n    )\n        public\n        view\n        returns (\n            Monetary.Price memory,\n            Monetary.Price memory\n        )\n    {\n        Decimal.D256 memory spread = SOLO_MARGIN.getLiquidationSpreadForPair(\n            heldMarketId,\n            owedMarketId\n        );\n\n        uint256 expiryAge = Time.currentTime().sub(expiry);\n\n        if (expiryAge < g_expiryRampTime) {\n            spread.value = Math.getPartial(spread.value, expiryAge, g_expiryRampTime);\n        }\n\n        Monetary.Price memory heldPrice = SOLO_MARGIN.getMarketPrice(heldMarketId);\n        Monetary.Price memory owedPrice = SOLO_MARGIN.getMarketPrice(owedMarketId);\n        owedPrice.value = owedPrice.value.add(Decimal.mul(owedPrice.value, spread));\n\n        return (heldPrice, owedPrice);\n    }\n\n    // ============ Private Functions ============\n\n    function getTradeCostInternal(\n        uint256 inputMarketId,\n        uint256 outputMarketId,\n        Account.Info memory makerAccount,\n        Types.Par memory oldInputPar,\n        Types.Par memory newInputPar,\n        Types.Wei memory inputWei,\n        uint256 owedMarketId,\n        uint32 expiry\n    )\n        private\n        returns (Types.AssetAmount memory)\n    {\n        Types.AssetAmount memory output;\n        Types.Wei memory maxOutputWei = SOLO_MARGIN.getAccountWei(makerAccount, outputMarketId);\n\n        if (inputWei.isPositive()) {\n            Require.that(\n                inputMarketId == owedMarketId,\n                FILE,\n                \"inputMarket mismatch\",\n                inputMarketId\n            );\n            Require.that(\n                !newInputPar.isPositive(),\n                FILE,\n                \"Borrows cannot be overpaid\",\n                newInputPar.value\n            );\n            assert(oldInputPar.isNegative());\n            Require.that(\n                maxOutputWei.isPositive(),\n                FILE,\n                \"Collateral must be positive\",\n                outputMarketId,\n                maxOutputWei.value\n            );\n            output = owedWeiToHeldWei(\n                inputWei,\n                outputMarketId,\n                inputMarketId,\n                expiry\n            );\n\n            // clear expiry if borrow is fully repaid\n            if (newInputPar.isZero()) {\n                setExpiry(makerAccount, owedMarketId, 0);\n            }\n        } else {\n            Require.that(\n                outputMarketId == owedMarketId,\n                FILE,\n                \"outputMarket mismatch\",\n                outputMarketId\n            );\n            Require.that(\n                !newInputPar.isNegative(),\n                FILE,\n                \"Collateral cannot be overused\",\n                newInputPar.value\n            );\n            assert(oldInputPar.isPositive());\n            Require.that(\n                maxOutputWei.isNegative(),\n                FILE,\n                \"Borrows must be negative\",\n                outputMarketId,\n                maxOutputWei.value\n            );\n            output = heldWeiToOwedWei(\n                inputWei,\n                inputMarketId,\n                outputMarketId,\n                expiry\n            );\n\n            // clear expiry if borrow is fully repaid\n            if (output.value == maxOutputWei.value) {\n                setExpiry(makerAccount, owedMarketId, 0);\n            }\n        }\n\n        Require.that(\n            output.value <= maxOutputWei.value,\n            FILE,\n            \"outputMarket too small\",\n            output.value,\n            maxOutputWei.value\n        );\n        assert(output.sign != maxOutputWei.sign);\n\n        return output;\n    }\n\n    function setExpiry(\n        Account.Info memory account,\n        uint256 marketId,\n        uint32 time\n    )\n        private\n    {\n        g_expiries[account.owner][account.number][marketId] = time;\n\n        emit ExpirySet(\n            account.owner,\n            account.number,\n            marketId,\n            time\n        );\n    }\n\n    function heldWeiToOwedWei(\n        Types.Wei memory heldWei,\n        uint256 heldMarketId,\n        uint256 owedMarketId,\n        uint32 expiry\n    )\n        private\n        view\n        returns (Types.AssetAmount memory)\n    {\n        (\n            Monetary.Price memory heldPrice,\n            Monetary.Price memory owedPrice\n        ) = getSpreadAdjustedPrices(\n            heldMarketId,\n            owedMarketId,\n            expiry\n        );\n\n        uint256 owedAmount = Math.getPartialRoundUp(\n            heldWei.value,\n            heldPrice.value,\n            owedPrice.value\n        );\n\n        return Types.AssetAmount({\n            sign: true,\n            denomination: Types.AssetDenomination.Wei,\n            ref: Types.AssetReference.Delta,\n            value: owedAmount\n        });\n    }\n\n    function owedWeiToHeldWei(\n        Types.Wei memory owedWei,\n        uint256 heldMarketId,\n        uint256 owedMarketId,\n        uint32 expiry\n    )\n        private\n        view\n        returns (Types.AssetAmount memory)\n    {\n        (\n            Monetary.Price memory heldPrice,\n            Monetary.Price memory owedPrice\n        ) = getSpreadAdjustedPrices(\n            heldMarketId,\n            owedMarketId,\n            expiry\n        );\n\n        uint256 heldAmount = Math.getPartial(\n            owedWei.value,\n            owedPrice.value,\n            heldPrice.value\n        );\n\n        return Types.AssetAmount({\n            sign: false,\n            denomination: Types.AssetDenomination.Wei,\n            ref: Types.AssetReference.Delta,\n            value: heldAmount\n        });\n    }\n\n    function parseCallArgs(\n        bytes memory data\n    )\n        private\n        pure\n        returns (\n            uint256,\n            uint32\n        )\n    {\n        Require.that(\n            data.length == 64,\n            FILE,\n            \"Call data invalid length\",\n            data.length\n        );\n\n        uint256 marketId;\n        uint256 rawExpiry;\n\n        /* solium-disable-next-line security/no-inline-assembly */\n        assembly {\n            marketId := mload(add(data, 32))\n            rawExpiry := mload(add(data, 64))\n        }\n\n        return (\n            marketId,\n            Math.to32(rawExpiry)\n        );\n    }\n\n    function parseTradeArgs(\n        bytes memory data\n    )\n        private\n        pure\n        returns (\n            uint256,\n            uint32\n        )\n    {\n        Require.that(\n            data.length == 64,\n            FILE,\n            \"Trade data invalid length\",\n            data.length\n        );\n\n        uint256 owedMarketId;\n        uint256 rawExpiry;\n\n        /* solium-disable-next-line security/no-inline-assembly */\n        assembly {\n            owedMarketId := mload(add(data, 32))\n            rawExpiry := mload(add(data, 64))\n        }\n\n        return (\n            owedMarketId,\n            Math.to32(rawExpiry)\n        );\n    }\n}\n",
  "sourcePath": "/home/ankit/projects/solo/contracts/external/traders/Expiry.sol",
  "compiler": {
    "name": "solc",
    "version": "0.5.7+commit.6da8b019.Linux.g++"
  },
  "schemaVersion": "3.0.23",
  "updatedAt": "2020-04-24T13:34:22.160Z",
  "devdoc": {
    "author": "dYdX * Sets the negative balance for an account to expire at a certain time. This allows any other account to repay that negative balance after expiry using any positive balance in the same account. The arbitrage incentive is the same as liquidation in the base protocol.",
    "methods": {
      "isOwner()": {
        "return": "true if `msg.sender` is the owner of the contract."
      },
      "owner()": {
        "return": "the address of the owner."
      },
      "renounceOwnership()": {
        "details": "Allows the current owner to relinquish control of the contract."
      },
      "transferOwnership(address)": {
        "details": "Allows the current owner to transfer control of the contract to a newOwner.",
        "params": {
          "newOwner": "The address to transfer ownership to."
        }
      }
    },
    "title": "Expiry"
  },
  "userdoc": {
    "methods": {
      "renounceOwnership()": {
        "notice": "Renouncing to ownership will leave the contract without an owner. It will not be possible to call the functions with the `onlyOwner` modifier anymore."
      }
    }
  }
}