{
  "contractName": "Getters",
  "abi": [
    {
      "constant": true,
      "inputs": [],
      "name": "getMarginRatio",
      "outputs": [
        {
          "components": [
            {
              "name": "value",
              "type": "uint256"
            }
          ],
          "name": "",
          "type": "tuple"
        }
      ],
      "payable": false,
      "stateMutability": "view",
      "type": "function"
    },
    {
      "constant": true,
      "inputs": [],
      "name": "getLiquidationSpread",
      "outputs": [
        {
          "components": [
            {
              "name": "value",
              "type": "uint256"
            }
          ],
          "name": "",
          "type": "tuple"
        }
      ],
      "payable": false,
      "stateMutability": "view",
      "type": "function"
    },
    {
      "constant": true,
      "inputs": [],
      "name": "getEarningsRate",
      "outputs": [
        {
          "components": [
            {
              "name": "value",
              "type": "uint256"
            }
          ],
          "name": "",
          "type": "tuple"
        }
      ],
      "payable": false,
      "stateMutability": "view",
      "type": "function"
    },
    {
      "constant": true,
      "inputs": [],
      "name": "getMinBorrowedValue",
      "outputs": [
        {
          "components": [
            {
              "name": "value",
              "type": "uint256"
            }
          ],
          "name": "",
          "type": "tuple"
        }
      ],
      "payable": false,
      "stateMutability": "view",
      "type": "function"
    },
    {
      "constant": true,
      "inputs": [],
      "name": "getRiskParams",
      "outputs": [
        {
          "components": [
            {
              "components": [
                {
                  "name": "value",
                  "type": "uint256"
                }
              ],
              "name": "marginRatio",
              "type": "tuple"
            },
            {
              "components": [
                {
                  "name": "value",
                  "type": "uint256"
                }
              ],
              "name": "liquidationSpread",
              "type": "tuple"
            },
            {
              "components": [
                {
                  "name": "value",
                  "type": "uint256"
                }
              ],
              "name": "earningsRate",
              "type": "tuple"
            },
            {
              "components": [
                {
                  "name": "value",
                  "type": "uint256"
                }
              ],
              "name": "minBorrowedValue",
              "type": "tuple"
            }
          ],
          "name": "",
          "type": "tuple"
        }
      ],
      "payable": false,
      "stateMutability": "view",
      "type": "function"
    },
    {
      "constant": true,
      "inputs": [],
      "name": "getRiskLimits",
      "outputs": [
        {
          "components": [
            {
              "name": "marginRatioMax",
              "type": "uint64"
            },
            {
              "name": "liquidationSpreadMax",
              "type": "uint64"
            },
            {
              "name": "earningsRateMax",
              "type": "uint64"
            },
            {
              "name": "marginPremiumMax",
              "type": "uint64"
            },
            {
              "name": "spreadPremiumMax",
              "type": "uint64"
            },
            {
              "name": "minBorrowedValueMax",
              "type": "uint128"
            }
          ],
          "name": "",
          "type": "tuple"
        }
      ],
      "payable": false,
      "stateMutability": "view",
      "type": "function"
    },
    {
      "constant": true,
      "inputs": [],
      "name": "getNumMarkets",
      "outputs": [
        {
          "name": "",
          "type": "uint256"
        }
      ],
      "payable": false,
      "stateMutability": "view",
      "type": "function"
    },
    {
      "constant": true,
      "inputs": [
        {
          "name": "marketId",
          "type": "uint256"
        }
      ],
      "name": "getMarketTokenAddress",
      "outputs": [
        {
          "name": "",
          "type": "address"
        }
      ],
      "payable": false,
      "stateMutability": "view",
      "type": "function"
    },
    {
      "constant": true,
      "inputs": [
        {
          "name": "marketId",
          "type": "uint256"
        }
      ],
      "name": "getMarketTotalPar",
      "outputs": [
        {
          "components": [
            {
              "name": "borrow",
              "type": "uint128"
            },
            {
              "name": "supply",
              "type": "uint128"
            }
          ],
          "name": "",
          "type": "tuple"
        }
      ],
      "payable": false,
      "stateMutability": "view",
      "type": "function"
    },
    {
      "constant": true,
      "inputs": [
        {
          "name": "marketId",
          "type": "uint256"
        }
      ],
      "name": "getMarketCachedIndex",
      "outputs": [
        {
          "components": [
            {
              "name": "borrow",
              "type": "uint96"
            },
            {
              "name": "supply",
              "type": "uint96"
            },
            {
              "name": "lastUpdate",
              "type": "uint32"
            }
          ],
          "name": "",
          "type": "tuple"
        }
      ],
      "payable": false,
      "stateMutability": "view",
      "type": "function"
    },
    {
      "constant": true,
      "inputs": [
        {
          "name": "marketId",
          "type": "uint256"
        }
      ],
      "name": "getMarketCurrentIndex",
      "outputs": [
        {
          "components": [
            {
              "name": "borrow",
              "type": "uint96"
            },
            {
              "name": "supply",
              "type": "uint96"
            },
            {
              "name": "lastUpdate",
              "type": "uint32"
            }
          ],
          "name": "",
          "type": "tuple"
        }
      ],
      "payable": false,
      "stateMutability": "view",
      "type": "function"
    },
    {
      "constant": true,
      "inputs": [
        {
          "name": "marketId",
          "type": "uint256"
        }
      ],
      "name": "getMarketPriceOracle",
      "outputs": [
        {
          "name": "",
          "type": "address"
        }
      ],
      "payable": false,
      "stateMutability": "view",
      "type": "function"
    },
    {
      "constant": true,
      "inputs": [
        {
          "name": "marketId",
          "type": "uint256"
        }
      ],
      "name": "getMarketInterestSetter",
      "outputs": [
        {
          "name": "",
          "type": "address"
        }
      ],
      "payable": false,
      "stateMutability": "view",
      "type": "function"
    },
    {
      "constant": true,
      "inputs": [
        {
          "name": "marketId",
          "type": "uint256"
        }
      ],
      "name": "getMarketMarginPremium",
      "outputs": [
        {
          "components": [
            {
              "name": "value",
              "type": "uint256"
            }
          ],
          "name": "",
          "type": "tuple"
        }
      ],
      "payable": false,
      "stateMutability": "view",
      "type": "function"
    },
    {
      "constant": true,
      "inputs": [
        {
          "name": "marketId",
          "type": "uint256"
        }
      ],
      "name": "getMarketSpreadPremium",
      "outputs": [
        {
          "components": [
            {
              "name": "value",
              "type": "uint256"
            }
          ],
          "name": "",
          "type": "tuple"
        }
      ],
      "payable": false,
      "stateMutability": "view",
      "type": "function"
    },
    {
      "constant": true,
      "inputs": [
        {
          "name": "marketId",
          "type": "uint256"
        }
      ],
      "name": "getMarketIsClosing",
      "outputs": [
        {
          "name": "",
          "type": "bool"
        }
      ],
      "payable": false,
      "stateMutability": "view",
      "type": "function"
    },
    {
      "constant": true,
      "inputs": [
        {
          "name": "marketId",
          "type": "uint256"
        }
      ],
      "name": "getMarketPrice",
      "outputs": [
        {
          "components": [
            {
              "name": "value",
              "type": "uint256"
            }
          ],
          "name": "",
          "type": "tuple"
        }
      ],
      "payable": false,
      "stateMutability": "view",
      "type": "function"
    },
    {
      "constant": true,
      "inputs": [
        {
          "name": "marketId",
          "type": "uint256"
        }
      ],
      "name": "getMarketInterestRate",
      "outputs": [
        {
          "components": [
            {
              "name": "value",
              "type": "uint256"
            }
          ],
          "name": "",
          "type": "tuple"
        }
      ],
      "payable": false,
      "stateMutability": "view",
      "type": "function"
    },
    {
      "constant": true,
      "inputs": [
        {
          "name": "heldMarketId",
          "type": "uint256"
        },
        {
          "name": "owedMarketId",
          "type": "uint256"
        }
      ],
      "name": "getLiquidationSpreadForPair",
      "outputs": [
        {
          "components": [
            {
              "name": "value",
              "type": "uint256"
            }
          ],
          "name": "",
          "type": "tuple"
        }
      ],
      "payable": false,
      "stateMutability": "view",
      "type": "function"
    },
    {
      "constant": true,
      "inputs": [
        {
          "name": "marketId",
          "type": "uint256"
        }
      ],
      "name": "getMarket",
      "outputs": [
        {
          "components": [
            {
              "name": "token",
              "type": "address"
            },
            {
              "components": [
                {
                  "name": "borrow",
                  "type": "uint128"
                },
                {
                  "name": "supply",
                  "type": "uint128"
                }
              ],
              "name": "totalPar",
              "type": "tuple"
            },
            {
              "components": [
                {
                  "name": "borrow",
                  "type": "uint96"
                },
                {
                  "name": "supply",
                  "type": "uint96"
                },
                {
                  "name": "lastUpdate",
                  "type": "uint32"
                }
              ],
              "name": "index",
              "type": "tuple"
            },
            {
              "name": "priceOracle",
              "type": "address"
            },
            {
              "name": "interestSetter",
              "type": "address"
            },
            {
              "components": [
                {
                  "name": "value",
                  "type": "uint256"
                }
              ],
              "name": "marginPremium",
              "type": "tuple"
            },
            {
              "components": [
                {
                  "name": "value",
                  "type": "uint256"
                }
              ],
              "name": "spreadPremium",
              "type": "tuple"
            },
            {
              "name": "isClosing",
              "type": "bool"
            }
          ],
          "name": "",
          "type": "tuple"
        }
      ],
      "payable": false,
      "stateMutability": "view",
      "type": "function"
    },
    {
      "constant": true,
      "inputs": [
        {
          "name": "marketId",
          "type": "uint256"
        }
      ],
      "name": "getMarketWithInfo",
      "outputs": [
        {
          "components": [
            {
              "name": "token",
              "type": "address"
            },
            {
              "components": [
                {
                  "name": "borrow",
                  "type": "uint128"
                },
                {
                  "name": "supply",
                  "type": "uint128"
                }
              ],
              "name": "totalPar",
              "type": "tuple"
            },
            {
              "components": [
                {
                  "name": "borrow",
                  "type": "uint96"
                },
                {
                  "name": "supply",
                  "type": "uint96"
                },
                {
                  "name": "lastUpdate",
                  "type": "uint32"
                }
              ],
              "name": "index",
              "type": "tuple"
            },
            {
              "name": "priceOracle",
              "type": "address"
            },
            {
              "name": "interestSetter",
              "type": "address"
            },
            {
              "components": [
                {
                  "name": "value",
                  "type": "uint256"
                }
              ],
              "name": "marginPremium",
              "type": "tuple"
            },
            {
              "components": [
                {
                  "name": "value",
                  "type": "uint256"
                }
              ],
              "name": "spreadPremium",
              "type": "tuple"
            },
            {
              "name": "isClosing",
              "type": "bool"
            }
          ],
          "name": "",
          "type": "tuple"
        },
        {
          "components": [
            {
              "name": "borrow",
              "type": "uint96"
            },
            {
              "name": "supply",
              "type": "uint96"
            },
            {
              "name": "lastUpdate",
              "type": "uint32"
            }
          ],
          "name": "",
          "type": "tuple"
        },
        {
          "components": [
            {
              "name": "value",
              "type": "uint256"
            }
          ],
          "name": "",
          "type": "tuple"
        },
        {
          "components": [
            {
              "name": "value",
              "type": "uint256"
            }
          ],
          "name": "",
          "type": "tuple"
        }
      ],
      "payable": false,
      "stateMutability": "view",
      "type": "function"
    },
    {
      "constant": true,
      "inputs": [
        {
          "name": "marketId",
          "type": "uint256"
        }
      ],
      "name": "getNumExcessTokens",
      "outputs": [
        {
          "components": [
            {
              "name": "sign",
              "type": "bool"
            },
            {
              "name": "value",
              "type": "uint256"
            }
          ],
          "name": "",
          "type": "tuple"
        }
      ],
      "payable": false,
      "stateMutability": "view",
      "type": "function"
    },
    {
      "constant": true,
      "inputs": [
        {
          "components": [
            {
              "name": "owner",
              "type": "address"
            },
            {
              "name": "number",
              "type": "uint256"
            }
          ],
          "name": "account",
          "type": "tuple"
        },
        {
          "name": "marketId",
          "type": "uint256"
        }
      ],
      "name": "getAccountPar",
      "outputs": [
        {
          "components": [
            {
              "name": "sign",
              "type": "bool"
            },
            {
              "name": "value",
              "type": "uint128"
            }
          ],
          "name": "",
          "type": "tuple"
        }
      ],
      "payable": false,
      "stateMutability": "view",
      "type": "function"
    },
    {
      "constant": true,
      "inputs": [
        {
          "components": [
            {
              "name": "owner",
              "type": "address"
            },
            {
              "name": "number",
              "type": "uint256"
            }
          ],
          "name": "account",
          "type": "tuple"
        },
        {
          "name": "marketId",
          "type": "uint256"
        }
      ],
      "name": "getAccountWei",
      "outputs": [
        {
          "components": [
            {
              "name": "sign",
              "type": "bool"
            },
            {
              "name": "value",
              "type": "uint256"
            }
          ],
          "name": "",
          "type": "tuple"
        }
      ],
      "payable": false,
      "stateMutability": "view",
      "type": "function"
    },
    {
      "constant": true,
      "inputs": [
        {
          "components": [
            {
              "name": "owner",
              "type": "address"
            },
            {
              "name": "number",
              "type": "uint256"
            }
          ],
          "name": "account",
          "type": "tuple"
        }
      ],
      "name": "getAccountStatus",
      "outputs": [
        {
          "name": "",
          "type": "uint8"
        }
      ],
      "payable": false,
      "stateMutability": "view",
      "type": "function"
    },
    {
      "constant": true,
      "inputs": [
        {
          "components": [
            {
              "name": "owner",
              "type": "address"
            },
            {
              "name": "number",
              "type": "uint256"
            }
          ],
          "name": "account",
          "type": "tuple"
        }
      ],
      "name": "getAccountValues",
      "outputs": [
        {
          "components": [
            {
              "name": "value",
              "type": "uint256"
            }
          ],
          "name": "",
          "type": "tuple"
        },
        {
          "components": [
            {
              "name": "value",
              "type": "uint256"
            }
          ],
          "name": "",
          "type": "tuple"
        }
      ],
      "payable": false,
      "stateMutability": "view",
      "type": "function"
    },
    {
      "constant": true,
      "inputs": [
        {
          "components": [
            {
              "name": "owner",
              "type": "address"
            },
            {
              "name": "number",
              "type": "uint256"
            }
          ],
          "name": "account",
          "type": "tuple"
        }
      ],
      "name": "getAdjustedAccountValues",
      "outputs": [
        {
          "components": [
            {
              "name": "value",
              "type": "uint256"
            }
          ],
          "name": "",
          "type": "tuple"
        },
        {
          "components": [
            {
              "name": "value",
              "type": "uint256"
            }
          ],
          "name": "",
          "type": "tuple"
        }
      ],
      "payable": false,
      "stateMutability": "view",
      "type": "function"
    },
    {
      "constant": true,
      "inputs": [
        {
          "components": [
            {
              "name": "owner",
              "type": "address"
            },
            {
              "name": "number",
              "type": "uint256"
            }
          ],
          "name": "account",
          "type": "tuple"
        }
      ],
      "name": "getAccountBalances",
      "outputs": [
        {
          "name": "",
          "type": "address[]"
        },
        {
          "components": [
            {
              "name": "sign",
              "type": "bool"
            },
            {
              "name": "value",
              "type": "uint128"
            }
          ],
          "name": "",
          "type": "tuple[]"
        },
        {
          "components": [
            {
              "name": "sign",
              "type": "bool"
            },
            {
              "name": "value",
              "type": "uint256"
            }
          ],
          "name": "",
          "type": "tuple[]"
        }
      ],
      "payable": false,
      "stateMutability": "view",
      "type": "function"
    },
    {
      "constant": true,
      "inputs": [
        {
          "name": "owner",
          "type": "address"
        },
        {
          "name": "operator",
          "type": "address"
        }
      ],
      "name": "getIsLocalOperator",
      "outputs": [
        {
          "name": "",
          "type": "bool"
        }
      ],
      "payable": false,
      "stateMutability": "view",
      "type": "function"
    },
    {
      "constant": true,
      "inputs": [
        {
          "name": "operator",
          "type": "address"
        }
      ],
      "name": "getIsGlobalOperator",
      "outputs": [
        {
          "name": "",
          "type": "bool"
        }
      ],
      "payable": false,
      "stateMutability": "view",
      "type": "function"
    }
  ],
  "bytecode": "0x60806040527f4765747465727300000000000000000000000000000000000000000000000000600b5534801561003457600080fd5b50612be7806100446000396000f3fe608060405234801561001057600080fd5b50600436106101f7576000357c0100000000000000000000000000000000000000000000000000000000900480638928378e11610121578063deec053d116100bf578063eb44fdd31161008e578063eb44fdd31461046f578063f94160521461048f578063fd04b606146104a2578063fd47eda6146104b5576101f7565b8063deec053d1461041f578063e51bfcb414610432578063e552022814610452578063eb1c6e6b1461045a576101f7565b8063c190c2ec116100fb578063c190c2ec146103b9578063cb04a34c146103d9578063d24c48bc146103f9578063d5ecf7c51461040c576101f7565b80638928378e1461037b578063b548b8921461038e578063c1460942146103b1576101f7565b80633a031bf0116101995780635ac7d17c116101685780635ac7d17c14610329578063697947951461033c5780636a8194e7146103515780637e9eaf4114610373576101f7565b80633a031bf0146102ce57806347d1b53c146102e15780634f3c15421461030157806356ea84b214610309576101f7565b806313368364116101d55780631336836414610266578063197f0f05146102865780631a7777bb14610299578063295c39a5146102b9576101f7565b8063052f72d7146101fc578063062bd3e914610225578063124f914c14610245575b600080fd5b61020f61020a366004612304565b6104c8565b60405161021c9190612939565b60405180910390f35b6102386102333660046123c8565b6104e2565b60405161021c91906128ca565b61025861025336600461235c565b6104fe565b60405161021c929190612a10565b6102796102743660046123c8565b610522565b60405161021c9190612947565b6102796102943660046123c8565b610559565b6102ac6102a73660046123c8565b610590565b60405161021c9190612974565b6102c16105c7565b60405161021c9190612a39565b61020f6102dc366004612322565b6105cd565b6102f46102ef36600461237a565b6105e9565b60405161021c91906129d8565b6102ac61060c565b61031c6103173660046123c8565b610628565b60405161021c9190612982565b61020f6103373660046123c8565b61065d565b610344610681565b60405161021c91906129f4565b61036461035f36600461235c565b6106dd565b60405161021c93929190612900565b6102ac61084b565b6102ac6103893660046123c8565b610867565b6103a161039c3660046123c8565b610889565b60405161021c949392919061299f565b6102ac6108e5565b6103cc6103c736600461237a565b610901565b60405161021c9190612a2b565b6103ec6103e73660046123c8565b610941565b60405161021c9190612a02565b6102ac610407366004612404565b610963565b6103cc61041a3660046123c8565b61098f565b61031c61042d3660046123c8565b6109b1565b61044561044036600461235c565b6109d3565b60405161021c9190612955565b6102ac6109e5565b610462610a01565b60405161021c91906129e6565b61048261047d3660046123c8565b610aa3565b60405161021c9190612990565b61025861049d36600461235c565b610be2565b6102ac6104b03660046123c8565b610bfd565b6102ac6104c33660046123c8565b610c34565b60006104da818363ffffffff610c6916565b90505b919050565b60006104ed82610c98565b6104da60008363ffffffff610cce16565b610506612103565b61050e612103565b610519836000610cfa565b91509150915091565b600061052d82610c98565b5060009081526001602052604090206003015473ffffffffffffffffffffffffffffffffffffffff1690565b600061056482610c98565b5060009081526001602052604090206004015473ffffffffffffffffffffffffffffffffffffffff1690565b610598612103565b6105a182610c98565b506000908152600160209081526040918290208251918201909252600690910154815290565b60005490565b60006105e081848463ffffffff610d8616565b90505b92915050565b6105f1612116565b6105fa82610c98565b6105e06000848463ffffffff610dc616565b610614612103565b506040805160208101909152600554815290565b61063061212d565b61063982610c98565b6104da8261064e60008263ffffffff610e4216565b6000919063ffffffff610ec616565b600061066882610c98565b5060009081526001602052604090206007015460ff1690565b61068961214d565b506040805160a0810182526005546080820190815281528151602081810184526006548252808301919091528251808201845260075481528284015282519081019092526008548252606081019190915290565b6060806060600080600001549050606081604051908082528060200260200182016040528015610717578160200160208202803883390190505b50905060608260405190808252806020026020018201604052801561075657816020015b610743612116565b81526020019060019003908161073b5790505b50905060608360405190808252806020026020018201604052801561079557816020015b610782612116565b81526020019060019003908161077a5790505b50905060005b8481101561083c576107ac816104e2565b8482815181106107b857fe5b602002602001019073ffffffffffffffffffffffffffffffffffffffff16908173ffffffffffffffffffffffffffffffffffffffff16815250506107fc89826105e9565b83828151811061080857fe5b602002602001018190525061081d8982610901565b82828151811061082957fe5b602090810291909101015260010161079b565b50919790965090945092505050565b610853612103565b506040805160208101909152600854815290565b61086f612103565b61087882610c98565b6104da60008363ffffffff610f1e16565b61089161218c565b61089961212d565b6108a1612103565b6108a9612103565b6108b285610c98565b6108bb85610aa3565b6108c486610628565b6108cd87610867565b6108d688610c34565b93509350935093509193509193565b6108ed612103565b506040805160208101909152600654815290565b610909612116565b61091282610c98565b6105e06109276000858563ffffffff610dc616565b61093c8461064e60008263ffffffff610e4216565b611067565b610949612116565b61095282610c98565b6104da60008363ffffffff61111816565b61096b612103565b61097483610c98565b61097d82610c98565b6105e06000848463ffffffff61117816565b610997612116565b6109a082610c98565b6104da60008363ffffffff61120e16565b6109b961212d565b6109c282610c98565b6104da60008363ffffffff610e4216565b60006104da818363ffffffff6112d416565b6109ed612103565b506040805160208101909152600754815290565b610a096121ff565b506040805160c08101825260095467ffffffffffffffff808216835268010000000000000000808304821660208501527001000000000000000000000000000000008304821694840194909452780100000000000000000000000000000000000000000000000090910481166060830152600a549081166080830152919091046fffffffffffffffffffffffffffffffff1660a082015290565b610aab61218c565b610ab482610c98565b50600090815260016020818152604092839020835161010081018552815473ffffffffffffffffffffffffffffffffffffffff908116825285518087018752948301546fffffffffffffffffffffffffffffffff808216875270010000000000000000000000000000000090910416858501528184019490945284516060808201875260028401546bffffffffffffffffffffffff80821684526c01000000000000000000000000820416838701527801000000000000000000000000000000000000000000000000900463ffffffff168288015282870191909152600383015485169082015260048201549093166080840152835180830185526005820154815260a084015283519182019093526006830154815260c082015260079091015460ff16151560e082015290565b610bea612103565b610bf2612103565b610519836001610cfa565b610c05612103565b610c0e82610c98565b506000908152600160209081526040918290208251918201909252600590910154815290565b610c3c612103565b610c4582610c98565b6104da82610c5a60008263ffffffff610e4216565b6000919063ffffffff61131616565b73ffffffffffffffffffffffffffffffffffffffff166000908152600491909101602052604090205460ff1690565b610ccb60008001548210600b547f4d61726b6574204f4f420000000000000000000000000000000000000000000061143d565b50565b6000908152600191909101602052604090205473ffffffffffffffffffffffffffffffffffffffff1690565b610d02612103565b610d0a612103565b600054610d15612234565b610d1e826114f3565b905060005b82811015610d6557610d45610d406000898463ffffffff610dc616565b611549565b610d5d57610d5b8260008363ffffffff61156316565b505b600101610d23565b50610d79600087838863ffffffff61163d16565b9350935050509250929050565b73ffffffffffffffffffffffffffffffffffffffff808316600090815260038501602090815260408083209385168352929052205460ff165b9392505050565b610dce612116565b50815173ffffffffffffffffffffffffffffffffffffffff1660009081526002840160209081526040808320828601518452825280832084845282529182902082518084019093525460ff8116151583526fffffffffffffffffffffffffffffffff61010090910416908201529392505050565b610e4a61212d565b506000908152600191909101602090815260409182902082516060810184526002909101546bffffffffffffffffffffffff80821683526c0100000000000000000000000082041692820192909252780100000000000000000000000000000000000000000000000090910463ffffffff169181019190915290565b610ece61212d565b610ed6612103565b610ee785858563ffffffff61131616565b9050610f158382610efe888863ffffffff61111816565b604080516020810190915260078a01548152611790565b95945050505050565b610f26612103565b600082815260018401602052604090206003015473ffffffffffffffffffffffffffffffffffffffff16610f58612103565b73ffffffffffffffffffffffffffffffffffffffff82166341976e09610f84878763ffffffff610cce16565b6040518263ffffffff167c0100000000000000000000000000000000000000000000000000000000028152600401610fbc91906128ca565b60206040518083038186803b158015610fd457600080fd5b505afa158015610fe8573d6000803e3d6000fd5b505050506040513d601f19601f8201168201806040525061100c91908101906123aa565b805190915061105f9015157f53746f72616765000000000000000000000000000000000000000000000000007f50726963652063616e6e6f74206265207a65726f000000000000000000000000876118fa565b949350505050565b61106f612116565b602083015183516fffffffffffffffffffffffffffffffff90911690156110db576040805180820190915260018152602084810151908201906110d09084906bffffffffffffffffffffffff16670de0b6b3a764000063ffffffff61199816565b8152509150506105e3565b6040805180820190915260008152835160208201906110d09084906bffffffffffffffffffffffff16670de0b6b3a764000063ffffffff6119ba16565b611120612116565b506000818152600180840160209081526040928390208351808501909452909101546fffffffffffffffffffffffffffffffff8082168452700100000000000000000000000000000000909104169082015292915050565b611180612103565b600680850154600085815260018701602090815260409182902082519182019092529201548252906111bc9082906111b790611a07565b611a3e565b90506111f7816111b7876001016000878152602001908152602001600020600601604051806020016040529081600082015481525050611a07565b604080516020810190915290815295945050505050565b611216612116565b61121e61212d565b61122e848463ffffffff610e4216565b9050611238612116565b611248858563ffffffff61111816565b9050600061125c868663ffffffff610cce16565b9050611266612116565b60405180604001604052806001151581526020016112848430611a57565b90529050611290612116565b611298612116565b6112a28587611afc565b90925090506112c7826112bb858463ffffffff611ba416565b9063ffffffff611ba416565b9998505050505050505050565b805173ffffffffffffffffffffffffffffffffffffffff1660009081526002929092016020908152604080842092820151845291905290206001015460ff1690565b61131e612103565b611326612116565b611336858563ffffffff61111816565b9050611340612116565b611348612116565b6113528386611afc565b9150915061135e612103565b600087815260018901602052604090206004015473ffffffffffffffffffffffffffffffffffffffff1663e8177dcf61139d8a8a63ffffffff610cce16565b846020015186602001516040518463ffffffff167c01000000000000000000000000000000000000000000000000000000000281526004016113e1939291906128d8565b60206040518083038186803b1580156113f957600080fd5b505afa15801561140d573d6000803e3d6000fd5b505050506040513d601f19601f8201168201806040525061143191908101906123aa565b98975050505050505050565b826114ee5761144b82611bbe565b7f3a2000000000000000000000000000000000000000000000000000000000000061147583611bbe565b60405160200161148793929190612844565b604080517fffffffffffffffffffffffffffffffffffffffffffffffffffffffffffffffe0818403018152908290527f08c379a00000000000000000000000000000000000000000000000000000000082526114e591600401612963565b60405180910390fd5b505050565b6114fb612234565b60405180602001604052808360405190808252806020026020018201604052801561154057816020015b61152d612247565b8152602001906001900390816115255790505b50905292915050565b602001516fffffffffffffffffffffffffffffffff161590565b6000611575848363ffffffff611cb916565b1561158257506000610dbf565b611592838363ffffffff610f1e16565b84518051849081106115a057fe5b602090810291909101810151604090810192909252600084815260018601909152206007015460ff1615611633576001846000015183815181106115e057fe5b60209081029190910101519015159052611600838363ffffffff61111816565b51845180518490811061160f57fe5b6020908102919091018101516fffffffffffffffffffffffffffffffff9092169101525b5060019392505050565b611645612103565b61164d612103565b611655612103565b61165d612103565b600061166887611ce7565b905060005b8181101561178157611685888263ffffffff611cb916565b61168e57611779565b611696612116565b6116a78b8b8463ffffffff611cec16565b90506116b281611d5b565b156116bd5750611779565b60006116e46116d28b8563ffffffff611d6316565b5160208401519063ffffffff611d8d16565b90506116ee612103565b6116f6611db4565b9050891561172e57600084815260018e0160209081526040918290208251918201909252600590910154815261172b90611a07565b90505b825115611757576117506117428383611dd6565b88519063ffffffff611def16565b8752611775565b6117726117648383611a3e565b87519063ffffffff611def16565b86525b5050505b60010161166d565b50919890975095505050505050565b61179861212d565b6117a0612116565b6117a8612116565b6117b28588611afc565b9150915060006117c0611e01565b905060006117f86117ea8a6040015163ffffffff168463ffffffff16611e1190919063ffffffff16565b89519063ffffffff611d8d16565b9050600061180585611d5b565b1561181257506000611844565b61181c8288611a3e565b9050846020015184602001511015611844576118418185602001518760200151611998565b90505b8181111561184e57fe5b60408051606081019091528a51819061189790611892906bffffffffffffffffffffffff166118868188670de0b6b3a7640000611998565b9063ffffffff611def16565b611e26565b6bffffffffffffffffffffffff908116825260208d8101519201916118ce9161189291166118868187670de0b6b3a7640000611998565b6bffffffffffffffffffffffff1681526020018463ffffffff1681525095505050505050949350505050565b836119925761190883611bbe565b7f3a2000000000000000000000000000000000000000000000000000000000000061193284611bbe565b7f203c00000000000000000000000000000000000000000000000000000000000061195c85611e84565b6040516114879594939291907f3e000000000000000000000000000000000000000000000000000000000000009060200161286c565b50505050565b600061105f826119ae868663ffffffff611d8d16565b9063ffffffff611fb216565b60008315806119c7575082155b156119de576119d7600083611fb2565b9050610dbf565b61105f6001611886846119ae836119fb8a8a63ffffffff611d8d16565b9063ffffffff611e1116565b611a0f612103565b604080516020810190915282518190611a3690670de0b6b3a764000063ffffffff611def16565b905292915050565b60006105e0838360000151670de0b6b3a7640000611998565b6040517f70a0823100000000000000000000000000000000000000000000000000000000815260009073ffffffffffffffffffffffffffffffffffffffff8416906370a0823190611aac9085906004016128ca565b60206040518083038186803b158015611ac457600080fd5b505afa158015611ad8573d6000803e3d6000fd5b505050506040513d601f19601f820116820180604052506105e091908101906123e6565b611b04612116565b611b0c612116565b611b14612116565b5060408051808201909152600181526020858101516fffffffffffffffffffffffffffffffff1690820152611b47612116565b50604080518082019091526000815285516fffffffffffffffffffffffffffffffff166020820152611b77612116565b611b818387611067565b9050611b8b612116565b611b958388611067565b91989197509095505050505050565b611bac612116565b6105e083611bb984611fd4565b611ffb565b60608082604051602001611bd2919061282f565b604080517fffffffffffffffffffffffffffffffffffffffffffffffffffffffffffffffe0818403018152919052905060205b8015611ca25781517fffffffffffffffffffffffffffffffffffffffffffffffffffffffffffffffff90910190829082908110611c3e57fe5b6020910101517f010000000000000000000000000000000000000000000000000000000000000090819004027fff000000000000000000000000000000000000000000000000000000000000001615611c9d57600101815290506104dd565b611c05565b505060408051600081526020810190915292915050565b600082600001518281518110611ccb57fe5b6020026020010151604001516000015160001415905092915050565b515190565b611cf4612116565b611cfc612116565b611d0d85858563ffffffff610dc616565b9050611d1881611549565b15611d2d57611d2561208d565b915050610dbf565b611d3561212d565b611d45868563ffffffff610e4216565b9050611d518282611067565b9695505050505050565b602001511590565b611d6b612103565b8251805183908110611d7957fe5b602002602001015160400151905092915050565b600082611d9c575060006105e3565b82820282848281611da957fe5b04146105e057600080fd5b611dbc612103565b506040805160208101909152670de0b6b3a7640000815290565b60006105e083670de0b6b3a76400008460000151611998565b6000828201838110156105e057600080fd5b6000611e0c426120ad565b905090565b600082821115611e2057600080fd5b50900390565b6000816104da6bffffffffffffffffffffffff821682147f4d617468000000000000000000000000000000000000000000000000000000007f556e73616665206361737420746f2075696e743936000000000000000000000061143d565b606081611ec5575060408051808201909152600181527f300000000000000000000000000000000000000000000000000000000000000060208201526104dd565b8160005b8115611edd57600101600a82049150611ec9565b6060816040519080825280601f01601f191660200182016040528015611f0a576020820181803883390190505b508593509050815b8015611fa9577fffffffffffffffffffffffffffffffffffffffffffffffffffffffffffffffff01600a84066030017f010000000000000000000000000000000000000000000000000000000000000002828281518110611f6f57fe5b60200101907effffffffffffffffffffffffffffffffffffffffffffffffffffffffffffff1916908160001a905350600a84049350611f12565b50949350505050565b6000808211611fc057600080fd5b6000828481611fcb57fe5b04949350505050565b611fdc612116565b5060408051808201909152815115815260208083015190820152919050565b612003612116565b61200b612116565b825184511515901515141561203e57835115158152602080850151908401516120349190611def565b60208201526105e0565b826020015184602001511061206757835115158152602080850151908401516120349190611e11565b825115158152602080840151908501516120819190611e11565b60208201529392505050565b612095612116565b50604080518082019091526000808252602082015290565b6000816104da63ffffffff821682147f4d617468000000000000000000000000000000000000000000000000000000007f556e73616665206361737420746f2075696e743332000000000000000000000061143d565b6040518060200160405280600081525090565b604080518082019091526000808252602082015290565b604080516060810182526000808252602082018190529181019190915290565b6040518060800160405280612160612103565b815260200161216d612103565b815260200161217a612103565b8152602001612187612103565b905290565b604051806101600160405280600073ffffffffffffffffffffffffffffffffffffffff1681526020016121bd612116565b81526020016121ca61212d565b815260006020820181905260408201526060016121e5612103565b81526020016121f2612103565b8152600060209091015290565b6040805160c081018252600080825260208201819052918101829052606081018290526080810182905260a081019190915290565b6040518060200160405280606081525090565b6040805160608101825260008082526020820152908101612187612103565b60006105e08235612a81565b60006040828403121561228457600080fd5b61228e6040612a47565b9050600061229c8484612266565b82525060206122ad848483016122ec565b60208301525092915050565b6000602082840312156122cb57600080fd5b6122d56020612a47565b905060006122e384846122f8565b82525092915050565b60006105e08235612adb565b60006105e08251612adb565b60006020828403121561231657600080fd5b600061105f8484612266565b6000806040838503121561233557600080fd5b60006123418585612266565b925050602061235285828601612266565b9150509250929050565b60006040828403121561236e57600080fd5b600061105f8484612272565b6000806060838503121561238d57600080fd5b60006123998585612272565b9250506040612352858286016122ec565b6000602082840312156123bc57600080fd5b600061105f84846122b9565b6000602082840312156123da57600080fd5b600061105f84846122ec565b6000602082840312156123f857600080fd5b600061105f84846122f8565b6000806040838503121561241757600080fd5b600061242385856122ec565b9250506020612352858286016122ec565b60006124408383612468565b505060200190565b600061245483836126ef565b505060400190565b600061245483836127de565b61247181612a81565b82525050565b600061248282612a74565b61248c8185612a78565b935061249783612a6e565b60005b828110156124c2576124ad868351612434565b95506124b882612a6e565b915060010161249a565b5093949350505050565b60006124d782612a74565b6124e18185612a78565b93506124ec83612a6e565b60005b828110156124c257612502868351612448565b955061250d82612a6e565b91506001016124ef565b600061252282612a74565b61252c8185612a78565b935061253783612a6e565b60005b828110156124c25761254d86835161245c565b955061255882612a6e565b915060010161253a565b61247181612a8c565b61247161257782612a91565b612adb565b61247161257782612ab6565b61247161257782612adb565b600061259f82612a74565b6125a981856104dd565b93506125b9818560208601612b59565b9290920192915050565b61247181612b43565b61247181612b4e565b60006125e082612a74565b6125ea8185612a78565b93506125fa818560208601612b59565b61260381612b85565b9093019392505050565b80516020830190611992848261280b565b8051606083019061262f8482612826565b5060208201516126426020850182612826565b5060408201516119926040850182612814565b80516101608301906126678482612468565b50602082015161267a60208501826127cd565b50604082015161268d606085018261261e565b5060608201516126a060c08501826125c3565b5060808201516126b360e08501826125c3565b5060a08201516126c761010085018261260d565b5060c08201516126db61012085018261260d565b5060e0820151611992610140850182612562565b805160408301906127008482612562565b5060208201516119926020850182612802565b805160c0830190612724848261281d565b506020820151612737602085018261281d565b50604082015161274a604085018261281d565b50606082015161275d606085018261281d565b506080820151612770608085018261281d565b5060a082015161199260a0850182612802565b80516080830190612794848261260d565b5060208201516127a7602085018261260d565b5060408201516127ba604085018261260d565b506060820151611992606085018261260d565b805160408301906127008482612802565b805160408301906127ef8482612562565b506020820151611992602085018261280b565b61247181612aee565b61247181612adb565b61247181612b1c565b61247181612b25565b61247181612b32565b600061283b8284612588565b50602001919050565b60006128508286612594565b915061285c828561257c565b600282019150610f158284612594565b60006128788289612594565b9150612884828861257c565b6002820191506128948287612594565b91506128a0828661257c565b6002820191506128b08285612594565b91506128bc828461256b565b506001019695505050505050565b602081016105e38284612468565b606081016128e68286612468565b6128f3602083018561280b565b61105f604083018461280b565b606080825281016129118186612477565b9050818103602083015261292581856124cc565b90508181036040830152610f158184612517565b602081016105e38284612562565b602081016105e382846125c3565b602081016105e382846125cc565b602080825281016105e081846125d5565b602081016105e3828461260d565b606081016105e3828461261e565b61016081016105e38284612655565b61020081016129ae8287612655565b6129bc61016083018661261e565b6129ca6101c083018561260d565b610f156101e083018461260d565b604081016105e382846126ef565b60c081016105e38284612713565b608081016105e38284612783565b604081016105e382846127cd565b60408101612a1e828561260d565b610dbf602083018461260d565b604081016105e382846127de565b602081016105e3828461280b565b60405181810167ffffffffffffffff81118282101715612a6657600080fd5b604052919050565b60200190565b5190565b90815260200190565b60006104da82612b03565b151590565b7fff000000000000000000000000000000000000000000000000000000000000001690565b7fffff0000000000000000000000000000000000000000000000000000000000001690565b90565b600060038210612aea57fe5b5090565b6fffffffffffffffffffffffffffffffff1690565b73ffffffffffffffffffffffffffffffffffffffff1690565b63ffffffff1690565b67ffffffffffffffff1690565b6bffffffffffffffffffffffff1690565b60006104da82612a81565b60006104da82612ade565b60005b83811015612b74578181015183820152602001612b5c565b838111156119925750506000910152565b601f017fffffffffffffffffffffffffffffffffffffffffffffffffffffffffffffffe0169056fea265627a7a723058205ff7ebc419af1ef4d16ff84b1900cc1c31d0f9a4aeffc3e444c3a5c49d5cf0a86c6578706572696d656e74616cf50037",
  "source": "/*\n\n    Copyright 2019 dYdX Trading Inc.\n\n    Licensed under the Apache License, Version 2.0 (the \"License\");\n    you may not use this file except in compliance with the License.\n    You may obtain a copy of the License at\n\n    http://www.apache.org/licenses/LICENSE-2.0\n\n    Unless required by applicable law or agreed to in writing, software\n    distributed under the License is distributed on an \"AS IS\" BASIS,\n    WITHOUT WARRANTIES OR CONDITIONS OF ANY KIND, either express or implied.\n    See the License for the specific language governing permissions and\n    limitations under the License.\n\n*/\n\npragma solidity 0.5.7;\npragma experimental ABIEncoderV2;\n\nimport { State } from \"./State.sol\";\nimport { IInterestSetter } from \"./interfaces/IInterestSetter.sol\";\nimport { IPriceOracle } from \"./interfaces/IPriceOracle.sol\";\nimport { Account } from \"./lib/Account.sol\";\nimport { Cache } from \"./lib/Cache.sol\";\nimport { Decimal } from \"./lib/Decimal.sol\";\nimport { Interest } from \"./lib/Interest.sol\";\nimport { Monetary } from \"./lib/Monetary.sol\";\nimport { Require } from \"./lib/Require.sol\";\nimport { Storage } from \"./lib/Storage.sol\";\nimport { Token } from \"./lib/Token.sol\";\nimport { Types } from \"./lib/Types.sol\";\n\n\n/**\n * @title Getters\n * @author dYdX\n *\n * Public read-only functions that allow transparency into the state of Solo\n */\ncontract Getters is\n    State\n{\n    using Cache for Cache.MarketCache;\n    using Storage for Storage.State;\n    using Types for Types.Par;\n\n    // ============ Constants ============\n\n    bytes32 FILE = \"Getters\";\n\n    // ============ Getters for Risk ============\n\n    /**\n     * Get the global minimum margin-ratio that every position must maintain to prevent being\n     * liquidated.\n     *\n     * @return  The global margin-ratio\n     */\n    function getMarginRatio()\n        public\n        view\n        returns (Decimal.D256 memory)\n    {\n        return g_state.riskParams.marginRatio;\n    }\n\n    /**\n     * Get the global liquidation spread. This is the spread between oracle prices that incentivizes\n     * the liquidation of risky positions.\n     *\n     * @return  The global liquidation spread\n     */\n    function getLiquidationSpread()\n        public\n        view\n        returns (Decimal.D256 memory)\n    {\n        return g_state.riskParams.liquidationSpread;\n    }\n\n    /**\n     * Get the global earnings-rate variable that determines what percentage of the interest paid\n     * by borrowers gets passed-on to suppliers.\n     *\n     * @return  The global earnings rate\n     */\n    function getEarningsRate()\n        public\n        view\n        returns (Decimal.D256 memory)\n    {\n        return g_state.riskParams.earningsRate;\n    }\n\n    /**\n     * Get the global minimum-borrow value which is the minimum value of any new borrow on Solo.\n     *\n     * @return  The global minimum borrow value\n     */\n    function getMinBorrowedValue()\n        public\n        view\n        returns (Monetary.Value memory)\n    {\n        return g_state.riskParams.minBorrowedValue;\n    }\n\n    /**\n     * Get all risk parameters in a single struct.\n     *\n     * @return  All global risk parameters\n     */\n    function getRiskParams()\n        public\n        view\n        returns (Storage.RiskParams memory)\n    {\n        return g_state.riskParams;\n    }\n\n    /**\n     * Get all risk parameter limits in a single struct. These are the maximum limits at which the\n     * risk parameters can be set by the admin of Solo.\n     *\n     * @return  All global risk parameter limnits\n     */\n    function getRiskLimits()\n        public\n        view\n        returns (Storage.RiskLimits memory)\n    {\n        return g_state.riskLimits;\n    }\n\n    // ============ Getters for Markets ============\n\n    /**\n     * Get the total number of markets.\n     *\n     * @return  The number of markets\n     */\n    function getNumMarkets()\n        public\n        view\n        returns (uint256)\n    {\n        return g_state.numMarkets;\n    }\n\n    /**\n     * Get the ERC20 token address for a market.\n     *\n     * @param  marketId  The market to query\n     * @return           The token address\n     */\n    function getMarketTokenAddress(\n        uint256 marketId\n    )\n        public\n        view\n        returns (address)\n    {\n        _requireValidMarket(marketId);\n        return g_state.getToken(marketId);\n    }\n\n    /**\n     * Get the total principal amounts (borrowed and supplied) for a market.\n     *\n     * @param  marketId  The market to query\n     * @return           The total principal amounts\n     */\n    function getMarketTotalPar(\n        uint256 marketId\n    )\n        public\n        view\n        returns (Types.TotalPar memory)\n    {\n        _requireValidMarket(marketId);\n        return g_state.getTotalPar(marketId);\n    }\n\n    /**\n     * Get the most recently cached interest index for a market.\n     *\n     * @param  marketId  The market to query\n     * @return           The most recent index\n     */\n    function getMarketCachedIndex(\n        uint256 marketId\n    )\n        public\n        view\n        returns (Interest.Index memory)\n    {\n        _requireValidMarket(marketId);\n        return g_state.getIndex(marketId);\n    }\n\n    /**\n     * Get the interest index for a market if it were to be updated right now.\n     *\n     * @param  marketId  The market to query\n     * @return           The estimated current index\n     */\n    function getMarketCurrentIndex(\n        uint256 marketId\n    )\n        public\n        view\n        returns (Interest.Index memory)\n    {\n        _requireValidMarket(marketId);\n        return g_state.fetchNewIndex(marketId, g_state.getIndex(marketId));\n    }\n\n    /**\n     * Get the price oracle address for a market.\n     *\n     * @param  marketId  The market to query\n     * @return           The price oracle address\n     */\n    function getMarketPriceOracle(\n        uint256 marketId\n    )\n        public\n        view\n        returns (IPriceOracle)\n    {\n        _requireValidMarket(marketId);\n        return g_state.markets[marketId].priceOracle;\n    }\n\n    /**\n     * Get the interest-setter address for a market.\n     *\n     * @param  marketId  The market to query\n     * @return           The interest-setter address\n     */\n    function getMarketInterestSetter(\n        uint256 marketId\n    )\n        public\n        view\n        returns (IInterestSetter)\n    {\n        _requireValidMarket(marketId);\n        return g_state.markets[marketId].interestSetter;\n    }\n\n    /**\n     * Get the margin premium for a market. A margin premium makes it so that any positions that\n     * include the market require a higher collateralization to avoid being liquidated.\n     *\n     * @param  marketId  The market to query\n     * @return           The market's margin premium\n     */\n    function getMarketMarginPremium(\n        uint256 marketId\n    )\n        public\n        view\n        returns (Decimal.D256 memory)\n    {\n        _requireValidMarket(marketId);\n        return g_state.markets[marketId].marginPremium;\n    }\n\n    /**\n     * Get the spread premium for a market. A spread premium makes it so that any liquidations\n     * that include the market have a higher spread than the global default.\n     *\n     * @param  marketId  The market to query\n     * @return           The market's spread premium\n     */\n    function getMarketSpreadPremium(\n        uint256 marketId\n    )\n        public\n        view\n        returns (Decimal.D256 memory)\n    {\n        _requireValidMarket(marketId);\n        return g_state.markets[marketId].spreadPremium;\n    }\n\n    /**\n     * Return true if a particular market is in closing mode. Additional borrows cannot be taken\n     * from a market that is closing.\n     *\n     * @param  marketId  The market to query\n     * @return           True if the market is closing\n     */\n    function getMarketIsClosing(\n        uint256 marketId\n    )\n        public\n        view\n        returns (bool)\n    {\n        _requireValidMarket(marketId);\n        return g_state.markets[marketId].isClosing;\n    }\n\n    /**\n     * Get the price of the token for a market.\n     *\n     * @param  marketId  The market to query\n     * @return           The price of each atomic unit of the token\n     */\n    function getMarketPrice(\n        uint256 marketId\n    )\n        public\n        view\n        returns (Monetary.Price memory)\n    {\n        _requireValidMarket(marketId);\n        return g_state.fetchPrice(marketId);\n    }\n\n    /**\n     * Get the current borrower interest rate for a market.\n     *\n     * @param  marketId  The market to query\n     * @return           The current interest rate\n     */\n    function getMarketInterestRate(\n        uint256 marketId\n    )\n        public\n        view\n        returns (Interest.Rate memory)\n    {\n        _requireValidMarket(marketId);\n        return g_state.fetchInterestRate(\n            marketId,\n            g_state.getIndex(marketId)\n        );\n    }\n\n    /**\n     * Get the adjusted liquidation spread for some market pair. This is equal to the global\n     * liquidation spread multiplied by (1 + spreadPremium) for each of the two markets.\n     *\n     * @param  heldMarketId  The market for which the account has collateral\n     * @param  owedMarketId  The market for which the account has borrowed tokens\n     * @return               The adjusted liquidation spread\n     */\n    function getLiquidationSpreadForPair(\n        uint256 heldMarketId,\n        uint256 owedMarketId\n    )\n        public\n        view\n        returns (Decimal.D256 memory)\n    {\n        _requireValidMarket(heldMarketId);\n        _requireValidMarket(owedMarketId);\n        return g_state.getLiquidationSpreadForPair(heldMarketId, owedMarketId);\n    }\n\n    /**\n     * Get basic information about a particular market.\n     *\n     * @param  marketId  The market to query\n     * @return           A Storage.Market struct with the current state of the market\n     */\n    function getMarket(\n        uint256 marketId\n    )\n        public\n        view\n        returns (Storage.Market memory)\n    {\n        _requireValidMarket(marketId);\n        return g_state.markets[marketId];\n    }\n\n    /**\n     * Get comprehensive information about a particular market.\n     *\n     * @param  marketId  The market to query\n     * @return           A tuple containing the values:\n     *                    - A Storage.Market struct with the current state of the market\n     *                    - The current estimated interest index\n     *                    - The current token price\n     *                    - The current market interest rate\n     */\n    function getMarketWithInfo(\n        uint256 marketId\n    )\n        public\n        view\n        returns (\n            Storage.Market memory,\n            Interest.Index memory,\n            Monetary.Price memory,\n            Interest.Rate memory\n        )\n    {\n        _requireValidMarket(marketId);\n        return (\n            getMarket(marketId),\n            getMarketCurrentIndex(marketId),\n            getMarketPrice(marketId),\n            getMarketInterestRate(marketId)\n        );\n    }\n\n    /**\n     * Get the number of excess tokens for a market. The number of excess tokens is calculated\n     * by taking the current number of tokens held in Solo, adding the number of tokens owed to Solo\n     * by borrowers, and subtracting the number of tokens owed to suppliers by Solo.\n     *\n     * @param  marketId  The market to query\n     * @return           The number of excess tokens\n     */\n    function getNumExcessTokens(\n        uint256 marketId\n    )\n        public\n        view\n        returns (Types.Wei memory)\n    {\n        _requireValidMarket(marketId);\n        return g_state.getNumExcessTokens(marketId);\n    }\n\n    // ============ Getters for Accounts ============\n\n    /**\n     * Get the principal value for a particular account and market.\n     *\n     * @param  account   The account to query\n     * @param  marketId  The market to query\n     * @return           The principal value\n     */\n    function getAccountPar(\n        Account.Info memory account,\n        uint256 marketId\n    )\n        public\n        view\n        returns (Types.Par memory)\n    {\n        _requireValidMarket(marketId);\n        return g_state.getPar(account, marketId);\n    }\n\n    /**\n     * Get the token balance for a particular account and market.\n     *\n     * @param  account   The account to query\n     * @param  marketId  The market to query\n     * @return           The token amount\n     */\n    function getAccountWei(\n        Account.Info memory account,\n        uint256 marketId\n    )\n        public\n        view\n        returns (Types.Wei memory)\n    {\n        _requireValidMarket(marketId);\n        return Interest.parToWei(\n            g_state.getPar(account, marketId),\n            g_state.fetchNewIndex(marketId, g_state.getIndex(marketId))\n        );\n    }\n\n    /**\n     * Get the status of an account (Normal, Liquidating, or Vaporizing).\n     *\n     * @param  account  The account to query\n     * @return          The account's status\n     */\n    function getAccountStatus(\n        Account.Info memory account\n    )\n        public\n        view\n        returns (Account.Status)\n    {\n        return g_state.getStatus(account);\n    }\n\n    /**\n     * Get the total supplied and total borrowed value of an account.\n     *\n     * @param  account  The account to query\n     * @return          The following values:\n     *                   - The supplied value of the account\n     *                   - The borrowed value of the account\n     */\n    function getAccountValues(\n        Account.Info memory account\n    )\n        public\n        view\n        returns (Monetary.Value memory, Monetary.Value memory)\n    {\n        return getAccountValuesInternal(account, /* adjustForLiquidity = */ false);\n    }\n\n    /**\n     * Get the total supplied and total borrowed values of an account adjusted by the marginPremium\n     * of each market. Supplied values are divided by (1 + marginPremium) for each market and\n     * borrowed values are multiplied by (1 + marginPremium) for each market. Comparing these\n     * adjusted values gives the margin-ratio of the account which will be compared to the global\n     * margin-ratio when determining if the account can be liquidated.\n     *\n     * @param  account  The account to query\n     * @return          The following values:\n     *                   - The supplied value of the account (adjusted for marginPremium)\n     *                   - The borrowed value of the account (adjusted for marginPremium)\n     */\n    function getAdjustedAccountValues(\n        Account.Info memory account\n    )\n        public\n        view\n        returns (Monetary.Value memory, Monetary.Value memory)\n    {\n        return getAccountValuesInternal(account, /* adjustForLiquidity = */ true);\n    }\n\n    /**\n     * Get an account's summary for each market.\n     *\n     * @param  account  The account to query\n     * @return          The following values:\n     *                   - The ERC20 token address for each market\n     *                   - The account's principal value for each market\n     *                   - The account's (supplied or borrowed) number of tokens for each market\n     */\n    function getAccountBalances(\n        Account.Info memory account\n    )\n        public\n        view\n        returns (\n            address[] memory,\n            Types.Par[] memory,\n            Types.Wei[] memory\n        )\n    {\n        uint256 numMarkets = g_state.numMarkets;\n        address[] memory tokens = new address[](numMarkets);\n        Types.Par[] memory pars = new Types.Par[](numMarkets);\n        Types.Wei[] memory weis = new Types.Wei[](numMarkets);\n\n        for (uint256 m = 0; m < numMarkets; m++) {\n            tokens[m] = getMarketTokenAddress(m);\n            pars[m] = getAccountPar(account, m);\n            weis[m] = getAccountWei(account, m);\n        }\n\n        return (\n            tokens,\n            pars,\n            weis\n        );\n    }\n\n    // ============ Getters for Permissions ============\n\n    /**\n     * Return true if a particular address is approved as an operator for an owner's accounts.\n     * Approved operators can act on the accounts of the owner as if it were the operator's own.\n     *\n     * @param  owner     The owner of the accounts\n     * @param  operator  The possible operator\n     * @return           True if operator is approved for owner's accounts\n     */\n    function getIsLocalOperator(\n        address owner,\n        address operator\n    )\n        public\n        view\n        returns (bool)\n    {\n        return g_state.isLocalOperator(owner, operator);\n    }\n\n    /**\n     * Return true if a particular address is approved as a global operator. Such an address can\n     * act on any account as if it were the operator's own.\n     *\n     * @param  operator  The address to query\n     * @return           True if operator is a global operator\n     */\n    function getIsGlobalOperator(\n        address operator\n    )\n        public\n        view\n        returns (bool)\n    {\n        return g_state.isGlobalOperator(operator);\n    }\n\n    // ============ Private Helper Functions ============\n\n    /**\n     * Revert if marketId is invalid.\n     */\n    function _requireValidMarket(\n        uint256 marketId\n    )\n        private\n        view\n    {\n        Require.that(\n            marketId < g_state.numMarkets,\n            FILE,\n            \"Market OOB\"\n        );\n    }\n\n    /**\n     * Private helper for getting the monetary values of an account.\n     */\n    function getAccountValuesInternal(\n        Account.Info memory account,\n        bool adjustForLiquidity\n    )\n        private\n        view\n        returns (Monetary.Value memory, Monetary.Value memory)\n    {\n        uint256 numMarkets = g_state.numMarkets;\n\n        // populate cache\n        Cache.MarketCache memory cache = Cache.create(numMarkets);\n        for (uint256 m = 0; m < numMarkets; m++) {\n            if (!g_state.getPar(account, m).isZero()) {\n                cache.addMarket(g_state, m);\n            }\n        }\n\n        return g_state.getAccountValues(account, cache, adjustForLiquidity);\n    }\n}\n",
  "sourcePath": "/home/ankit/projects/solo/contracts/protocol/Getters.sol",
  "compiler": {
    "name": "solc",
    "version": "0.5.7+commit.6da8b019.Linux.g++"
  },
  "schemaVersion": "3.0.23",
  "updatedAt": "2020-04-24T13:34:22.208Z",
  "devdoc": {
    "author": "dYdX * Public read-only functions that allow transparency into the state of Solo",
    "methods": {
      "getAccountBalances((address,uint256))": {
        "params": {
          "account": "The account to query"
        },
        "return": "The following values:                  - The ERC20 token address for each market                  - The account's principal value for each market                  - The account's (supplied or borrowed) number of tokens for each market"
      },
      "getAccountPar((address,uint256),uint256)": {
        "params": {
          "account": "The account to query",
          "marketId": "The market to query"
        },
        "return": "The principal value"
      },
      "getAccountStatus((address,uint256))": {
        "params": {
          "account": "The account to query"
        },
        "return": "The account's status"
      },
      "getAccountValues((address,uint256))": {
        "params": {
          "account": "The account to query"
        },
        "return": "The following values:                  - The supplied value of the account                  - The borrowed value of the account"
      },
      "getAccountWei((address,uint256),uint256)": {
        "params": {
          "account": "The account to query",
          "marketId": "The market to query"
        },
        "return": "The token amount"
      },
      "getAdjustedAccountValues((address,uint256))": {
        "params": {
          "account": "The account to query"
        },
        "return": "The following values:                  - The supplied value of the account (adjusted for marginPremium)                  - The borrowed value of the account (adjusted for marginPremium)"
      },
      "getEarningsRate()": {
        "return": "The global earnings rate"
      },
      "getIsGlobalOperator(address)": {
        "params": {
          "operator": "The address to query"
        },
        "return": "True if operator is a global operator"
      },
      "getIsLocalOperator(address,address)": {
        "params": {
          "operator": "The possible operator",
          "owner": "The owner of the accounts"
        },
        "return": "True if operator is approved for owner's accounts"
      },
      "getLiquidationSpread()": {
        "return": "The global liquidation spread"
      },
      "getLiquidationSpreadForPair(uint256,uint256)": {
        "params": {
          "heldMarketId": "The market for which the account has collateral",
          "owedMarketId": "The market for which the account has borrowed tokens"
        },
        "return": "The adjusted liquidation spread"
      },
      "getMarginRatio()": {
        "return": "The global margin-ratio"
      },
      "getMarket(uint256)": {
        "params": {
          "marketId": "The market to query"
        },
        "return": "A Storage.Market struct with the current state of the market"
      },
      "getMarketCachedIndex(uint256)": {
        "params": {
          "marketId": "The market to query"
        },
        "return": "The most recent index"
      },
      "getMarketCurrentIndex(uint256)": {
        "params": {
          "marketId": "The market to query"
        },
        "return": "The estimated current index"
      },
      "getMarketInterestRate(uint256)": {
        "params": {
          "marketId": "The market to query"
        },
        "return": "The current interest rate"
      },
      "getMarketInterestSetter(uint256)": {
        "params": {
          "marketId": "The market to query"
        },
        "return": "The interest-setter address"
      },
      "getMarketIsClosing(uint256)": {
        "params": {
          "marketId": "The market to query"
        },
        "return": "True if the market is closing"
      },
      "getMarketMarginPremium(uint256)": {
        "params": {
          "marketId": "The market to query"
        },
        "return": "The market's margin premium"
      },
      "getMarketPrice(uint256)": {
        "params": {
          "marketId": "The market to query"
        },
        "return": "The price of each atomic unit of the token"
      },
      "getMarketPriceOracle(uint256)": {
        "params": {
          "marketId": "The market to query"
        },
        "return": "The price oracle address"
      },
      "getMarketSpreadPremium(uint256)": {
        "params": {
          "marketId": "The market to query"
        },
        "return": "The market's spread premium"
      },
      "getMarketTokenAddress(uint256)": {
        "params": {
          "marketId": "The market to query"
        },
        "return": "The token address"
      },
      "getMarketTotalPar(uint256)": {
        "params": {
          "marketId": "The market to query"
        },
        "return": "The total principal amounts"
      },
      "getMarketWithInfo(uint256)": {
        "params": {
          "marketId": "The market to query"
        },
        "return": "A tuple containing the values:                   - A Storage.Market struct with the current state of the market                   - The current estimated interest index                   - The current token price                   - The current market interest rate"
      },
      "getMinBorrowedValue()": {
        "return": "The global minimum borrow value"
      },
      "getNumExcessTokens(uint256)": {
        "params": {
          "marketId": "The market to query"
        },
        "return": "The number of excess tokens"
      },
      "getNumMarkets()": {
        "return": "The number of markets"
      },
      "getRiskLimits()": {
        "return": "All global risk parameter limnits"
      },
      "getRiskParams()": {
        "return": "All global risk parameters"
      }
    },
    "title": "Getters"
  },
  "userdoc": {
    "methods": {
      "getAccountBalances((address,uint256))": {
        "notice": "Get an account's summary for each market."
      },
      "getAccountPar((address,uint256),uint256)": {
        "notice": "Get the principal value for a particular account and market."
      },
      "getAccountStatus((address,uint256))": {
        "notice": "Get the status of an account (Normal, Liquidating, or Vaporizing)."
      },
      "getAccountValues((address,uint256))": {
        "notice": "Get the total supplied and total borrowed value of an account."
      },
      "getAccountWei((address,uint256),uint256)": {
        "notice": "Get the token balance for a particular account and market."
      },
      "getAdjustedAccountValues((address,uint256))": {
        "notice": "Get the total supplied and total borrowed values of an account adjusted by the marginPremium of each market. Supplied values are divided by (1 + marginPremium) for each market and borrowed values are multiplied by (1 + marginPremium) for each market. Comparing these adjusted values gives the margin-ratio of the account which will be compared to the global margin-ratio when determining if the account can be liquidated."
      },
      "getEarningsRate()": {
        "notice": "Get the global earnings-rate variable that determines what percentage of the interest paid by borrowers gets passed-on to suppliers."
      },
      "getIsGlobalOperator(address)": {
        "notice": "Return true if a particular address is approved as a global operator. Such an address can act on any account as if it were the operator's own."
      },
      "getIsLocalOperator(address,address)": {
        "notice": "Return true if a particular address is approved as an operator for an owner's accounts. Approved operators can act on the accounts of the owner as if it were the operator's own."
      },
      "getLiquidationSpread()": {
        "notice": "Get the global liquidation spread. This is the spread between oracle prices that incentivizes the liquidation of risky positions."
      },
      "getLiquidationSpreadForPair(uint256,uint256)": {
        "notice": "Get the adjusted liquidation spread for some market pair. This is equal to the global liquidation spread multiplied by (1 + spreadPremium) for each of the two markets."
      },
      "getMarginRatio()": {
        "notice": "Get the global minimum margin-ratio that every position must maintain to prevent being liquidated."
      },
      "getMarket(uint256)": {
        "notice": "Get basic information about a particular market."
      },
      "getMarketCachedIndex(uint256)": {
        "notice": "Get the most recently cached interest index for a market."
      },
      "getMarketCurrentIndex(uint256)": {
        "notice": "Get the interest index for a market if it were to be updated right now."
      },
      "getMarketInterestRate(uint256)": {
        "notice": "Get the current borrower interest rate for a market."
      },
      "getMarketInterestSetter(uint256)": {
        "notice": "Get the interest-setter address for a market."
      },
      "getMarketIsClosing(uint256)": {
        "notice": "Return true if a particular market is in closing mode. Additional borrows cannot be taken from a market that is closing."
      },
      "getMarketMarginPremium(uint256)": {
        "notice": "Get the margin premium for a market. A margin premium makes it so that any positions that include the market require a higher collateralization to avoid being liquidated."
      },
      "getMarketPrice(uint256)": {
        "notice": "Get the price of the token for a market."
      },
      "getMarketPriceOracle(uint256)": {
        "notice": "Get the price oracle address for a market."
      },
      "getMarketSpreadPremium(uint256)": {
        "notice": "Get the spread premium for a market. A spread premium makes it so that any liquidations that include the market have a higher spread than the global default."
      },
      "getMarketTokenAddress(uint256)": {
        "notice": "Get the ERC20 token address for a market."
      },
      "getMarketTotalPar(uint256)": {
        "notice": "Get the total principal amounts (borrowed and supplied) for a market."
      },
      "getMarketWithInfo(uint256)": {
        "notice": "Get comprehensive information about a particular market."
      },
      "getMinBorrowedValue()": {
        "notice": "Get the global minimum-borrow value which is the minimum value of any new borrow on Solo."
      },
      "getNumExcessTokens(uint256)": {
        "notice": "Get the number of excess tokens for a market. The number of excess tokens is calculated by taking the current number of tokens held in Solo, adding the number of tokens owed to Solo by borrowers, and subtracting the number of tokens owed to suppliers by Solo."
      },
      "getNumMarkets()": {
        "notice": "Get the total number of markets."
      },
      "getRiskLimits()": {
        "notice": "Get all risk parameter limits in a single struct. These are the maximum limits at which the risk parameters can be set by the admin of Solo."
      },
      "getRiskParams()": {
        "notice": "Get all risk parameters in a single struct."
      }
    }
  }
}