{
  "contractName": "MultiSig",
  "abi": [
    {
      "constant": true,
      "inputs": [
        {
          "name": "",
          "type": "uint256"
        }
      ],
      "name": "owners",
      "outputs": [
        {
          "name": "",
          "type": "address"
        }
      ],
      "payable": false,
      "stateMutability": "view",
      "type": "function"
    },
    {
      "constant": true,
      "inputs": [
        {
          "name": "",
          "type": "address"
        }
      ],
      "name": "isOwner",
      "outputs": [
        {
          "name": "",
          "type": "bool"
        }
      ],
      "payable": false,
      "stateMutability": "view",
      "type": "function"
    },
    {
      "constant": true,
      "inputs": [
        {
          "name": "",
          "type": "uint256"
        },
        {
          "name": "",
          "type": "address"
        }
      ],
      "name": "confirmations",
      "outputs": [
        {
          "name": "",
          "type": "bool"
        }
      ],
      "payable": false,
      "stateMutability": "view",
      "type": "function"
    },
    {
      "constant": true,
      "inputs": [
        {
          "name": "",
          "type": "uint256"
        }
      ],
      "name": "transactions",
      "outputs": [
        {
          "name": "destination",
          "type": "address"
        },
        {
          "name": "value",
          "type": "uint256"
        },
        {
          "name": "data",
          "type": "bytes"
        },
        {
          "name": "executed",
          "type": "bool"
        }
      ],
      "payable": false,
      "stateMutability": "view",
      "type": "function"
    },
    {
      "constant": true,
      "inputs": [],
      "name": "transactionCount",
      "outputs": [
        {
          "name": "",
          "type": "uint256"
        }
      ],
      "payable": false,
      "stateMutability": "view",
      "type": "function"
    },
    {
      "constant": true,
      "inputs": [],
      "name": "MAX_OWNER_COUNT",
      "outputs": [
        {
          "name": "",
          "type": "uint256"
        }
      ],
      "payable": false,
      "stateMutability": "view",
      "type": "function"
    },
    {
      "constant": true,
      "inputs": [],
      "name": "required",
      "outputs": [
        {
          "name": "",
          "type": "uint256"
        }
      ],
      "payable": false,
      "stateMutability": "view",
      "type": "function"
    },
    {
      "inputs": [
        {
          "name": "_owners",
          "type": "address[]"
        },
        {
          "name": "_required",
          "type": "uint256"
        }
      ],
      "payable": false,
      "stateMutability": "nonpayable",
      "type": "constructor"
    },
    {
      "anonymous": false,
      "inputs": [
        {
          "indexed": true,
          "name": "sender",
          "type": "address"
        },
        {
          "indexed": true,
          "name": "transactionId",
          "type": "uint256"
        }
      ],
      "name": "Confirmation",
      "type": "event"
    },
    {
      "anonymous": false,
      "inputs": [
        {
          "indexed": true,
          "name": "sender",
          "type": "address"
        },
        {
          "indexed": true,
          "name": "transactionId",
          "type": "uint256"
        }
      ],
      "name": "Revocation",
      "type": "event"
    },
    {
      "anonymous": false,
      "inputs": [
        {
          "indexed": true,
          "name": "transactionId",
          "type": "uint256"
        }
      ],
      "name": "Submission",
      "type": "event"
    },
    {
      "anonymous": false,
      "inputs": [
        {
          "indexed": true,
          "name": "transactionId",
          "type": "uint256"
        }
      ],
      "name": "Execution",
      "type": "event"
    },
    {
      "anonymous": false,
      "inputs": [
        {
          "indexed": true,
          "name": "transactionId",
          "type": "uint256"
        }
      ],
      "name": "ExecutionFailure",
      "type": "event"
    },
    {
      "anonymous": false,
      "inputs": [
        {
          "indexed": true,
          "name": "owner",
          "type": "address"
        }
      ],
      "name": "OwnerAddition",
      "type": "event"
    },
    {
      "anonymous": false,
      "inputs": [
        {
          "indexed": true,
          "name": "owner",
          "type": "address"
        }
      ],
      "name": "OwnerRemoval",
      "type": "event"
    },
    {
      "anonymous": false,
      "inputs": [
        {
          "indexed": false,
          "name": "required",
          "type": "uint256"
        }
      ],
      "name": "RequirementChange",
      "type": "event"
    },
    {
      "constant": false,
      "inputs": [
        {
          "name": "owner",
          "type": "address"
        }
      ],
      "name": "addOwner",
      "outputs": [],
      "payable": false,
      "stateMutability": "nonpayable",
      "type": "function"
    },
    {
      "constant": false,
      "inputs": [
        {
          "name": "owner",
          "type": "address"
        }
      ],
      "name": "removeOwner",
      "outputs": [],
      "payable": false,
      "stateMutability": "nonpayable",
      "type": "function"
    },
    {
      "constant": false,
      "inputs": [
        {
          "name": "owner",
          "type": "address"
        },
        {
          "name": "newOwner",
          "type": "address"
        }
      ],
      "name": "replaceOwner",
      "outputs": [],
      "payable": false,
      "stateMutability": "nonpayable",
      "type": "function"
    },
    {
      "constant": false,
      "inputs": [
        {
          "name": "_required",
          "type": "uint256"
        }
      ],
      "name": "changeRequirement",
      "outputs": [],
      "payable": false,
      "stateMutability": "nonpayable",
      "type": "function"
    },
    {
      "constant": false,
      "inputs": [
        {
          "name": "destination",
          "type": "address"
        },
        {
          "name": "value",
          "type": "uint256"
        },
        {
          "name": "data",
          "type": "bytes"
        }
      ],
      "name": "submitTransaction",
      "outputs": [
        {
          "name": "",
          "type": "uint256"
        }
      ],
      "payable": false,
      "stateMutability": "nonpayable",
      "type": "function"
    },
    {
      "constant": false,
      "inputs": [
        {
          "name": "transactionId",
          "type": "uint256"
        }
      ],
      "name": "confirmTransaction",
      "outputs": [],
      "payable": false,
      "stateMutability": "nonpayable",
      "type": "function"
    },
    {
      "constant": false,
      "inputs": [
        {
          "name": "transactionId",
          "type": "uint256"
        }
      ],
      "name": "revokeConfirmation",
      "outputs": [],
      "payable": false,
      "stateMutability": "nonpayable",
      "type": "function"
    },
    {
      "constant": false,
      "inputs": [
        {
          "name": "transactionId",
          "type": "uint256"
        }
      ],
      "name": "executeTransaction",
      "outputs": [],
      "payable": false,
      "stateMutability": "nonpayable",
      "type": "function"
    },
    {
      "constant": true,
      "inputs": [
        {
          "name": "transactionId",
          "type": "uint256"
        }
      ],
      "name": "isConfirmed",
      "outputs": [
        {
          "name": "",
          "type": "bool"
        }
      ],
      "payable": false,
      "stateMutability": "view",
      "type": "function"
    },
    {
      "constant": true,
      "inputs": [
        {
          "name": "transactionId",
          "type": "uint256"
        }
      ],
      "name": "getConfirmationCount",
      "outputs": [
        {
          "name": "",
          "type": "uint256"
        }
      ],
      "payable": false,
      "stateMutability": "view",
      "type": "function"
    },
    {
      "constant": true,
      "inputs": [
        {
          "name": "pending",
          "type": "bool"
        },
        {
          "name": "executed",
          "type": "bool"
        }
      ],
      "name": "getTransactionCount",
      "outputs": [
        {
          "name": "",
          "type": "uint256"
        }
      ],
      "payable": false,
      "stateMutability": "view",
      "type": "function"
    },
    {
      "constant": true,
      "inputs": [],
      "name": "getOwners",
      "outputs": [
        {
          "name": "",
          "type": "address[]"
        }
      ],
      "payable": false,
      "stateMutability": "view",
      "type": "function"
    },
    {
      "constant": true,
      "inputs": [
        {
          "name": "transactionId",
          "type": "uint256"
        }
      ],
      "name": "getConfirmations",
      "outputs": [
        {
          "name": "",
          "type": "address[]"
        }
      ],
      "payable": false,
      "stateMutability": "view",
      "type": "function"
    },
    {
      "constant": true,
      "inputs": [
        {
          "name": "from",
          "type": "uint256"
        },
        {
          "name": "to",
          "type": "uint256"
        },
        {
          "name": "pending",
          "type": "bool"
        },
        {
          "name": "executed",
          "type": "bool"
        }
      ],
      "name": "getTransactionIds",
      "outputs": [
        {
          "name": "",
          "type": "uint256[]"
        }
      ],
      "payable": false,
      "stateMutability": "view",
      "type": "function"
    }
  ],
  "bytecode": "0x60806040523480156200001157600080fd5b5060405162001d8938038062001d898339810180604052620000379190810190620002a3565b815181603282111580156200004c5750818111155b80156200005857508015155b80156200006457508115155b6200006e57600080fd5b60005b84518110156200014057600260008683815181106200008c57fe5b602090810291909101810151600160a060020a031682528101919091526040016000205460ff16158015620000e857506000600160a060020a0316858281518110620000d457fe5b6020026020010151600160a060020a031614155b620000f257600080fd5b6001600260008784815181106200010557fe5b602090810291909101810151600160a060020a03168252810191909152604001600020805460ff191691151591909117905560010162000071565b5083516200015690600390602087019062000163565b5050506004555062000360565b828054828255906000526020600020908101928215620001bb579160200282015b82811115620001bb5782518254600160a060020a031916600160a060020a0390911617825560209092019160019091019062000184565b50620001c9929150620001cd565b5090565b620001f491905b80821115620001c9578054600160a060020a0319168155600101620001d4565b90565b600062000205825162000341565b9392505050565b600082601f8301126200021e57600080fd5b8151620002356200022f8262000320565b620002f9565b915081818352602084019350602081019050838560208402820111156200025b57600080fd5b60005b838110156200028b5781620002748882620001f7565b84525060209283019291909101906001016200025e565b5050505092915050565b6000620002058251620001f4565b60008060408385031215620002b757600080fd5b82516001604060020a03811115620002ce57600080fd5b620002dc858286016200020c565b9250506020620002ef8582860162000295565b9150509250929050565b6040518181016001604060020a03811182821017156200031857600080fd5b604052919050565b60006001604060020a038211156200033757600080fd5b5060209081020190565b60006200034e8262000354565b92915050565b600160a060020a031690565b611a1980620003706000396000f3fe608060405234801561001057600080fd5b5060043610610194576000357c010000000000000000000000000000000000000000000000000000000090048063a0e67e2b116100f5578063c01a8c84116100a9578063dc8452cd11610083578063dc8452cd1461032a578063e20056e614610332578063ee22610b1461034557610194565b8063c01a8c84146102fc578063c64274741461030f578063d74f8edd1461032257610194565b8063b5dc40c3116100da578063b5dc40c3146102ce578063b77bf600146102e1578063ba51a6df146102e957610194565b8063a0e67e2b14610299578063a8abe69a146102ae57610194565b8063547415251161014c578063784547a711610131578063784547a7146102505780638b51d13f146102635780639ace38c21461027657610194565b8063547415251461021d5780637065cb481461023d57610194565b806320ea8d861161017d57806320ea8d86146101d75780632f54bf6e146101ea5780633411c81c1461020a57610194565b8063025e7c2714610199578063173825d9146101c2575b600080fd5b6101ac6101a7366004611693565b610358565b6040516101b9919061184a565b60405180910390f35b6101d56101d03660046115a6565b61038c565b005b6101d56101e5366004611693565b6105ba565b6101fd6101f83660046115a6565b610670565b6040516101b991906118b6565b6101fd6102183660046116b1565b610685565b61023061022b366004611663565b6106a5565b6040516101b991906118c4565b6101d561024b3660046115a6565b610715565b6101fd61025e366004611693565b610868565b610230610271366004611693565b6108fc565b610289610284366004611693565b61097a565b6040516101b99493929190611858565b6102a1610a63565b6040516101b99190611894565b6102c16102bc3660046116d0565b610ad3565b6040516101b991906118a5565b6102a16102dc366004611693565b610c04565b610230610dc2565b6101d56102f7366004611693565b610dc8565b6101d561030a366004611693565b610e4a565b61023061031d3660046115fe565b610f1e565b610230610f3f565b610230610f44565b6101d56103403660046115c4565b610f4a565b6101d5610353366004611693565b611151565b6003818154811061036557fe5b60009182526020909120015473ffffffffffffffffffffffffffffffffffffffff16905081565b33301461039857600080fd5b73ffffffffffffffffffffffffffffffffffffffff8116600090815260026020526040902054819060ff166103cc57600080fd5b73ffffffffffffffffffffffffffffffffffffffff82166000908152600260205260408120805460ff191690555b6003547fffffffffffffffffffffffffffffffffffffffffffffffffffffffffffffffff0181101561052a578273ffffffffffffffffffffffffffffffffffffffff166003828154811061044a57fe5b60009182526020909120015473ffffffffffffffffffffffffffffffffffffffff16141561052257600380547fffffffffffffffffffffffffffffffffffffffffffffffffffffffffffffffff81019081106104a257fe5b6000918252602090912001546003805473ffffffffffffffffffffffffffffffffffffffff90921691839081106104d557fe5b9060005260206000200160006101000a81548173ffffffffffffffffffffffffffffffffffffffff021916908373ffffffffffffffffffffffffffffffffffffffff16021790555061052a565b6001016103fa565b50600380547fffffffffffffffffffffffffffffffffffffffffffffffffffffffffffffffff019061055c9082611466565b5060035460045411156105755760035461057590610dc8565b60405173ffffffffffffffffffffffffffffffffffffffff8316907f8001553a916ef2f495d26a907cc54d96ed840d7bda71e73194bf5a9df7a76b9090600090a25050565b3360008181526002602052604090205460ff166105d657600080fd5b60008281526001602090815260408083203380855292529091205483919060ff1661060057600080fd5b600084815260208190526040902060030154849060ff161561062157600080fd5b6000858152600160209081526040808320338085529252808320805460ff191690555187927ff6a317157440607f36269043eb55f1287a5a19ba2216afeab88cd46cbcfb88e991a35050505050565b60026020526000908152604090205460ff1681565b600160209081526000928352604080842090915290825290205460ff1681565b600080805b60055481101561070b578480156106d3575060008181526020819052604090206003015460ff16155b806106f757508380156106f7575060008181526020819052604090206003015460ff165b15610703576001820191505b6001016106aa565b5090505b92915050565b33301461072157600080fd5b73ffffffffffffffffffffffffffffffffffffffff8116600090815260026020526040902054819060ff161561075657600080fd5b8173ffffffffffffffffffffffffffffffffffffffff811661077757600080fd5b600380549050600101600454603282111580156107945750818111155b801561079f57508015155b80156107aa57508115155b6107b357600080fd5b73ffffffffffffffffffffffffffffffffffffffff8516600081815260026020526040808220805460ff1916600190811790915560038054918201815583527fc2575a0e9e593c00f959f8c92f12db2869c3395a3b0502d05e2516446f71f85b0180547fffffffffffffffffffffffff00000000000000000000000000000000000000001684179055517ff39e6e1eb0edcf53c221607b54b00cd28f3196fed0a24994dc308b8f611b682d9190a25050505050565b600080805b6003548110156108f4576000848152600160205260408120600380549192918490811061089657fe5b600091825260208083209091015473ffffffffffffffffffffffffffffffffffffffff16835282019290925260400190205460ff16156108d7576001820191505b6004548214156108ec576001925050506108f7565b60010161086d565b50505b919050565b600080805b600354811015610973576000848152600160205260408120600380549192918490811061092a57fe5b600091825260208083209091015473ffffffffffffffffffffffffffffffffffffffff16835282019290925260400190205460ff161561096b576001820191505b600101610901565b5092915050565b60006020818152918152604090819020805460018083015460028085018054875161010095821615959095027fffffffffffffffffffffffffffffffffffffffffffffffffffffffffffffffff011691909104601f810188900488028401880190965285835273ffffffffffffffffffffffffffffffffffffffff90931695909491929190830182828015610a505780601f10610a2557610100808354040283529160200191610a50565b820191906000526020600020905b815481529060010190602001808311610a3357829003601f168201915b5050506003909301549192505060ff1684565b60606003805480602002602001604051908101604052809291908181526020018280548015610ac857602002820191906000526020600020905b815473ffffffffffffffffffffffffffffffffffffffff168152600190910190602001808311610a9d575b505050505090505b90565b606080600554604051908082528060200260200182016040528015610b02578160200160208202803883390190505b5090506000805b600554811015610b8357858015610b32575060008181526020819052604090206003015460ff16155b80610b565750848015610b56575060008181526020819052604090206003015460ff165b15610b7b5780838381518110610b6857fe5b6020026020010181815250506001820191505b600101610b09565b6060888803604051908082528060200260200182016040528015610bb1578160200160208202803883390190505b5090508891505b87821015610bf857838281518110610bcc57fe5b6020026020010151818a840381518110610be257fe5b6020908102919091010152600190910190610bb8565b98975050505050505050565b606080600380549050604051908082528060200260200182016040528015610c36578160200160208202803883390190505b5090506000805b600354811015610d2d5760008581526001602052604081206003805491929184908110610c6657fe5b600091825260208083209091015473ffffffffffffffffffffffffffffffffffffffff16835282019290925260400190205460ff1615610d255760038181548110610cad57fe5b9060005260206000200160009054906101000a900473ffffffffffffffffffffffffffffffffffffffff16838381518110610ce457fe5b602002602001019073ffffffffffffffffffffffffffffffffffffffff16908173ffffffffffffffffffffffffffffffffffffffff16815250506001820191505b600101610c3d565b606082604051908082528060200260200182016040528015610d59578160200160208202803883390190505b509050600091505b82821015610db957838281518110610d7557fe5b6020026020010151818381518110610d8957fe5b73ffffffffffffffffffffffffffffffffffffffff90921660209283029190910190910152600190910190610d61565b95945050505050565b60055481565b333014610dd457600080fd5b6003548160328211801590610de95750818111155b8015610df457508015155b8015610dff57508115155b610e0857600080fd5b60048390556040517fa3f1ee9126a074d9326c682f561767f710e927faa811f7a99829d49dc421797a90610e3d9085906118c4565b60405180910390a1505050565b3360008181526002602052604090205460ff16610e6657600080fd5b600082815260208190526040902054829073ffffffffffffffffffffffffffffffffffffffff16610e9657600080fd5b60008381526001602090815260408083203380855292529091205484919060ff1615610ec157600080fd5b6000858152600160208181526040808420338086529252808420805460ff1916909317909255905187927f4a504a94899432a9846e1aa406dceb1bcfd538bb839071d49d1e5e23f5be30ef91a3610f1785611151565b5050505050565b600080610f2c858585611333565b9050610f3781610e4a565b949350505050565b603281565b60045481565b333014610f5657600080fd5b73ffffffffffffffffffffffffffffffffffffffff8216600090815260026020526040902054829060ff16610f8a57600080fd5b73ffffffffffffffffffffffffffffffffffffffff8216600090815260026020526040902054829060ff1615610fbf57600080fd5b8273ffffffffffffffffffffffffffffffffffffffff8116610fe057600080fd5b60005b60035481101561109c578573ffffffffffffffffffffffffffffffffffffffff166003828154811061101157fe5b60009182526020909120015473ffffffffffffffffffffffffffffffffffffffff16141561109457846003828154811061104757fe5b9060005260206000200160006101000a81548173ffffffffffffffffffffffffffffffffffffffff021916908373ffffffffffffffffffffffffffffffffffffffff16021790555061109c565b600101610fe3565b5073ffffffffffffffffffffffffffffffffffffffff808616600081815260026020526040808220805460ff1990811690915593881682528082208054909416600117909355915190917f8001553a916ef2f495d26a907cc54d96ed840d7bda71e73194bf5a9df7a76b9091a260405173ffffffffffffffffffffffffffffffffffffffff8516907ff39e6e1eb0edcf53c221607b54b00cd28f3196fed0a24994dc308b8f611b682d90600090a25050505050565b3360008181526002602052604090205460ff1661116d57600080fd5b60008281526001602090815260408083203380855292529091205483919060ff1661119757600080fd5b600084815260208190526040902060030154849060ff16156111b857600080fd5b6111c185610868565b15610f17576000858152602081815260409182902060038101805460ff19166001908117909155815481830154600280850180548851601f7fffffffffffffffffffffffffffffffffffffffffffffffffffffffffffffffff9783161561010002979097019091169290920494850187900487028201870190975283815293956112be9573ffffffffffffffffffffffffffffffffffffffff9093169491939283908301828280156112b45780601f10611289576101008083540402835291602001916112b4565b820191906000526020600020905b81548152906001019060200180831161129757829003601f168201915b5050505050611443565b156112f35760405186907f33e13ecb54c3076d8e8bb8c2881800a4d972b792045ffae98fdf46df365fed7590600090a261132b565b60405186907f526441bb6c1aba3c9a4a6ca1d6545da9c2333c8c48343ef398eb858d72b7923690600090a260038101805460ff191690555b505050505050565b60008373ffffffffffffffffffffffffffffffffffffffff811661135657600080fd5b6005546040805160808101825273ffffffffffffffffffffffffffffffffffffffff8881168252602080830189815283850189815260006060860181905287815280845295909520845181547fffffffffffffffffffffffff000000000000000000000000000000000000000016941693909317835551600183015592518051929391926113ea926002850192019061148f565b50606091909101516003909101805460ff191691151591909117905560058054600101905560405181907fc0ba8fe4b176c1714197d43b9cc6bcf797a4a7461c5fe8d0ef6e184ae7601e5190600090a295945050505050565b6000806040516020840160008287838a8c6187965a03f198975050505050505050565b81548183558181111561148a5760008381526020902061148a91810190830161150d565b505050565b828054600181600116156101000203166002900490600052602060002090601f016020900481019282601f106114d057805160ff19168380011785556114fd565b828001600101855582156114fd579182015b828111156114fd5782518255916020019190600101906114e2565b5061150992915061150d565b5090565b610ad091905b808211156115095760008155600101611513565b60006115338235611952565b9392505050565b6000611533823561195d565b600082601f83011261155757600080fd5b813561156a611565826118f9565b6118d2565b9150808252602083016020830185838301111561158657600080fd5b61159183828461197b565b50505092915050565b60006115338235610ad0565b6000602082840312156115b857600080fd5b6000610f378484611527565b600080604083850312156115d757600080fd5b60006115e38585611527565b92505060206115f485828601611527565b9150509250929050565b60008060006060848603121561161357600080fd5b600061161f8686611527565b93505060206116308682870161159a565b925050604084013567ffffffffffffffff81111561164d57600080fd5b61165986828701611546565b9150509250925092565b6000806040838503121561167657600080fd5b6000611682858561153a565b92505060206115f48582860161153a565b6000602082840312156116a557600080fd5b6000610f37848461159a565b600080604083850312156116c457600080fd5b60006115e3858561159a565b600080600080608085870312156116e657600080fd5b60006116f2878761159a565b94505060206117038782880161159a565b93505060406117148782880161153a565b92505060606117258782880161153a565b91505092959194509250565b600061173d8383611751565b505060200190565b600061173d8383611841565b61175a81611952565b82525050565b600061176b82611945565b6117758185611949565b93506117808361193f565b60005b828110156117ab57611796868351611731565b95506117a18261193f565b9150600101611783565b5093949350505050565b60006117c082611945565b6117ca8185611949565b93506117d58361193f565b60005b828110156117ab576117eb868351611745565b95506117f68261193f565b91506001016117d8565b61175a8161195d565b600061181482611945565b61181e8185611949565b935061182e818560208601611987565b611837816119b7565b9093019392505050565b61175a81610ad0565b6020810161070f8284611751565b608081016118668287611751565b6118736020830186611841565b81810360408301526118858185611809565b9050610db96060830184611800565b602080825281016115338184611760565b6020808252810161153381846117b5565b6020810161070f8284611800565b6020810161070f8284611841565b60405181810167ffffffffffffffff811182821017156118f157600080fd5b604052919050565b600067ffffffffffffffff82111561191057600080fd5b506020601f919091017fffffffffffffffffffffffffffffffffffffffffffffffffffffffffffffffe0160190565b60200190565b5190565b90815260200190565b600061070f82611962565b151590565b73ffffffffffffffffffffffffffffffffffffffff1690565b82818337506000910152565b60005b838110156119a257818101518382015260200161198a565b838111156119b1576000848401525b50505050565b601f017fffffffffffffffffffffffffffffffffffffffffffffffffffffffffffffffe0169056fea265627a7a7230582062b06f66b34ffdb5644b9cc45186d67644768ebff047630c0858c8ecedb159016c6578706572696d656e74616cf50037",
  "source": "/*\n\n    Copyright 2019 dYdX Trading Inc.\n\n    Licensed under the Apache License, Version 2.0 (the \"License\");\n    you may not use this file except in compliance with the License.\n    You may obtain a copy of the License at\n\n    http://www.apache.org/licenses/LICENSE-2.0\n\n    Unless required by applicable law or agreed to in writing, software\n    distributed under the License is distributed on an \"AS IS\" BASIS,\n    WITHOUT WARRANTIES OR CONDITIONS OF ANY KIND, either express or implied.\n    See the License for the specific language governing permissions and\n    limitations under the License.\n\n*/\n\npragma solidity 0.5.7;\npragma experimental ABIEncoderV2;\n\n\n/**\n * @title MultiSig\n * @author dYdX\n *\n * Multi-Signature Wallet.\n * Allows multiple parties to agree on transactions before execution.\n * Adapted from Stefan George's MultiSigWallet contract.\n *\n * Logic Changes:\n *  - Removed the fallback function\n *  - Ensure newOwner is notNull\n *\n * Syntax Changes:\n *  - Update Solidity syntax for 0.5.X: use `emit` keyword (events), use `view` keyword (functions)\n *  - Add braces to all `if` and `for` statements\n *  - Remove named return variables\n *  - Add space before and after comparison operators\n *  - Add ADDRESS_ZERO as a constant\n *  - uint => uint256\n *  - external_call => externalCall\n */\ncontract MultiSig {\n\n    // ============ Events ============\n\n    event Confirmation(address indexed sender, uint256 indexed transactionId);\n    event Revocation(address indexed sender, uint256 indexed transactionId);\n    event Submission(uint256 indexed transactionId);\n    event Execution(uint256 indexed transactionId);\n    event ExecutionFailure(uint256 indexed transactionId);\n    event OwnerAddition(address indexed owner);\n    event OwnerRemoval(address indexed owner);\n    event RequirementChange(uint256 required);\n\n    // ============ Constants ============\n\n    uint256 constant public MAX_OWNER_COUNT = 50;\n    address constant ADDRESS_ZERO = address(0x0);\n\n    // ============ Storage ============\n\n    mapping (uint256 => Transaction) public transactions;\n    mapping (uint256 => mapping (address => bool)) public confirmations;\n    mapping (address => bool) public isOwner;\n    address[] public owners;\n    uint256 public required;\n    uint256 public transactionCount;\n\n    // ============ Structs ============\n\n    struct Transaction {\n        address destination;\n        uint256 value;\n        bytes data;\n        bool executed;\n    }\n\n    // ============ Modifiers ============\n\n    modifier onlyWallet() {\n        /* solium-disable-next-line error-reason */\n        require(msg.sender == address(this));\n        _;\n    }\n\n    modifier ownerDoesNotExist(\n        address owner\n    ) {\n        /* solium-disable-next-line error-reason */\n        require(!isOwner[owner]);\n        _;\n    }\n\n    modifier ownerExists(\n        address owner\n    ) {\n        /* solium-disable-next-line error-reason */\n        require(isOwner[owner]);\n        _;\n    }\n\n    modifier transactionExists(\n        uint256 transactionId\n    ) {\n        /* solium-disable-next-line error-reason */\n        require(transactions[transactionId].destination != ADDRESS_ZERO);\n        _;\n    }\n\n    modifier confirmed(\n        uint256 transactionId,\n        address owner\n    ) {\n        /* solium-disable-next-line error-reason */\n        require(confirmations[transactionId][owner]);\n        _;\n    }\n\n    modifier notConfirmed(\n        uint256 transactionId,\n        address owner\n    ) {\n        /* solium-disable-next-line error-reason */\n        require(!confirmations[transactionId][owner]);\n        _;\n    }\n\n    modifier notExecuted(\n        uint256 transactionId\n    ) {\n        /* solium-disable-next-line error-reason */\n        require(!transactions[transactionId].executed);\n        _;\n    }\n\n    modifier notNull(\n        address _address\n    ) {\n        /* solium-disable-next-line error-reason */\n        require(_address != ADDRESS_ZERO);\n        _;\n    }\n\n    modifier validRequirement(\n        uint256 ownerCount,\n        uint256 _required\n    ) {\n        /* solium-disable-next-line error-reason */\n        require(\n            ownerCount <= MAX_OWNER_COUNT\n            && _required <= ownerCount\n            && _required != 0\n            && ownerCount != 0\n        );\n        _;\n    }\n\n    // ============ Constructor ============\n\n    /**\n     * Contract constructor sets initial owners and required number of confirmations.\n     *\n     * @param  _owners    List of initial owners.\n     * @param  _required  Number of required confirmations.\n     */\n    constructor(\n        address[] memory _owners,\n        uint256 _required\n    )\n        public\n        validRequirement(_owners.length, _required)\n    {\n        for (uint256 i = 0; i < _owners.length; i++) {\n            /* solium-disable-next-line error-reason */\n            require(!isOwner[_owners[i]] && _owners[i] != ADDRESS_ZERO);\n            isOwner[_owners[i]] = true;\n        }\n        owners = _owners;\n        required = _required;\n    }\n\n    // ============ Wallet-Only Functions ============\n\n    /**\n     * Allows to add a new owner. Transaction has to be sent by wallet.\n     *\n     * @param  owner  Address of new owner.\n     */\n    function addOwner(\n        address owner\n    )\n        public\n        onlyWallet\n        ownerDoesNotExist(owner)\n        notNull(owner)\n        validRequirement(owners.length + 1, required)\n    {\n        isOwner[owner] = true;\n        owners.push(owner);\n        emit OwnerAddition(owner);\n    }\n\n    /**\n     * Allows to remove an owner. Transaction has to be sent by wallet.\n     *\n     * @param  owner  Address of owner.\n     */\n    function removeOwner(\n        address owner\n    )\n        public\n        onlyWallet\n        ownerExists(owner)\n    {\n        isOwner[owner] = false;\n        for (uint256 i = 0; i < owners.length - 1; i++) {\n            if (owners[i] == owner) {\n                owners[i] = owners[owners.length - 1];\n                break;\n            }\n        }\n        owners.length -= 1;\n        if (required > owners.length) {\n            changeRequirement(owners.length);\n        }\n        emit OwnerRemoval(owner);\n    }\n\n    /**\n     * Allows to replace an owner with a new owner. Transaction has to be sent by wallet.\n     *\n     * @param  owner     Address of owner to be replaced.\n     * @param  newOwner  Address of new owner.\n     */\n    function replaceOwner(\n        address owner,\n        address newOwner\n    )\n        public\n        onlyWallet\n        ownerExists(owner)\n        ownerDoesNotExist(newOwner)\n        notNull(newOwner)\n    {\n        for (uint256 i = 0; i < owners.length; i++) {\n            if (owners[i] == owner) {\n                owners[i] = newOwner;\n                break;\n            }\n        }\n        isOwner[owner] = false;\n        isOwner[newOwner] = true;\n        emit OwnerRemoval(owner);\n        emit OwnerAddition(newOwner);\n    }\n\n    /**\n     * Allows to change the number of required confirmations. Transaction has to be sent by wallet.\n     *\n     * @param  _required  Number of required confirmations.\n     */\n    function changeRequirement(\n        uint256 _required\n    )\n        public\n        onlyWallet\n        validRequirement(owners.length, _required)\n    {\n        required = _required;\n        emit RequirementChange(_required);\n    }\n\n    // ============ Admin Functions ============\n\n    /**\n     * Allows an owner to submit and confirm a transaction.\n     *\n     * @param  destination  Transaction target address.\n     * @param  value        Transaction ether value.\n     * @param  data         Transaction data payload.\n     * @return              Transaction ID.\n     */\n    function submitTransaction(\n        address destination,\n        uint256 value,\n        bytes memory data\n    )\n        public\n        returns (uint256)\n    {\n        uint256 transactionId = addTransaction(destination, value, data);\n        confirmTransaction(transactionId);\n        return transactionId;\n    }\n\n    /**\n     * Allows an owner to confirm a transaction.\n     *\n     * @param  transactionId  Transaction ID.\n     */\n    function confirmTransaction(\n        uint256 transactionId\n    )\n        public\n        ownerExists(msg.sender)\n        transactionExists(transactionId)\n        notConfirmed(transactionId, msg.sender)\n    {\n        confirmations[transactionId][msg.sender] = true;\n        emit Confirmation(msg.sender, transactionId);\n        executeTransaction(transactionId);\n    }\n\n    /**\n     * Allows an owner to revoke a confirmation for a transaction.\n     *\n     * @param  transactionId  Transaction ID.\n     */\n    function revokeConfirmation(\n        uint256 transactionId\n    )\n        public\n        ownerExists(msg.sender)\n        confirmed(transactionId, msg.sender)\n        notExecuted(transactionId)\n    {\n        confirmations[transactionId][msg.sender] = false;\n        emit Revocation(msg.sender, transactionId);\n    }\n\n    /**\n     * Allows an owner to execute a confirmed transaction.\n     *\n     * @param  transactionId  Transaction ID.\n     */\n    function executeTransaction(\n        uint256 transactionId\n    )\n        public\n        ownerExists(msg.sender)\n        confirmed(transactionId, msg.sender)\n        notExecuted(transactionId)\n    {\n        if (isConfirmed(transactionId)) {\n            Transaction storage txn = transactions[transactionId];\n            txn.executed = true;\n            if (externalCall(\n                txn.destination,\n                txn.value,\n                txn.data.length,\n                txn.data)\n            ) {\n                emit Execution(transactionId);\n            } else {\n                emit ExecutionFailure(transactionId);\n                txn.executed = false;\n            }\n        }\n    }\n\n    // ============ Getter Functions ============\n\n    /**\n     * Returns the confirmation status of a transaction.\n     *\n     * @param  transactionId  Transaction ID.\n     * @return                Confirmation status.\n     */\n    function isConfirmed(\n        uint256 transactionId\n    )\n        public\n        view\n        returns (bool)\n    {\n        uint256 count = 0;\n        for (uint256 i = 0; i < owners.length; i++) {\n            if (confirmations[transactionId][owners[i]]) {\n                count += 1;\n            }\n            if (count == required) {\n                return true;\n            }\n        }\n    }\n\n    /**\n     * Returns number of confirmations of a transaction.\n     *\n     * @param  transactionId  Transaction ID.\n     * @return                Number of confirmations.\n     */\n    function getConfirmationCount(\n        uint256 transactionId\n    )\n        public\n        view\n        returns (uint256)\n    {\n        uint256 count = 0;\n        for (uint256 i = 0; i < owners.length; i++) {\n            if (confirmations[transactionId][owners[i]]) {\n                count += 1;\n            }\n        }\n        return count;\n    }\n\n    /**\n     * Returns total number of transactions after filers are applied.\n     *\n     * @param  pending   Include pending transactions.\n     * @param  executed  Include executed transactions.\n     * @return           Total number of transactions after filters are applied.\n     */\n    function getTransactionCount(\n        bool pending,\n        bool executed\n    )\n        public\n        view\n        returns (uint256)\n    {\n        uint256 count = 0;\n        for (uint256 i = 0; i < transactionCount; i++) {\n            if (\n                pending && !transactions[i].executed\n                || executed && transactions[i].executed\n            ) {\n                count += 1;\n            }\n        }\n        return count;\n    }\n\n    /**\n     * Returns array of owners.\n     *\n     * @return  Array of owner addresses.\n     */\n    function getOwners()\n        public\n        view\n        returns (address[] memory)\n    {\n        return owners;\n    }\n\n    /**\n     * Returns array with owner addresses, which confirmed transaction.\n     *\n     * @param  transactionId  Transaction ID.\n     * @return                Array of owner addresses.\n     */\n    function getConfirmations(\n        uint256 transactionId\n    )\n        public\n        view\n        returns (address[] memory)\n    {\n        address[] memory confirmationsTemp = new address[](owners.length);\n        uint256 count = 0;\n        uint256 i;\n        for (i = 0; i < owners.length; i++) {\n            if (confirmations[transactionId][owners[i]]) {\n                confirmationsTemp[count] = owners[i];\n                count += 1;\n            }\n        }\n        address[] memory _confirmations = new address[](count);\n        for (i = 0; i < count; i++) {\n            _confirmations[i] = confirmationsTemp[i];\n        }\n        return _confirmations;\n    }\n\n    /**\n     * Returns list of transaction IDs in defined range.\n     *\n     * @param  from      Index start position of transaction array.\n     * @param  to        Index end position of transaction array.\n     * @param  pending   Include pending transactions.\n     * @param  executed  Include executed transactions.\n     * @return           Array of transaction IDs.\n     */\n    function getTransactionIds(\n        uint256 from,\n        uint256 to,\n        bool pending,\n        bool executed\n    )\n        public\n        view\n        returns (uint256[] memory)\n    {\n        uint256[] memory transactionIdsTemp = new uint256[](transactionCount);\n        uint256 count = 0;\n        uint256 i;\n        for (i = 0; i < transactionCount; i++) {\n            if (\n                pending && !transactions[i].executed\n                || executed && transactions[i].executed\n            ) {\n                transactionIdsTemp[count] = i;\n                count += 1;\n            }\n        }\n        uint256[] memory _transactionIds = new uint256[](to - from);\n        for (i = from; i < to; i++) {\n            _transactionIds[i - from] = transactionIdsTemp[i];\n        }\n        return _transactionIds;\n    }\n\n    // ============ Helper Functions ============\n\n    // call has been separated into its own function in order to take advantage\n    // of the Solidity's code generator to produce a loop that copies tx.data into memory.\n    function externalCall(\n        address destination,\n        uint256 value,\n        uint256 dataLength,\n        bytes memory data\n    )\n        internal\n        returns (bool)\n    {\n        bool result;\n        /* solium-disable-next-line security/no-inline-assembly */\n        assembly {\n            let x := mload(0x40)   // \"Allocate\" memory for output (0x40 is where \"free memory\" pointer is stored by convention)\n            let d := add(data, 32) // First 32 bytes are the padded length of data, so exclude that\n            result := call(\n                sub(gas, 34710),   // 34710 is the value that solidity is currently emitting\n                                   // It includes callGas (700) + callVeryLow (3, to pay for SUB) + callValueTransferGas (9000) +\n                                   // callNewAccountGas (25000, in case the destination address does not exist and needs creating)\n                destination,\n                value,\n                d,\n                dataLength,        // Size of the input (in bytes) - this is what fixes the padding problem\n                x,\n                0                  // Output is ignored, therefore the output size is zero\n            )\n        }\n        return result;\n    }\n\n    /**\n     * Adds a new transaction to the transaction mapping, if transaction does not exist yet.\n     *\n     * @param  destination  Transaction target address.\n     * @param  value        Transaction ether value.\n     * @param  data         Transaction data payload.\n     * @return              Transaction ID.\n     */\n    function addTransaction(\n        address destination,\n        uint256 value,\n        bytes memory data\n    )\n        internal\n        notNull(destination)\n        returns (uint256)\n    {\n        uint256 transactionId = transactionCount;\n        transactions[transactionId] = Transaction({\n            destination: destination,\n            value: value,\n            data: data,\n            executed: false\n        });\n        transactionCount += 1;\n        emit Submission(transactionId);\n        return transactionId;\n    }\n}\n",
  "sourcePath": "/home/ankit/projects/solo/contracts/external/multisig/MultiSig.sol",
  "compiler": {
    "name": "solc",
    "version": "0.5.7+commit.6da8b019.Linux.g++"
  },
  "schemaVersion": "3.0.23",
  "updatedAt": "2020-04-24T13:34:22.043Z",
  "devdoc": {
    "author": "dYdX * Multi-Signature Wallet. Allows multiple parties to agree on transactions before execution. Adapted from Stefan George's MultiSigWallet contract. * Logic Changes: - Removed the fallback function - Ensure newOwner is notNull * Syntax Changes: - Update Solidity syntax for 0.5.X: use `emit` keyword (events), use `view` keyword (functions) - Add braces to all `if` and `for` statements - Remove named return variables - Add space before and after comparison operators - Add ADDRESS_ZERO as a constant - uint => uint256 - external_call => externalCall",
    "methods": {
      "addOwner(address)": {
        "params": {
          "owner": "Address of new owner."
        }
      },
      "changeRequirement(uint256)": {
        "params": {
          "_required": "Number of required confirmations."
        }
      },
      "confirmTransaction(uint256)": {
        "params": {
          "transactionId": "Transaction ID."
        }
      },
      "constructor": {
        "params": {
          "_owners": "List of initial owners.",
          "_required": "Number of required confirmations."
        }
      },
      "executeTransaction(uint256)": {
        "params": {
          "transactionId": "Transaction ID."
        }
      },
      "getConfirmationCount(uint256)": {
        "params": {
          "transactionId": "Transaction ID."
        },
        "return": "Number of confirmations."
      },
      "getConfirmations(uint256)": {
        "params": {
          "transactionId": "Transaction ID."
        },
        "return": "Array of owner addresses."
      },
      "getOwners()": {
        "return": "Array of owner addresses."
      },
      "getTransactionCount(bool,bool)": {
        "params": {
          "executed": "Include executed transactions.",
          "pending": "Include pending transactions."
        },
        "return": "Total number of transactions after filters are applied."
      },
      "getTransactionIds(uint256,uint256,bool,bool)": {
        "params": {
          "executed": "Include executed transactions.",
          "from": "Index start position of transaction array.",
          "pending": "Include pending transactions.",
          "to": "Index end position of transaction array."
        },
        "return": "Array of transaction IDs."
      },
      "isConfirmed(uint256)": {
        "params": {
          "transactionId": "Transaction ID."
        },
        "return": "Confirmation status."
      },
      "removeOwner(address)": {
        "params": {
          "owner": "Address of owner."
        }
      },
      "replaceOwner(address,address)": {
        "params": {
          "newOwner": "Address of new owner.",
          "owner": "Address of owner to be replaced."
        }
      },
      "revokeConfirmation(uint256)": {
        "params": {
          "transactionId": "Transaction ID."
        }
      },
      "submitTransaction(address,uint256,bytes)": {
        "params": {
          "data": "Transaction data payload.",
          "destination": "Transaction target address.",
          "value": "Transaction ether value."
        },
        "return": "Transaction ID."
      }
    },
    "title": "MultiSig"
  },
  "userdoc": {
    "methods": {
      "addOwner(address)": {
        "notice": "Allows to add a new owner. Transaction has to be sent by wallet."
      },
      "changeRequirement(uint256)": {
        "notice": "Allows to change the number of required confirmations. Transaction has to be sent by wallet."
      },
      "confirmTransaction(uint256)": {
        "notice": "Allows an owner to confirm a transaction."
      },
      "constructor": "Contract constructor sets initial owners and required number of confirmations.",
      "executeTransaction(uint256)": {
        "notice": "Allows an owner to execute a confirmed transaction."
      },
      "getConfirmationCount(uint256)": {
        "notice": "Returns number of confirmations of a transaction."
      },
      "getConfirmations(uint256)": {
        "notice": "Returns array with owner addresses, which confirmed transaction."
      },
      "getOwners()": {
        "notice": "Returns array of owners."
      },
      "getTransactionCount(bool,bool)": {
        "notice": "Returns total number of transactions after filers are applied."
      },
      "getTransactionIds(uint256,uint256,bool,bool)": {
        "notice": "Returns list of transaction IDs in defined range."
      },
      "isConfirmed(uint256)": {
        "notice": "Returns the confirmation status of a transaction."
      },
      "removeOwner(address)": {
        "notice": "Allows to remove an owner. Transaction has to be sent by wallet."
      },
      "replaceOwner(address,address)": {
        "notice": "Allows to replace an owner with a new owner. Transaction has to be sent by wallet."
      },
      "revokeConfirmation(uint256)": {
        "notice": "Allows an owner to revoke a confirmation for a transaction."
      },
      "submitTransaction(address,uint256,bytes)": {
        "notice": "Allows an owner to submit and confirm a transaction."
      }
    }
  }
}