{
  "contractName": "OnlySolo",
  "abi": [
    {
      "constant": true,
      "inputs": [],
      "name": "SOLO_MARGIN",
      "outputs": [
        {
          "name": "",
          "type": "address"
        }
      ],
      "payable": false,
      "stateMutability": "view",
      "type": "function"
    },
    {
      "inputs": [
        {
          "name": "soloMargin",
          "type": "address"
        }
      ],
      "payable": false,
      "stateMutability": "nonpayable",
      "type": "constructor"
    }
  ],
  "bytecode": "0x608060405234801561001057600080fd5b506040516020806101b7833981018060405261002f9190810190610067565b60008054600160a060020a031916600160a060020a03929092169190911790556100aa565b6000610060825161008d565b9392505050565b60006020828403121561007957600080fd5b60006100858484610054565b949350505050565b60006100988261009e565b92915050565b600160a060020a031690565b60ff806100b86000396000f3fe6080604052348015600f57600080fd5b50600436106044577c010000000000000000000000000000000000000000000000000000000060003504631b1fe68a81146049575b600080fd5b604f6063565b604051605a9190608c565b60405180910390f35b60005473ffffffffffffffffffffffffffffffffffffffff1681565b60868160b7565b82525050565b6020810160988284607f565b92915050565b73ffffffffffffffffffffffffffffffffffffffff1690565b60006098826000609882609e56fea265627a7a7230582019b059c48a4ab17f9276ad6429aae45f45e6dc193d395366926f8804a840c36f6c6578706572696d656e74616cf50037",
  "source": "/*\n\n    Copyright 2019 dYdX Trading Inc.\n\n    Licensed under the Apache License, Version 2.0 (the \"License\");\n    you may not use this file except in compliance with the License.\n    You may obtain a copy of the License at\n\n    http://www.apache.org/licenses/LICENSE-2.0\n\n    Unless required by applicable law or agreed to in writing, software\n    distributed under the License is distributed on an \"AS IS\" BASIS,\n    WITHOUT WARRANTIES OR CONDITIONS OF ANY KIND, either express or implied.\n    See the License for the specific language governing permissions and\n    limitations under the License.\n\n*/\n\npragma solidity 0.5.7;\npragma experimental ABIEncoderV2;\n\nimport { SoloMargin } from \"../../protocol/SoloMargin.sol\";\nimport { Require } from \"../../protocol/lib/Require.sol\";\n\n\n/**\n * @title OnlySolo\n * @author dYdX\n *\n * Inheritable contract that restricts the calling of certain functions to Solo only\n */\ncontract OnlySolo {\n\n    // ============ Constants ============\n\n    bytes32 constant FILE = \"OnlySolo\";\n\n    // ============ Storage ============\n\n    SoloMargin public SOLO_MARGIN;\n\n    // ============ Constructor ============\n\n    constructor (\n        address soloMargin\n    )\n        public\n    {\n        SOLO_MARGIN = SoloMargin(soloMargin);\n    }\n\n    // ============ Modifiers ============\n\n    modifier onlySolo(address from) {\n        Require.that(\n            from == address(SOLO_MARGIN),\n            FILE,\n            \"Only Solo can call function\",\n            from\n        );\n        _;\n    }\n}\n",
  "sourcePath": "/home/ankit/projects/solo/contracts/external/helpers/OnlySolo.sol",
  "compiler": {
    "name": "solc",
    "version": "0.5.7+commit.6da8b019.Linux.g++"
  },
  "schemaVersion": "3.0.23",
  "updatedAt": "2020-04-24T13:34:21.998Z",
  "devdoc": {
    "author": "dYdX * Inheritable contract that restricts the calling of certain functions to Solo only",
    "methods": {},
    "title": "OnlySolo"
  },
  "userdoc": {
    "methods": {}
  }
}