{
  "contractName": "TestOasisDex",
  "abi": [
    {
      "constant": true,
      "inputs": [],
      "name": "matchingEnabled",
      "outputs": [
        {
          "name": "",
          "type": "bool"
        }
      ],
      "payable": false,
      "stateMutability": "view",
      "type": "function"
    },
    {
      "constant": true,
      "inputs": [],
      "name": "last_offer_id",
      "outputs": [
        {
          "name": "",
          "type": "uint256"
        }
      ],
      "payable": false,
      "stateMutability": "view",
      "type": "function"
    },
    {
      "constant": true,
      "inputs": [],
      "name": "dustId",
      "outputs": [
        {
          "name": "",
          "type": "uint256"
        }
      ],
      "payable": false,
      "stateMutability": "view",
      "type": "function"
    },
    {
      "constant": true,
      "inputs": [
        {
          "name": "",
          "type": "address"
        },
        {
          "name": "",
          "type": "address"
        }
      ],
      "name": "_span",
      "outputs": [
        {
          "name": "",
          "type": "uint256"
        }
      ],
      "payable": false,
      "stateMutability": "view",
      "type": "function"
    },
    {
      "constant": true,
      "inputs": [
        {
          "name": "",
          "type": "address"
        },
        {
          "name": "",
          "type": "address"
        }
      ],
      "name": "_best",
      "outputs": [
        {
          "name": "",
          "type": "uint256"
        }
      ],
      "payable": false,
      "stateMutability": "view",
      "type": "function"
    },
    {
      "constant": true,
      "inputs": [],
      "name": "stopped",
      "outputs": [
        {
          "name": "",
          "type": "bool"
        }
      ],
      "payable": false,
      "stateMutability": "view",
      "type": "function"
    },
    {
      "constant": true,
      "inputs": [
        {
          "name": "",
          "type": "uint256"
        }
      ],
      "name": "offers",
      "outputs": [
        {
          "name": "pay_amt",
          "type": "uint256"
        },
        {
          "name": "pay_gem",
          "type": "address"
        },
        {
          "name": "buy_amt",
          "type": "uint256"
        },
        {
          "name": "buy_gem",
          "type": "address"
        },
        {
          "name": "owner",
          "type": "address"
        },
        {
          "name": "timestamp",
          "type": "uint64"
        }
      ],
      "payable": false,
      "stateMutability": "view",
      "type": "function"
    },
    {
      "constant": true,
      "inputs": [
        {
          "name": "",
          "type": "address"
        }
      ],
      "name": "_dust",
      "outputs": [
        {
          "name": "",
          "type": "uint256"
        }
      ],
      "payable": false,
      "stateMutability": "view",
      "type": "function"
    },
    {
      "constant": true,
      "inputs": [
        {
          "name": "",
          "type": "uint256"
        }
      ],
      "name": "_near",
      "outputs": [
        {
          "name": "",
          "type": "uint256"
        }
      ],
      "payable": false,
      "stateMutability": "view",
      "type": "function"
    },
    {
      "constant": true,
      "inputs": [
        {
          "name": "",
          "type": "uint256"
        }
      ],
      "name": "_rank",
      "outputs": [
        {
          "name": "next",
          "type": "uint256"
        },
        {
          "name": "prev",
          "type": "uint256"
        },
        {
          "name": "delb",
          "type": "uint256"
        }
      ],
      "payable": false,
      "stateMutability": "view",
      "type": "function"
    },
    {
      "constant": true,
      "inputs": [],
      "name": "buyEnabled",
      "outputs": [
        {
          "name": "",
          "type": "bool"
        }
      ],
      "payable": false,
      "stateMutability": "view",
      "type": "function"
    },
    {
      "anonymous": false,
      "inputs": [
        {
          "indexed": false,
          "name": "id",
          "type": "uint256"
        }
      ],
      "name": "LogItemUpdate",
      "type": "event"
    },
    {
      "anonymous": false,
      "inputs": [
        {
          "indexed": false,
          "name": "pay_amt",
          "type": "uint256"
        },
        {
          "indexed": true,
          "name": "pay_gem",
          "type": "address"
        },
        {
          "indexed": false,
          "name": "buy_amt",
          "type": "uint256"
        },
        {
          "indexed": true,
          "name": "buy_gem",
          "type": "address"
        }
      ],
      "name": "LogTrade",
      "type": "event"
    },
    {
      "anonymous": false,
      "inputs": [
        {
          "indexed": true,
          "name": "id",
          "type": "bytes32"
        },
        {
          "indexed": true,
          "name": "pair",
          "type": "bytes32"
        },
        {
          "indexed": true,
          "name": "maker",
          "type": "address"
        },
        {
          "indexed": false,
          "name": "pay_gem",
          "type": "address"
        },
        {
          "indexed": false,
          "name": "buy_gem",
          "type": "address"
        },
        {
          "indexed": false,
          "name": "pay_amt",
          "type": "uint128"
        },
        {
          "indexed": false,
          "name": "buy_amt",
          "type": "uint128"
        },
        {
          "indexed": false,
          "name": "timestamp",
          "type": "uint64"
        }
      ],
      "name": "LogMake",
      "type": "event"
    },
    {
      "anonymous": false,
      "inputs": [
        {
          "indexed": true,
          "name": "id",
          "type": "bytes32"
        },
        {
          "indexed": true,
          "name": "pair",
          "type": "bytes32"
        },
        {
          "indexed": true,
          "name": "maker",
          "type": "address"
        },
        {
          "indexed": false,
          "name": "pay_gem",
          "type": "address"
        },
        {
          "indexed": false,
          "name": "buy_gem",
          "type": "address"
        },
        {
          "indexed": false,
          "name": "pay_amt",
          "type": "uint128"
        },
        {
          "indexed": false,
          "name": "buy_amt",
          "type": "uint128"
        },
        {
          "indexed": false,
          "name": "timestamp",
          "type": "uint64"
        }
      ],
      "name": "LogBump",
      "type": "event"
    },
    {
      "anonymous": false,
      "inputs": [
        {
          "indexed": false,
          "name": "id",
          "type": "bytes32"
        },
        {
          "indexed": true,
          "name": "pair",
          "type": "bytes32"
        },
        {
          "indexed": true,
          "name": "maker",
          "type": "address"
        },
        {
          "indexed": false,
          "name": "pay_gem",
          "type": "address"
        },
        {
          "indexed": false,
          "name": "buy_gem",
          "type": "address"
        },
        {
          "indexed": true,
          "name": "taker",
          "type": "address"
        },
        {
          "indexed": false,
          "name": "take_amt",
          "type": "uint128"
        },
        {
          "indexed": false,
          "name": "give_amt",
          "type": "uint128"
        },
        {
          "indexed": false,
          "name": "timestamp",
          "type": "uint64"
        }
      ],
      "name": "LogTake",
      "type": "event"
    },
    {
      "anonymous": false,
      "inputs": [
        {
          "indexed": true,
          "name": "id",
          "type": "bytes32"
        },
        {
          "indexed": true,
          "name": "pair",
          "type": "bytes32"
        },
        {
          "indexed": true,
          "name": "maker",
          "type": "address"
        },
        {
          "indexed": false,
          "name": "pay_gem",
          "type": "address"
        },
        {
          "indexed": false,
          "name": "buy_gem",
          "type": "address"
        },
        {
          "indexed": false,
          "name": "pay_amt",
          "type": "uint128"
        },
        {
          "indexed": false,
          "name": "buy_amt",
          "type": "uint128"
        },
        {
          "indexed": false,
          "name": "timestamp",
          "type": "uint64"
        }
      ],
      "name": "LogKill",
      "type": "event"
    },
    {
      "anonymous": false,
      "inputs": [
        {
          "indexed": false,
          "name": "isEnabled",
          "type": "bool"
        }
      ],
      "name": "LogBuyEnabled",
      "type": "event"
    },
    {
      "anonymous": false,
      "inputs": [
        {
          "indexed": false,
          "name": "pay_gem",
          "type": "address"
        },
        {
          "indexed": false,
          "name": "min_amount",
          "type": "uint256"
        }
      ],
      "name": "LogMinSell",
      "type": "event"
    },
    {
      "anonymous": false,
      "inputs": [
        {
          "indexed": false,
          "name": "isEnabled",
          "type": "bool"
        }
      ],
      "name": "LogMatchingEnabled",
      "type": "event"
    },
    {
      "anonymous": false,
      "inputs": [
        {
          "indexed": false,
          "name": "id",
          "type": "uint256"
        }
      ],
      "name": "LogUnsortedOffer",
      "type": "event"
    },
    {
      "anonymous": false,
      "inputs": [
        {
          "indexed": false,
          "name": "id",
          "type": "uint256"
        }
      ],
      "name": "LogSortedOffer",
      "type": "event"
    },
    {
      "anonymous": false,
      "inputs": [
        {
          "indexed": false,
          "name": "baseToken",
          "type": "address"
        },
        {
          "indexed": false,
          "name": "quoteToken",
          "type": "address"
        }
      ],
      "name": "LogAddTokenPairWhitelist",
      "type": "event"
    },
    {
      "anonymous": false,
      "inputs": [
        {
          "indexed": false,
          "name": "baseToken",
          "type": "address"
        },
        {
          "indexed": false,
          "name": "quoteToken",
          "type": "address"
        }
      ],
      "name": "LogRemTokenPairWhitelist",
      "type": "event"
    },
    {
      "anonymous": false,
      "inputs": [
        {
          "indexed": false,
          "name": "keeper",
          "type": "address"
        },
        {
          "indexed": false,
          "name": "id",
          "type": "uint256"
        }
      ],
      "name": "LogInsert",
      "type": "event"
    },
    {
      "anonymous": false,
      "inputs": [
        {
          "indexed": false,
          "name": "keeper",
          "type": "address"
        },
        {
          "indexed": false,
          "name": "id",
          "type": "uint256"
        }
      ],
      "name": "LogDelete",
      "type": "event"
    },
    {
      "constant": true,
      "inputs": [],
      "name": "isClosed",
      "outputs": [
        {
          "name": "closed",
          "type": "bool"
        }
      ],
      "payable": false,
      "stateMutability": "view",
      "type": "function"
    },
    {
      "constant": true,
      "inputs": [],
      "name": "getTime",
      "outputs": [
        {
          "name": "",
          "type": "uint64"
        }
      ],
      "payable": false,
      "stateMutability": "view",
      "type": "function"
    },
    {
      "constant": false,
      "inputs": [],
      "name": "stop",
      "outputs": [],
      "payable": false,
      "stateMutability": "nonpayable",
      "type": "function"
    },
    {
      "constant": true,
      "inputs": [
        {
          "name": "id",
          "type": "uint256"
        }
      ],
      "name": "isActive",
      "outputs": [
        {
          "name": "active",
          "type": "bool"
        }
      ],
      "payable": false,
      "stateMutability": "view",
      "type": "function"
    },
    {
      "constant": true,
      "inputs": [
        {
          "name": "id",
          "type": "uint256"
        }
      ],
      "name": "getOwner",
      "outputs": [
        {
          "name": "owner",
          "type": "address"
        }
      ],
      "payable": false,
      "stateMutability": "view",
      "type": "function"
    },
    {
      "constant": true,
      "inputs": [
        {
          "name": "id",
          "type": "uint256"
        }
      ],
      "name": "getOffer",
      "outputs": [
        {
          "name": "",
          "type": "uint256"
        },
        {
          "name": "",
          "type": "address"
        },
        {
          "name": "",
          "type": "uint256"
        },
        {
          "name": "",
          "type": "address"
        }
      ],
      "payable": false,
      "stateMutability": "view",
      "type": "function"
    },
    {
      "constant": false,
      "inputs": [
        {
          "name": "id_",
          "type": "bytes32"
        }
      ],
      "name": "bump",
      "outputs": [],
      "payable": false,
      "stateMutability": "nonpayable",
      "type": "function"
    },
    {
      "constant": false,
      "inputs": [
        {
          "name": "pay_gem",
          "type": "address"
        },
        {
          "name": "buy_gem",
          "type": "address"
        },
        {
          "name": "pay_amt",
          "type": "uint128"
        },
        {
          "name": "buy_amt",
          "type": "uint128"
        }
      ],
      "name": "make",
      "outputs": [
        {
          "name": "",
          "type": "bytes32"
        }
      ],
      "payable": false,
      "stateMutability": "nonpayable",
      "type": "function"
    },
    {
      "constant": false,
      "inputs": [
        {
          "name": "id",
          "type": "bytes32"
        },
        {
          "name": "maxTakeAmount",
          "type": "uint128"
        }
      ],
      "name": "take",
      "outputs": [],
      "payable": false,
      "stateMutability": "nonpayable",
      "type": "function"
    },
    {
      "constant": false,
      "inputs": [
        {
          "name": "id",
          "type": "bytes32"
        }
      ],
      "name": "kill",
      "outputs": [],
      "payable": false,
      "stateMutability": "nonpayable",
      "type": "function"
    },
    {
      "constant": false,
      "inputs": [
        {
          "name": "pay_amt",
          "type": "uint256"
        },
        {
          "name": "pay_gem",
          "type": "address"
        },
        {
          "name": "buy_amt",
          "type": "uint256"
        },
        {
          "name": "buy_gem",
          "type": "address"
        },
        {
          "name": "pos",
          "type": "uint256"
        }
      ],
      "name": "offer",
      "outputs": [
        {
          "name": "",
          "type": "uint256"
        }
      ],
      "payable": false,
      "stateMutability": "nonpayable",
      "type": "function"
    },
    {
      "constant": false,
      "inputs": [
        {
          "name": "pay_amt",
          "type": "uint256"
        },
        {
          "name": "pay_gem",
          "type": "address"
        },
        {
          "name": "buy_amt",
          "type": "uint256"
        },
        {
          "name": "buy_gem",
          "type": "address"
        }
      ],
      "name": "offer",
      "outputs": [
        {
          "name": "",
          "type": "uint256"
        }
      ],
      "payable": false,
      "stateMutability": "nonpayable",
      "type": "function"
    },
    {
      "constant": false,
      "inputs": [
        {
          "name": "pay_amt",
          "type": "uint256"
        },
        {
          "name": "pay_gem",
          "type": "address"
        },
        {
          "name": "buy_amt",
          "type": "uint256"
        },
        {
          "name": "buy_gem",
          "type": "address"
        },
        {
          "name": "pos",
          "type": "uint256"
        },
        {
          "name": "rounding",
          "type": "bool"
        }
      ],
      "name": "offer",
      "outputs": [
        {
          "name": "",
          "type": "uint256"
        }
      ],
      "payable": false,
      "stateMutability": "nonpayable",
      "type": "function"
    },
    {
      "constant": false,
      "inputs": [
        {
          "name": "id",
          "type": "uint256"
        },
        {
          "name": "amount",
          "type": "uint256"
        }
      ],
      "name": "buy",
      "outputs": [
        {
          "name": "",
          "type": "bool"
        }
      ],
      "payable": false,
      "stateMutability": "nonpayable",
      "type": "function"
    },
    {
      "constant": false,
      "inputs": [
        {
          "name": "id",
          "type": "uint256"
        }
      ],
      "name": "cancel",
      "outputs": [
        {
          "name": "success",
          "type": "bool"
        }
      ],
      "payable": false,
      "stateMutability": "nonpayable",
      "type": "function"
    },
    {
      "constant": false,
      "inputs": [
        {
          "name": "id",
          "type": "uint256"
        },
        {
          "name": "pos",
          "type": "uint256"
        }
      ],
      "name": "insert",
      "outputs": [
        {
          "name": "",
          "type": "bool"
        }
      ],
      "payable": false,
      "stateMutability": "nonpayable",
      "type": "function"
    },
    {
      "constant": false,
      "inputs": [
        {
          "name": "id",
          "type": "uint256"
        }
      ],
      "name": "del_rank",
      "outputs": [
        {
          "name": "",
          "type": "bool"
        }
      ],
      "payable": false,
      "stateMutability": "nonpayable",
      "type": "function"
    },
    {
      "constant": false,
      "inputs": [
        {
          "name": "pay_gem",
          "type": "address"
        },
        {
          "name": "dust",
          "type": "uint256"
        }
      ],
      "name": "setMinSell",
      "outputs": [
        {
          "name": "",
          "type": "bool"
        }
      ],
      "payable": false,
      "stateMutability": "nonpayable",
      "type": "function"
    },
    {
      "constant": true,
      "inputs": [
        {
          "name": "pay_gem",
          "type": "address"
        }
      ],
      "name": "getMinSell",
      "outputs": [
        {
          "name": "",
          "type": "uint256"
        }
      ],
      "payable": false,
      "stateMutability": "view",
      "type": "function"
    },
    {
      "constant": false,
      "inputs": [
        {
          "name": "buyEnabled_",
          "type": "bool"
        }
      ],
      "name": "setBuyEnabled",
      "outputs": [
        {
          "name": "",
          "type": "bool"
        }
      ],
      "payable": false,
      "stateMutability": "nonpayable",
      "type": "function"
    },
    {
      "constant": false,
      "inputs": [
        {
          "name": "matchingEnabled_",
          "type": "bool"
        }
      ],
      "name": "setMatchingEnabled",
      "outputs": [
        {
          "name": "",
          "type": "bool"
        }
      ],
      "payable": false,
      "stateMutability": "nonpayable",
      "type": "function"
    },
    {
      "constant": true,
      "inputs": [
        {
          "name": "sell_gem",
          "type": "address"
        },
        {
          "name": "buy_gem",
          "type": "address"
        }
      ],
      "name": "getBestOffer",
      "outputs": [
        {
          "name": "",
          "type": "uint256"
        }
      ],
      "payable": false,
      "stateMutability": "view",
      "type": "function"
    },
    {
      "constant": true,
      "inputs": [
        {
          "name": "id",
          "type": "uint256"
        }
      ],
      "name": "getWorseOffer",
      "outputs": [
        {
          "name": "",
          "type": "uint256"
        }
      ],
      "payable": false,
      "stateMutability": "view",
      "type": "function"
    },
    {
      "constant": true,
      "inputs": [
        {
          "name": "id",
          "type": "uint256"
        }
      ],
      "name": "getBetterOffer",
      "outputs": [
        {
          "name": "",
          "type": "uint256"
        }
      ],
      "payable": false,
      "stateMutability": "view",
      "type": "function"
    },
    {
      "constant": true,
      "inputs": [
        {
          "name": "sell_gem",
          "type": "address"
        },
        {
          "name": "buy_gem",
          "type": "address"
        }
      ],
      "name": "getOfferCount",
      "outputs": [
        {
          "name": "",
          "type": "uint256"
        }
      ],
      "payable": false,
      "stateMutability": "view",
      "type": "function"
    },
    {
      "constant": true,
      "inputs": [],
      "name": "getFirstUnsortedOffer",
      "outputs": [
        {
          "name": "",
          "type": "uint256"
        }
      ],
      "payable": false,
      "stateMutability": "view",
      "type": "function"
    },
    {
      "constant": true,
      "inputs": [
        {
          "name": "id",
          "type": "uint256"
        }
      ],
      "name": "getNextUnsortedOffer",
      "outputs": [
        {
          "name": "",
          "type": "uint256"
        }
      ],
      "payable": false,
      "stateMutability": "view",
      "type": "function"
    },
    {
      "constant": true,
      "inputs": [
        {
          "name": "id",
          "type": "uint256"
        }
      ],
      "name": "isOfferSorted",
      "outputs": [
        {
          "name": "",
          "type": "bool"
        }
      ],
      "payable": false,
      "stateMutability": "view",
      "type": "function"
    },
    {
      "constant": false,
      "inputs": [
        {
          "name": "pay_gem",
          "type": "address"
        },
        {
          "name": "pay_amt",
          "type": "uint256"
        },
        {
          "name": "buy_gem",
          "type": "address"
        },
        {
          "name": "min_fill_amount",
          "type": "uint256"
        }
      ],
      "name": "sellAllAmount",
      "outputs": [
        {
          "name": "fill_amt",
          "type": "uint256"
        }
      ],
      "payable": false,
      "stateMutability": "nonpayable",
      "type": "function"
    },
    {
      "constant": false,
      "inputs": [
        {
          "name": "buy_gem",
          "type": "address"
        },
        {
          "name": "buy_amt",
          "type": "uint256"
        },
        {
          "name": "pay_gem",
          "type": "address"
        },
        {
          "name": "max_fill_amount",
          "type": "uint256"
        }
      ],
      "name": "buyAllAmount",
      "outputs": [
        {
          "name": "fill_amt",
          "type": "uint256"
        }
      ],
      "payable": false,
      "stateMutability": "nonpayable",
      "type": "function"
    },
    {
      "constant": true,
      "inputs": [
        {
          "name": "buy_gem",
          "type": "address"
        },
        {
          "name": "pay_gem",
          "type": "address"
        },
        {
          "name": "pay_amt",
          "type": "uint256"
        }
      ],
      "name": "getBuyAmount",
      "outputs": [
        {
          "name": "fill_amt",
          "type": "uint256"
        }
      ],
      "payable": false,
      "stateMutability": "view",
      "type": "function"
    },
    {
      "constant": true,
      "inputs": [
        {
          "name": "pay_gem",
          "type": "address"
        },
        {
          "name": "buy_gem",
          "type": "address"
        },
        {
          "name": "buy_amt",
          "type": "uint256"
        }
      ],
      "name": "getPayAmount",
      "outputs": [
        {
          "name": "fill_amt",
          "type": "uint256"
        }
      ],
      "payable": false,
      "stateMutability": "view",
      "type": "function"
    }
  ],
  "bytecode": "0x60806040526000805462ff00001961ff001990911661010017166201000017905534801561002c57600080fd5b506131808061003c6000396000f3fe608060405234801561001057600080fd5b5060043610610306576000357c010000000000000000000000000000000000000000000000000000000090048063779997c3116101ae578063bf7c734e11610100578063d6f15469116100b4578063f09ea2a61161008e578063f09ea2a61461061b578063f582d2931461062e578063ff1fd9741461063657610306565b8063d6f15469146105e2578063d6febde8146105f5578063e1a6f0141461060857610306565b8063c2d526aa116100e5578063c2d526aa1461058d578063c41a360a146105af578063d2b420ce146105cf57610306565b8063bf7c734e14610572578063c2b6b58c1461058557610306565b80638af82a2e11610162578063943911bc1161013c578063943911bc14610539578063a78d43161461054c578063b4f9b6c81461055f57610306565b80638af82a2e1461050b578063911550f41461051357806391be90c81461052657610306565b80638185402b116101935780638185402b146104c057806382afd23b146104d35780638a72ea6a146104e657610306565b8063779997c31461049a5780637ca9429a146104ad57610306565b806340e58ee511610267578063557ed1ba1161021b578063677170e1116101f5578063677170e11461046c57806374c1d7d31461047f57806375f12b211461049257610306565b8063557ed1ba1461043c57806356ad87641461045157806361f54a791461045957610306565b8063467f0b7b1161024c578063467f0b7b146104035780634960645514610416578063511fa4871461042957610306565b806340e58ee5146103cd5780634579268a146103e057610306565b8063144a2752116102be5780631d834a1b116102a35780631d834a1b1461039f578063232cae0b146103b25780632aed1905146103ba57610306565b8063144a2752146103795780631b33d4121461038c57610306565b80630621b4f6116102ef5780630621b4f61461034957806307da68f51461035c578063093f51981461036657610306565b806301492a0b1461030b5780630374fc6f14610329575b600080fd5b610313610649565b6040516103209190612f8b565b60405180910390f35b61033c610337366004612a24565b610658565b6040516103209190612f99565b61033c610357366004612b3c565b610692565b6103646107ce565b005b61033c610374366004612a5e565b6107fb565b61033c610387366004612abf565b610838565b61033c61039a366004612c52565b610906565b6103136103ad366004612d4e565b610933565b61033c6109b0565b6103136103c8366004612b91565b6109b6565b6103136103db366004612baf565b610a32565b6103f36103ee366004612baf565b610eee565b6040516103209493929190613016565b610313610411366004612baf565b610f9b565b610364610424366004612bcd565b61105d565b61033c610437366004612a06565b611086565b6104446110ae565b60405161032091906130b6565b61033c6110b2565b61033c610467366004612baf565b6110b8565b61033c61047a366004612a24565b6110ca565b61033c61048d366004612a24565b6110e7565b610313611104565b6103646104a8366004612baf565b61110d565b61033c6104bb366004612a24565b611259565b61033c6104ce366004612b3c565b611291565b6103136104e1366004612baf565b6113ad565b6104f96104f4366004612baf565b6113e6565b6040516103209695949392919061304b565b61033c611455565b61033c610521366004612baf565b61145b565b61033c610534366004612a06565b61146d565b61033c610547366004612baf565b61147f565b61033c61055a366004612baf565b611495565b61036461056d366004612baf565b6114a7565b610313610580366004612b0c565b6114bc565b610313611515565b6105a061059b366004612baf565b61151e565b6040516103209392919061309b565b6105c26105bd366004612baf565b61153e565b6040516103209190612eea565b6103136105dd366004612baf565b611569565b6103136105f0366004612b91565b6115e7565b610313610603366004612d4e565b611651565b61033c610616366004612cc7565b611682565b61033c610629366004612bfd565b6116e1565b610313611701565b61033c610644366004612abf565b61170f565b60005462010000900460ff1681565b73ffffffffffffffffffffffffffffffffffffffff8083166000908152600260209081526040808320938516835292905220545b92915050565b6000805b84156107b8576106a68487610658565b9050806106b257600080fd5b6000818152600960205260409020600281015490546106d191906117c3565b85670de0b6b3a76400000210156106e7576107b8565b600081815260096020526040902060020154851061075b576000818152600960205260409020546107199083906117f2565b60008281526009602052604090206002015490925061073990869061180b565b60008281526009602052604090205490955061075690829061105d565b6107b3565b60008181526009602052604081208054600290910154633b9aca009161078d918984029161078891611820565b61183c565b8161079457fe5b0490506107a183826117f2565b92506107ad828261105d565b60009550505b610696565b828210156107c557600080fd5b50949350505050565b600080547fffffffffffffffffffffffffffffffffffffffffffffffffffffffffffffff00166001179055565b600061082d836fffffffffffffffffffffffffffffffff1686846fffffffffffffffffffffffffffffffff16876116e1565b90505b949350505050565b6000806108458585610658565b90505b6000818152600960205260409020600201548311156108bd5760008181526009602052604090205461087b9083906117f2565b60008281526009602052604090206002015490925061089b90849061180b565b925082156108b8576108ac8161147f565b9050806108b857600080fd5b610848565b600081815260096020526040902080546002909101546108fd918491633b9aca00916108f0918884029161078891611820565b816108f757fe5b046117f2565b95945050505050565b6000610910611515565b1561091a57600080fd5b61092986868686866001611682565b9695505050505050565b600061093e83611569565b1561094857600080fd5b610951836113ad565b61095a57600080fd5b6109638361186c565b5061096e8383611916565b7f6d5c16212bdea16850dce4d9fa2314c446bd30ce84700d9c36c7677c6d283940338460405161099f929190612f20565b60405180910390a150600192915050565b60085481565b600080547fffffffffffffffffffffffffffffffffffffffffffffffffffffffffff00ffff16620100008315158102919091178083556040517fea11e00ec1642be9b494019b756440e2c57dbe9e59242c4f9c64ce33fb4f41d992610a219260ff9190041690612f8b565b60405180910390a15060015b919050565b600081610a3e816113ad565b610a7d576040517f08c379a0000000000000000000000000000000000000000000000000000000008152600401610a7490612ff6565b60405180910390fd5b610a85611515565b80610ac35750610a948161153e565b73ffffffffffffffffffffffffffffffffffffffff163373ffffffffffffffffffffffffffffffffffffffff16145b80610acf575060075481145b610b05576040517f08c379a0000000000000000000000000000000000000000000000000000000008152600401610a7490613006565b610b0e83611569565b15610b2a57610b1c83611afd565b610b2557600080fd5b610b3c565b610b338361186c565b610b3c57600080fd5b610b446129a1565b600960008581526020019081526020016000206040518060c0016040529081600082015481526020016001820160009054906101000a900473ffffffffffffffffffffffffffffffffffffffff1673ffffffffffffffffffffffffffffffffffffffff1673ffffffffffffffffffffffffffffffffffffffff168152602001600282015481526020016003820160009054906101000a900473ffffffffffffffffffffffffffffffffffffffff1673ffffffffffffffffffffffffffffffffffffffff1673ffffffffffffffffffffffffffffffffffffffff1681526020016004820160009054906101000a900473ffffffffffffffffffffffffffffffffffffffff1673ffffffffffffffffffffffffffffffffffffffff1673ffffffffffffffffffffffffffffffffffffffff1681526020016004820160149054906101000a900467ffffffffffffffff1667ffffffffffffffff1667ffffffffffffffff16815250509050600960008581526020019081526020016000206000808201600090556001820160006101000a81549073ffffffffffffffffffffffffffffffffffffffff021916905560028201600090556003820160006101000a81549073ffffffffffffffffffffffffffffffffffffffff02191690556004820160006101000a81549073ffffffffffffffffffffffffffffffffffffffff02191690556004820160146101000a81549067ffffffffffffffff02191690555050806020015173ffffffffffffffffffffffffffffffffffffffff1663a9059cbb826080015183600001516040518363ffffffff167c0100000000000000000000000000000000000000000000000000000000028152600401610dc5929190612f7d565b600060405180830381600087803b158015610ddf57600080fd5b505af1158015610df3573d6000803e3d6000fd5b505050507fa2c251311b1a7a475913900a2a73dc9789a21b04bc737e050bbc506dd4eb348884604051610e269190612f99565b60405180910390a1806080015173ffffffffffffffffffffffffffffffffffffffff1681602001518260600151604051602001610e64929190612ec4565b604080517fffffffffffffffffffffffffffffffffffffffffffffffffffffffffffffffe0818403018152828252805160209182012090850151606086015186519387015192948a947f9577941d28fff863bfbee4694a6a4a56fb09e169619189d2eaa750b5b481999594610edc9493924290612f3b565b60405180910390a45060019392505050565b600080600080610efc6129a1565b5050506000928352505060096020908152604091829020825160c0810184528154808252600183015473ffffffffffffffffffffffffffffffffffffffff90811694830185905260028401549583018690526003840154811660608401819052600490940154908116608084015274010000000000000000000000000000000000000000900467ffffffffffffffff1660a09092019190915293919291565b6000610fa6826113ad565b158015610fc3575060008281526001602052604090206002015415155b801561100157506000828152600160205260409020600201547ffffffffffffffffffffffffffffffffffffffffffffffffffffffffffffffff64301115b61100a57600080fd5b6000828152600160208190526040808320838155918201839055600290910191909155517fcb9d6176c6aac6478ebb9a2754cdce22a944de29ed1f2642f8613884eba4b40c90610a219033908590612f20565b611079826fffffffffffffffffffffffffffffffff8316611651565b61108257600080fd5b5050565b73ffffffffffffffffffffffffffffffffffffffff1660009081526004602052604090205490565b4290565b60075481565b60009081526005602052604090205490565b600360209081526000928352604080842090915290825290205481565b600260209081526000928352604080842090915290825290205481565b60005460ff1681565b80611117816113ad565b61112057600080fd5b611128611515565b1561113257600080fd5b600082815260096020908152604091829020600481015460018201546003909201549351869473ffffffffffffffffffffffffffffffffffffffff92831694611182948416939091169101612ec4565b604080518083037fffffffffffffffffffffffffffffffffffffffffffffffffffffffffffffffe0018152828252805160209182012060008681526009909252919020600181015460038201548254600284015460049094015494958a957f70a14c213064359ede031fd2a1645a11ce2ec825ffe6ab5cfb5b160c3ef4d0a29561124c9573ffffffffffffffffffffffffffffffffffffffff90811695169392909174010000000000000000000000000000000000000000900467ffffffffffffffff1690612f3b565b60405180910390a4505050565b73ffffffffffffffffffffffffffffffffffffffff918216600090815260036020908152604080832093909416825291909152205490565b6000805b84156113a0576112a58685610658565b9050806112b157600080fd5b600081815260096020526040902080546002909101546112d191906117c3565b85670de0b6b3a76400000210156112e7576113a0565b6000818152600960205260409020548510611358576000818152600960205260409020600201546113199083906117f2565b60008281526009602052604090205490925061133690869061180b565b60008281526009602052604090205490955061135390829061105d565b61139b565b60008181526009602052604090206002810154905461138a918491633b9aca00916108f0918a84029161078891611820565b9150611396818661105d565b600094505b611295565b828211156107c557600080fd5b60009081526009602052604090206004015474010000000000000000000000000000000000000000900467ffffffffffffffff16151590565b60096020526000908152604090208054600182015460028301546003840154600490940154929373ffffffffffffffffffffffffffffffffffffffff928316939192908116919081169074010000000000000000000000000000000000000000900467ffffffffffffffff1686565b60065490565b60009081526001602052604090205490565b60046020526000908152604090205481565b6000908152600160208190526040909120015490565b60056020526000908152604090205481565b6114b081610a32565b6114b957600080fd5b50565b73ffffffffffffffffffffffffffffffffffffffff8216600090815260046020526040808220839055517fc28d56449b0bb31e64ee7487e061f57a2e72aea8019d810832f26dda099823d09061099f9085908590612f7d565b60005460ff1690565b600160208190526000918252604090912080549181015460029091015483565b60009081526009602052604090206004015473ffffffffffffffffffffffffffffffffffffffff1690565b60008181526001602052604081205415158061159657506000828152600160208190526040909120015415155b8061068c5750506000818152600960209081526040808320600181015473ffffffffffffffffffffffffffffffffffffffff9081168552600284528285206003909201541684529091529020541490565b600080547fffffffffffffffffffffffffffffffffffffffffffffffffffffffffffff00ff166101008315158102919091178083556040517f7089e4f0bcc948f9f723a361590c32d9c2284da7ab1981b1249ad2edb9f953c192610a219260ff9190041690612f8b565b60008261165d816113ad565b61166657600080fd5b61166e611515565b1561167857600080fd5b6108308484611d0d565b600061168c611515565b1561169657600080fd5b73ffffffffffffffffffffffffffffffffffffffff86166000908152600460205260409020548710156116c857600080fd5b6116d6878787878787611de1565b979650505050505050565b60006116eb611515565b156116f557600080fd5b61082d85858585611f65565b600054610100900460ff1681565b60008061171c8486610658565b90505b600081815260096020526040902054831115611791576000818152600960205260409020600201546117529083906117f2565b60008281526009602052604090205490925061176f90849061180b565b9250821561178c576117808161147f565b90508061178c57600080fd5b61171f565b6000818152600960205260409020600281015490546108fd918491633b9aca00916108f0918884029161078891611820565b6000816117e36117db85670de0b6b3a7640000612000565b6002856108f7565b816117ea57fe5b049392505050565b60008282018381101561180457600080fd5b9392505050565b60008282111561181a57600080fd5b50900390565b6000816117e36117db856b033b2e3c9fd0803ce8000000612000565b60006b033b2e3c9fd0803ce80000006117e36118588585612000565b60026b033b2e3c9fd0803ce80000006108f7565b6006546000908061187c84611569565b1561188657600080fd5b8360065414156118ae5750505060008181526005602052604081208054600655556001610a2d565b5b6000821180156118bf5750838214155b156118da5750600081815260056020526040902054906118af565b8382146118ec57600092505050610a2d565b60008481526005602052604080822080549383529082209290925584815290555060019050919050565b61191f826113ad565b61192857600080fd5b6000828152600960205260408120600381015460019091015473ffffffffffffffffffffffffffffffffffffffff91821692911690831580611994575060008481526009602052604090206001015473ffffffffffffffffffffffffffffffffffffffff838116911614155b806119c9575060008481526009602052604090206003015473ffffffffffffffffffffffffffffffffffffffff848116911614155b806119da57506119d884611569565b155b6119ed576119e88585612027565b6119f6565b6119f6856120fc565b93508315611a26575060008381526001602081905260408083209091018054908790558683529120849055611a60565b5073ffffffffffffffffffffffffffffffffffffffff81811660009081526002602090815260408083209386168352929052208054908590555b8015611a85576000818152600160208190526040808320889055878352909120018190555b73ffffffffffffffffffffffffffffffffffffffff8083166000908152600360209081526040808320938716835292905281902080546001019055517f20fb9bad86c18f7e22e8065258790d9416a7d2df8ff05f80f82c46d38b925acd90611aee908790612f99565b60405180910390a15050505050565b600081815260096020908152604080832060038082015460019092015473ffffffffffffffffffffffffffffffffffffffff90811680875291855283862092168086529190935290832054909190611b5457600080fd5b600084815260016020526040902060020154158015611b775750611b7784611569565b611b8057600080fd5b73ffffffffffffffffffffffffffffffffffffffff8082166000908152600260209081526040808320938616835292905220548414611bff57600084815260016020819052604080832054835290912001548414611bdd57600080fd5b6000848152600160208190526040808320808301549054845292200155611c41565b60008481526001602081815260408084209092015473ffffffffffffffffffffffffffffffffffffffff80861685526002835283852090871685529091529120555b6000848152600160208190526040909120015415611c9b5760008481526001602081905260408083209091015482529020548414611c7e57600080fd5b600084815260016020819052604080832080549201548352909120555b73ffffffffffffffffffffffffffffffffffffffff908116600090815260036020908152604080832094909316825292835281812080547fffffffffffffffffffffffffffffffffffffffffffffffffffffffffffffffff019055938452600191829052909220436002909101555090565b60008054610100900460ff16611d2257600080fd5b600083815260096020526040902054821415611d6057611d4183611569565b15611d5557611d4f83611afd565b50611d60565b611d5e8361186c565b505b611d6a838361218e565b611d7357600080fd5b611d7c836113ad565b8015611dc357506000838152600960208181526040808420600181015473ffffffffffffffffffffffffffffffffffffffff16855260048352908420549387905291905254105b15611dd8576007839055611dd683610a32565b505b50600192915050565b60008060008060005b73ffffffffffffffffffffffffffffffffffffffff8089166000908152600260209081526040808320938e168352929052205415611ef957505073ffffffffffffffffffffffffffffffffffffffff8087166000908152600260208181526040808420948d168452938152838320548084526009909152929091209081015490549193509085611e7b576000611e83565b808b8a840101015b611e8d8c83612000565b01611e98838b612000565b1115611ea357611ef9565b611eb184610603838c612601565b50889250611ec889611ec3838c612601565b61180b565b985082611ed58a8d612000565b81611edc57fe5b049a508a1580611eea575088155b15611ef457611ef9565b611dea565b600089118015611f09575060008b115b8015611f3a575073ffffffffffffffffffffffffffffffffffffffff8a166000908152600460205260409020548b10155b15611f5757611f4b8b8b8b8b612617565b9450611f578588611916565b505050509695505050505050565b73ffffffffffffffffffffffffffffffffffffffff8316600090815260046020526040812054851015611f9757600080fd5b611fa385858585612617565b60068054600083815260056020526040908190209190915590829055519091507f8173832a493e0a3989e521458e55bfe9feac9f9b675a94e100b9d5a85f81486290611ff0908390612f99565b60405180910390a1949350505050565b60008261200f5750600061068c565b8282028284828161201c57fe5b041461180457600080fd5b600080831161203557600080fd5b811580159061204a5750612048826113ad565b155b1561206a5760009182526001602081905260409092209091015490612035565b8161207f57612078836120fc565b905061068c565b6120898383612943565b156120c45760005b82158015906120a557506120a58484612943565b1561207857506000828152600160208190526040909120015491612091565b81158015906120da57506120d88383612943565b155b156120f55760009182526001602052604090912054906120c4565b508061068c565b600080821161210a57600080fd5b6000828152600960209081526040808320600381015460019091015473ffffffffffffffffffffffffffffffffffffffff908116808652600285528386209190921680865293529083205491929091905b811580159061216f575061216f8683612943565b156108fd5750600081815260016020819052604090912001549061215b565b60006121986129a1565b506000838152600960209081526040808320815160c0810183528154808252600183015473ffffffffffffffffffffffffffffffffffffffff90811695830195909552600283015493820184905260038301548516606083015260049092015493841660808201527401000000000000000000000000000000000000000090930467ffffffffffffffff1660a084015291929190612237908690612000565b8161223e57fe5b04905080816fffffffffffffffffffffffffffffffff161461225f57600080fd5b83846fffffffffffffffffffffffffffffffff161461227d57600080fd5b831580612288575080155b806122935750815184115b806122a15750816040015181115b156122b15760009250505061068c565b81516122bd908561180b565b60008681526009602052604090819020919091558201516122de908261180b565b60008681526009602052604090819020600201919091556060830151608084015191517f23b872dd00000000000000000000000000000000000000000000000000000000815273ffffffffffffffffffffffffffffffffffffffff909116916323b872dd916123539133918690600401612ef8565b600060405180830381600087803b15801561236d57600080fd5b505af1158015612381573d6000803e3d6000fd5b50505050816020015173ffffffffffffffffffffffffffffffffffffffff1663a9059cbb33866040518363ffffffff167c01000000000000000000000000000000000000000000000000000000000281526004016123e0929190612f20565b600060405180830381600087803b1580156123fa57600080fd5b505af115801561240e573d6000803e3d6000fd5b505050507fa2c251311b1a7a475913900a2a73dc9789a21b04bc737e050bbc506dd4eb3488856040516124419190612f99565b60405180910390a13373ffffffffffffffffffffffffffffffffffffffff16826080015173ffffffffffffffffffffffffffffffffffffffff1683602001518460600151604051602001612496929190612ec4565b604051602081830303815290604052805190602001207f3383e3357c77fd2e3a4b30deea81179bc70a795d053d14d5b7f2f01d0fd4596f88600102866020015187606001518a88426040516124f096959493929190612fa7565b60405180910390a4816060015173ffffffffffffffffffffffffffffffffffffffff16826020015173ffffffffffffffffffffffffffffffffffffffff167f819e390338feffe95e2de57172d6faf337853dfd15c7a09a32d76f7fd2443875868460405161255f92919061308d565b60405180910390a36000858152600960205260409020546125f65760008581526009602052604081208181556001810180547fffffffffffffffffffffffff0000000000000000000000000000000000000000908116909155600282019290925560038101805490921690915560040180547fffffffff000000000000000000000000000000000000000000000000000000001690555b506001949350505050565b60008183106126105781611804565b5090919050565b600084856fffffffffffffffffffffffffffffffff161461263757600080fd5b82836fffffffffffffffffffffffffffffffff161461265557600080fd5b6000851161266257600080fd5b73ffffffffffffffffffffffffffffffffffffffff841661268257600080fd5b6000831161268f57600080fd5b73ffffffffffffffffffffffffffffffffffffffff82166126af57600080fd5b8173ffffffffffffffffffffffffffffffffffffffff168473ffffffffffffffffffffffffffffffffffffffff1614156126e857600080fd5b6126f06129a1565b85815273ffffffffffffffffffffffffffffffffffffffff8086166020830152604082018590528316606082015233608082015267ffffffffffffffff421660a082015261273c612993565b600081815260096020908152604091829020845181559084015160018201805473ffffffffffffffffffffffffffffffffffffffff9283167fffffffffffffffffffffffff000000000000000000000000000000000000000091821617909155838601516002840155606086015160038401805491841691831691909117905560808601516004938401805460a089015167ffffffffffffffff1674010000000000000000000000000000000000000000027fffffffff0000000000000000ffffffffffffffffffffffffffffffffffffffff93861691909416179190911691909117905591517f23b872dd000000000000000000000000000000000000000000000000000000008152929450908716916323b872dd9161286391339130918c9101612ef8565b600060405180830381600087803b15801561287d57600080fd5b505af1158015612891573d6000803e3d6000fd5b505050507fa2c251311b1a7a475913900a2a73dc9789a21b04bc737e050bbc506dd4eb3488826040516128c49190612f99565b60405180910390a160405133906128e19087908690602001612ec4565b60405160208183030381529060405280519060200120836001027f773ff502687307abfa024ac9f62f9752a0d210dac2ffd9a29e38e12e2ea82c8288878b8a42604051612932959493929190612f3b565b60405180910390a450949350505050565b60008181526009602052604080822060020154848352908220546129679190612000565b6000848152600960205260408082206002015485835291205461298a9190612000565b10159392505050565b600880546001019081905590565b6040805160c081018252600080825260208201819052918101829052606081018290526080810182905260a081019190915290565b600061180482356130cd565b600061180482356130d8565b600061180482356130dd565b600061180482356130e0565b600060208284031215612a1857600080fd5b600061083084846129d6565b60008060408385031215612a3757600080fd5b6000612a4385856129d6565b9250506020612a54858286016129d6565b9150509250929050565b60008060008060808587031215612a7457600080fd5b6000612a8087876129d6565b9450506020612a91878288016129d6565b9350506040612aa2878288016129fa565b9250506060612ab3878288016129fa565b91505092959194509250565b600080600060608486031215612ad457600080fd5b6000612ae086866129d6565b9350506020612af1868287016129d6565b9250506040612b02868287016129ee565b9150509250925092565b60008060408385031215612b1f57600080fd5b6000612b2b85856129d6565b9250506020612a54858286016129ee565b60008060008060808587031215612b5257600080fd5b6000612b5e87876129d6565b9450506020612b6f878288016129ee565b9350506040612b80878288016129d6565b9250506060612ab3878288016129ee565b600060208284031215612ba357600080fd5b600061083084846129e2565b600060208284031215612bc157600080fd5b600061083084846129ee565b60008060408385031215612be057600080fd5b6000612bec85856129ee565b9250506020612a54858286016129fa565b60008060008060808587031215612c1357600080fd5b6000612c1f87876129ee565b9450506020612c30878288016129d6565b9350506040612c41878288016129ee565b9250506060612ab3878288016129d6565b600080600080600060a08688031215612c6a57600080fd5b6000612c7688886129ee565b9550506020612c87888289016129d6565b9450506040612c98888289016129ee565b9350506060612ca9888289016129d6565b9250506080612cba888289016129ee565b9150509295509295909350565b60008060008060008060c08789031215612ce057600080fd5b6000612cec89896129ee565b9650506020612cfd89828a016129d6565b9550506040612d0e89828a016129ee565b9450506060612d1f89828a016129d6565b9350506080612d3089828a016129ee565b92505060a0612d4189828a016129e2565b9150509295509295509295565b60008060408385031215612d6157600080fd5b6000612b2b85856129ee565b612d768161311b565b82525050565b612d76816130cd565b612d76612d91826130cd565b61312c565b612d76816130d8565b612d76816130dd565b6000612db5602d836130c4565b7f4f66666572207761732064656c65746564206f722074616b656e2c206f72206e81527f6576657220657869737465642e00000000000000000000000000000000000000602082015260400192915050565b6000612e146074836130c4565b7f4f666665722063616e206e6f742062652063616e63656c6c656420626563617581527f73652075736572206973206e6f74206f776e65722c20616e64206d61726b657460208201527f206973206f70656e2c20616e64206f666665722073656c6c732072657175697260408201527f656420616d6f756e74206f6620746f6b656e732e000000000000000000000000606082015260800192915050565b612d76816130e0565b612d768161310e565b6000612ed08285612d85565b601482019150612ee08284612d85565b5060140192915050565b6020810161068c8284612d7c565b60608101612f068286612d6d565b612f136020830185612d7c565b6108306040830184612d9f565b60408101612f2e8285612d6d565b6118046020830184612d9f565b60a08101612f498288612d7c565b612f566020830187612d7c565b612f636040830186612eb2565b612f706060830185612eb2565b6109296080830184612ebb565b60408101612f2e8285612d7c565b6020810161068c8284612d96565b6020810161068c8284612d9f565b60c08101612fb58289612d9f565b612fc26020830188612d7c565b612fcf6040830187612d7c565b612fdc6060830186612eb2565b612fe96080830185612eb2565b6116d660a0830184612ebb565b6020808252810161068c81612da8565b6020808252810161068c81612e07565b608081016130248287612d9f565b6130316020830186612d7c565b61303e6040830185612d9f565b6108fd6060830184612d7c565b60c081016130598289612d9f565b6130666020830188612d7c565b6130736040830187612d9f565b6130806060830186612d7c565b612fe96080830185612d7c565b60408101612f2e8285612d9f565b606081016130a98286612d9f565b612f136020830185612d9f565b6020810161068c8284612ebb565b90815260200190565b600061068c826130f5565b151590565b90565b6fffffffffffffffffffffffffffffffff1690565b73ffffffffffffffffffffffffffffffffffffffff1690565b67ffffffffffffffff1690565b600061068c82600061068c826130cd565b600061068c82826c0100000000000000000000000082028356fea265627a7a72305820b3a387f7243f415329e97755d9bcabe51aaae8e49f8d77bbd789f895d713dc516c6578706572696d656e74616cf50037",
  "source": "/*\n\n    Copyright 2019 dYdX Trading Inc.\n\n    Licensed under the Apache License, Version 2.0 (the \"License\");\n    you may not use this file except in compliance with the License.\n    You may obtain a copy of the License at\n\n    http://www.apache.org/licenses/LICENSE-2.0\n\n    Unless required by applicable law or agreed to in writing, software\n    distributed under the License is distributed on an \"AS IS\" BASIS,\n    WITHOUT WARRANTIES OR CONDITIONS OF ANY KIND, either express or implied.\n    See the License for the specific language governing permissions and\n    limitations under the License.\n\n*/\n\npragma solidity 0.5.7;\npragma experimental ABIEncoderV2;\n\nimport { SafeMath } from \"openzeppelin-solidity/contracts/math/SafeMath.sol\";\nimport { IErc20 } from \"../protocol/interfaces/IErc20.sol\";\nimport { Math } from \"../protocol/lib/Math.sol\";\n\n\n/**\n * @title TestOasisDex\n * @author dYdX\n *\n * Contract for testing stuff against OasisDex. Removes some functionality like auth, note, and\n * non-reentrancy protection.\n */\ncontract TestOasisDex {\n    // ============ Constants ============\n\n    uint256 constant WAD = 10 ** 18;\n    uint256 constant RAY = 10 ** 27;\n\n    // ============ Events ============\n\n    event LogItemUpdate(uint256 id);\n    event LogTrade(\n        uint256 pay_amt,\n        address indexed pay_gem,\n        uint256 buy_amt,\n        address indexed buy_gem\n    );\n    event LogMake(\n        bytes32  indexed  id,\n        bytes32  indexed  pair,\n        address  indexed  maker,\n        address             pay_gem,\n        address             buy_gem,\n        uint128           pay_amt,\n        uint128           buy_amt,\n        uint64            timestamp\n    );\n    event LogBump(\n        bytes32  indexed  id,\n        bytes32  indexed  pair,\n        address  indexed  maker,\n        address             pay_gem,\n        address             buy_gem,\n        uint128           pay_amt,\n        uint128           buy_amt,\n        uint64            timestamp\n    );\n    event LogTake(\n        bytes32           id,\n        bytes32  indexed  pair,\n        address  indexed  maker,\n        address             pay_gem,\n        address             buy_gem,\n        address  indexed  taker,\n        uint128           take_amt,\n        uint128           give_amt,\n        uint64            timestamp\n    );\n    event LogKill(\n        bytes32  indexed  id,\n        bytes32  indexed  pair,\n        address  indexed  maker,\n        address             pay_gem,\n        address             buy_gem,\n        uint128           pay_amt,\n        uint128           buy_amt,\n        uint64            timestamp\n    );\n    event LogBuyEnabled(bool isEnabled);\n    event LogMinSell(address pay_gem, uint256 min_amount);\n    event LogMatchingEnabled(bool isEnabled);\n    event LogUnsortedOffer(uint256 id);\n    event LogSortedOffer(uint256 id);\n    event LogAddTokenPairWhitelist(address baseToken, address quoteToken);\n    event LogRemTokenPairWhitelist(address baseToken, address quoteToken);\n    event LogInsert(address keeper, uint256 id);\n    event LogDelete(address keeper, uint256 id);\n\n    // ============ Structs ============\n\n    struct OfferInfo {\n        uint256 pay_amt;\n        address pay_gem;\n        uint256 buy_amt;\n        address buy_gem;\n        address owner;\n        uint64 timestamp;\n    }\n\n    struct sortInfo {\n        uint256 next;  //points to id of next higher offer\n        uint256 prev;  //points to id of previous lower offer\n        uint256 delb;  //the blocknumber where this entry was marked for delete\n    }\n\n    // ============ Storage ============\n\n    bool public stopped;\n    bool public buyEnabled = true;\n    bool public matchingEnabled = true;\n    mapping(uint256 => sortInfo) public _rank;\n    mapping(address => mapping(address => uint256)) public _best;\n    mapping(address => mapping(address => uint256)) public _span;\n    mapping(address => uint256) public _dust;\n    mapping(uint256 => uint256) public _near;\n    uint256 _head;\n    uint256 public dustId;\n    uint256 public last_offer_id;\n    mapping (uint256 => OfferInfo) public offers;\n\n    // ============ Modifiers ============\n\n    modifier can_offer {\n        require(!isClosed());\n        _;\n    }\n\n    modifier can_buy(uint256 id) {\n        require(isActive(id));\n        require(!isClosed());\n        _;\n    }\n\n    modifier can_cancel(uint256 id) {\n        require(isActive(id), \"Offer was deleted or taken, or never existed.\");\n        require(\n            isClosed() || msg.sender == getOwner(id) || id == dustId,\n            \"Offer can not be cancelled because user is not owner, and market is open, and offer sells required amount of tokens.\"\n        );\n        _;\n    }\n\n    // ============ Functions ============\n\n    function isClosed() public view returns (bool closed) {\n        return stopped;\n    }\n\n    function getTime() public view returns (uint64) {\n        return uint64(now);\n    }\n\n    function stop() public {\n        stopped = true;\n    }\n\n    function isActive(uint256 id) public view returns (bool active) {\n        return offers[id].timestamp > 0;\n    }\n\n    function getOwner(uint256 id) public view returns (address owner) {\n        return offers[id].owner;\n    }\n\n    function getOffer(uint256 id) public view returns (uint256, address, uint256, address) {\n        OfferInfo memory _offer = offers[id];\n        return (_offer.pay_amt, _offer.pay_gem,\n              _offer.buy_amt, _offer.buy_gem);\n    }\n\n    function bump(bytes32 id_)\n        public\n        can_buy(uint256(id_))\n    {\n        uint256 id = uint256(id_);\n        emit LogBump(\n            id_,\n            keccak256(abi.encodePacked(offers[id].pay_gem, offers[id].buy_gem)),\n            offers[id].owner,\n            offers[id].pay_gem,\n            offers[id].buy_gem,\n            uint128(offers[id].pay_amt),\n            uint128(offers[id].buy_amt),\n            offers[id].timestamp\n        );\n    }\n\n    function make(\n        address    pay_gem,\n        address    buy_gem,\n        uint128  pay_amt,\n        uint128  buy_amt\n    )\n        public\n        returns (bytes32)\n    {\n        return bytes32(offer(pay_amt, pay_gem, buy_amt, buy_gem));\n    }\n\n    function take(bytes32 id, uint128 maxTakeAmount) public {\n        require(buy(uint256(id), maxTakeAmount));\n    }\n\n    function kill(bytes32 id) public {\n        require(cancel(uint256(id)));\n    }\n\n    // Make a new offer. Takes funds from the caller into market escrow.\n    //\n    // If matching is enabled:\n    //     * creates new offer without putting it in\n    //       the sorted list.\n    //     * available to authorized contracts only!\n    //     * keepers should call insert(id,pos)\n    //       to put offer in the sorted list.\n    //\n    // If matching is disabled:\n    //     * calls expiring market's offer().\n    //     * available to everyone without authorization.\n    //     * no sorting is done.\n    //\n    function offer(\n        uint256 pay_amt,    //maker (ask) sell how much\n        address pay_gem,   //maker (ask) sell which token\n        uint256 buy_amt,    //taker (ask) buy how much\n        address buy_gem    //taker (ask) buy which token\n    )\n        public\n        can_offer\n        returns (uint256)\n    {\n        return _offeru(pay_amt, pay_gem, buy_amt, buy_gem);\n    }\n\n    // Make a new offer. Takes funds from the caller into market escrow.\n    function offer(\n        uint256 pay_amt,    //maker (ask) sell how much\n        address pay_gem,   //maker (ask) sell which token\n        uint256 buy_amt,    //maker (ask) buy how much\n        address buy_gem,   //maker (ask) buy which token\n        uint256 pos         //position to insert offer, 0 should be used if unknown\n    )\n        public\n        can_offer\n        returns (uint256)\n    {\n        return offer(pay_amt, pay_gem, buy_amt, buy_gem, pos, true);\n    }\n\n    function offer(\n        uint256 pay_amt,    //maker (ask) sell how much\n        address pay_gem,   //maker (ask) sell which token\n        uint256 buy_amt,    //maker (ask) buy how much\n        address buy_gem,   //maker (ask) buy which token\n        uint256 pos,        //position to insert offer, 0 should be used if unknown\n        bool rounding    //match \"close enough\" orders?\n    )\n        public\n        can_offer\n        returns (uint256)\n    {\n        require(_dust[pay_gem] <= pay_amt);\n\n        return _matcho(pay_amt, pay_gem, buy_amt, buy_gem, pos, rounding);\n    }\n\n    //Transfers funds from caller to offer maker, and from market to caller.\n    function buy(uint256 id, uint256 amount)\n        public\n        can_buy(id)\n        returns (bool)\n    {\n        return _buys(id, amount);\n    }\n\n    // Cancel an offer. Refunds offer maker.\n    function cancel(uint256 id)\n        public\n        can_cancel(id)\n        returns (bool success)\n    {\n        if (isOfferSorted(id)) {\n            require(_unsort(id));\n        } else {\n            require(_hide(id));\n        }\n        // read-only offer. Modify an offer by directly accessing offers[id]\n        OfferInfo memory _offer = offers[id];\n        delete offers[id];\n\n        IErc20(_offer.pay_gem).transfer(_offer.owner, _offer.pay_amt);\n\n        emit LogItemUpdate(id);\n        emit LogKill(\n            bytes32(id),\n            keccak256(abi.encodePacked(_offer.pay_gem, _offer.buy_gem)),\n            _offer.owner,\n            _offer.pay_gem,\n            _offer.buy_gem,\n            uint128(_offer.pay_amt),\n            uint128(_offer.buy_amt),\n            uint64(now)\n        );\n\n        success = true;\n    }\n\n    //insert offer into the sorted list\n    //keepers need to use this function\n    function insert(\n        uint256 id,   //maker (ask) id\n        uint256 pos   //position to insert into\n    )\n        public\n        returns (bool)\n    {\n        require(!isOfferSorted(id));    //make sure offers[id] is not yet sorted\n        require(isActive(id));          //make sure offers[id] is active\n\n        _hide(id);                      //remove offer from unsorted offers list\n        _sort(id, pos);                 //put offer into the sorted offers list\n        emit LogInsert(msg.sender, id);\n        return true;\n    }\n\n    //deletes _rank [id]\n    //  Function should be called by keepers.\n    function del_rank(uint256 id)\n        public\n        returns (bool)\n    {\n        require(!isActive(id) && _rank[id].delb != 0 && _rank[id].delb < block.number - 10);\n        delete _rank[id];\n        emit LogDelete(msg.sender, id);\n        return true;\n    }\n\n    //set the minimum sell amount for a token\n    //    Function is used to avoid \"dust offers\" that have\n    //    very small amount of tokens to sell, and it would\n    //    cost more gas to accept the offer, than the value\n    //    of tokens received.\n    function setMinSell(\n        address pay_gem,     //token to assign minimum sell amount to\n        uint256 dust          //maker (ask) minimum sell amount\n    )\n        public\n        returns (bool)\n    {\n        _dust[pay_gem] = dust;\n        emit LogMinSell(pay_gem, dust);\n        return true;\n    }\n\n    //returns the minimum sell amount for an offer\n    function getMinSell(\n        address pay_gem      //token for which minimum sell amount is queried\n    )\n        public\n        view\n        returns (uint256)\n    {\n        return _dust[pay_gem];\n    }\n\n    //set buy functionality enabled/disabled\n    function setBuyEnabled(bool buyEnabled_) public returns (bool) {\n        buyEnabled = buyEnabled_;\n        emit LogBuyEnabled(buyEnabled);\n        return true;\n    }\n\n    //set matching enabled/disabled\n    //    If matchingEnabled true(default), then inserted offers are matched.\n    //    Except the ones inserted by contracts, because those end up\n    //    in the unsorted list of offers, that must be later sorted by\n    //    keepers using insert().\n    //    If matchingEnabled is false then MatchingMarket is reverted to ExpiringMarket,\n    //    and matching is not done, and sorted lists are disabled.\n    function setMatchingEnabled(bool matchingEnabled_) public returns (bool) {\n        matchingEnabled = matchingEnabled_;\n        emit LogMatchingEnabled(matchingEnabled);\n        return true;\n    }\n\n    //return the best offer for a token pair\n    //      the best offer is the lowest one if it's an ask,\n    //      and highest one if it's a bid offer\n    function getBestOffer(address sell_gem, address buy_gem) public view returns(uint256) {\n        return _best[sell_gem][buy_gem];\n    }\n\n    //return the next worse offer in the sorted list\n    //      the worse offer is the higher one if its an ask,\n    //      a lower one if its a bid offer,\n    //      and in both cases the newer one if they're equal.\n    function getWorseOffer(uint256 id) public view returns(uint256) {\n        return _rank[id].prev;\n    }\n\n    //return the next better offer in the sorted list\n    //      the better offer is in the lower priced one if its an ask,\n    //      the next higher priced one if its a bid offer\n    //      and in both cases the older one if they're equal.\n    function getBetterOffer(uint256 id) public view returns(uint256) {\n\n        return _rank[id].next;\n    }\n\n    //return the amount of better offers for a token pair\n    function getOfferCount(address sell_gem, address buy_gem) public view returns(uint256) {\n        return _span[sell_gem][buy_gem];\n    }\n\n    //get the first unsorted offer that was inserted by a contract\n    //      Contracts can't calculate the insertion position of their offer because it is not an O(1) operation.\n    //      Their offers get put in the unsorted list of offers.\n    //      Keepers can calculate the insertion position offchain and pass it to the insert() function to insert\n    //      the unsorted offer into the sorted list. Unsorted offers will not be matched, but can be bought with buy().\n    function getFirstUnsortedOffer() public view returns(uint256) {\n        return _head;\n    }\n\n    //get the next unsorted offer\n    //      Can be used to cycle through all the unsorted offers.\n    function getNextUnsortedOffer(uint256 id) public view returns(uint256) {\n        return _near[id];\n    }\n\n    function isOfferSorted(uint256 id) public view returns(bool) {\n        return _rank[id].next != 0\n               || _rank[id].prev != 0\n               || _best[offers[id].pay_gem][offers[id].buy_gem] == id;\n    }\n\n    function sellAllAmount(address pay_gem, uint256 pay_amt, address buy_gem, uint256 min_fill_amount)\n        public\n        returns (uint256 fill_amt)\n    {\n        uint256 offerId;\n        while (pay_amt > 0) {                           //while there is amount to sell\n            offerId = getBestOffer(buy_gem, pay_gem);   //Get the best offer for the token pair\n            require(offerId != 0);                      //Fails if there are not more offers\n\n            // There is a chance that pay_amt is smaller than 1 wei of the other token\n            if (pay_amt * 1 ether < wdiv(offers[offerId].buy_amt, offers[offerId].pay_amt)) {\n                break;                                  //We consider that all amount is sold\n            }\n            if (pay_amt >= offers[offerId].buy_amt) {                       //If amount to sell is higher or equal than current offer amount to buy\n                fill_amt = SafeMath.add(fill_amt, offers[offerId].pay_amt);          //Add amount bought to acumulator\n                pay_amt = SafeMath.sub(pay_amt, offers[offerId].buy_amt);            //Decrease amount to sell\n                take(bytes32(offerId), uint128(offers[offerId].pay_amt));   //We take the whole offer\n            } else { // if lower\n                uint256 baux = rmul(pay_amt * 10 ** 9, rdiv(offers[offerId].pay_amt, offers[offerId].buy_amt)) / 10 ** 9;\n                fill_amt = SafeMath.add(fill_amt, baux);         //Add amount bought to acumulator\n                take(bytes32(offerId), uint128(baux));  //We take the portion of the offer that we need\n                pay_amt = 0;                            //All amount is sold\n            }\n        }\n        require(fill_amt >= min_fill_amount);\n    }\n\n    function buyAllAmount(address buy_gem, uint256 buy_amt, address pay_gem, uint256 max_fill_amount)\n        public\n        returns (uint256 fill_amt)\n    {\n        uint256 offerId;\n        while (buy_amt > 0) {                           //Meanwhile there is amount to buy\n            offerId = getBestOffer(buy_gem, pay_gem);   //Get the best offer for the token pair\n            require(offerId != 0);\n\n            // There is a chance that buy_amt is smaller than 1 wei of the other token\n            if (buy_amt * 1 ether < wdiv(offers[offerId].pay_amt, offers[offerId].buy_amt)) {\n                break;                                  //We consider that all amount is sold\n            }\n            if (buy_amt >= offers[offerId].pay_amt) {                       //If amount to buy is higher or equal than current offer amount to sell\n                fill_amt = SafeMath.add(fill_amt, offers[offerId].buy_amt);          //Add amount sold to acumulator\n                buy_amt = SafeMath.sub(buy_amt, offers[offerId].pay_amt);            //Decrease amount to buy\n                take(bytes32(offerId), uint128(offers[offerId].pay_amt));   //We take the whole offer\n            } else {                                                        //if lower\n                fill_amt = SafeMath.add(fill_amt, rmul(buy_amt * 10 ** 9, rdiv(offers[offerId].buy_amt, offers[offerId].pay_amt)) / 10 ** 9); //Add amount sold to acumulator\n                take(bytes32(offerId), uint128(buy_amt));                   //We take the portion of the offer that we need\n                buy_amt = 0;                                                //All amount is bought\n            }\n        }\n        require(fill_amt <= max_fill_amount);\n    }\n\n    function getBuyAmount(address buy_gem, address pay_gem, uint256 pay_amt) public view returns (uint256 fill_amt) {\n        uint256 offerId = getBestOffer(buy_gem, pay_gem);           //Get best offer for the token pair\n        while (pay_amt > offers[offerId].buy_amt) {\n            fill_amt = SafeMath.add(fill_amt, offers[offerId].pay_amt);  //Add amount to buy accumulator\n            pay_amt = SafeMath.sub(pay_amt, offers[offerId].buy_amt);    //Decrease amount to pay\n            if (pay_amt > 0) {                                  //If we still need more offers\n                offerId = getWorseOffer(offerId);               //We look for the next best offer\n                require(offerId != 0);                          //Fails if there are not enough offers to complete\n            }\n        }\n        fill_amt = SafeMath.add(fill_amt, rmul(pay_amt * 10 ** 9, rdiv(offers[offerId].pay_amt, offers[offerId].buy_amt)) / 10 ** 9); //Add proportional amount of last offer to buy accumulator\n    }\n\n    function getPayAmount(address pay_gem, address buy_gem, uint256 buy_amt) public view returns (uint256 fill_amt) {\n        uint256 offerId = getBestOffer(buy_gem, pay_gem);           //Get best offer for the token pair\n        while (buy_amt > offers[offerId].pay_amt) {\n            fill_amt = SafeMath.add(fill_amt, offers[offerId].buy_amt);  //Add amount to pay accumulator\n            buy_amt = SafeMath.sub(buy_amt, offers[offerId].pay_amt);    //Decrease amount to buy\n            if (buy_amt > 0) {                                  //If we still need more offers\n                offerId = getWorseOffer(offerId);               //We look for the next best offer\n                require(offerId != 0);                          //Fails if there are not enough offers to complete\n            }\n        }\n        fill_amt = SafeMath.add(fill_amt, rmul(buy_amt * 10 ** 9, rdiv(offers[offerId].buy_amt, offers[offerId].pay_amt)) / 10 ** 9); //Add proportional amount of last offer to pay accumulator\n    }\n\n    // ============ Internal Functions ============\n\n    function _next_id()\n        internal\n        returns (uint256)\n    {\n        last_offer_id++; return last_offer_id;\n    }\n\n    function _buys(uint256 id, uint256 amount)\n        internal\n        returns (bool)\n    {\n        require(buyEnabled);\n        if (amount == offers[id].pay_amt) {\n            if (isOfferSorted(id)) {\n                //offers[id] must be removed from sorted list because all of it is bought\n                _unsort(id);\n            }else{\n                _hide(id);\n            }\n        }\n        require(super_buy(id, amount));\n        // If offer has become dust during buy, we cancel it\n        if (isActive(id) && offers[id].pay_amt < _dust[offers[id].pay_gem]) {\n            dustId = id; //enable current msg.sender to call cancel(id)\n            cancel(id);\n        }\n        return true;\n    }\n\n    //find the id of the next higher offer after offers[id]\n    function _find(uint256 id)\n        internal\n        view\n        returns (uint256)\n    {\n        require(id > 0);\n\n        address buy_gem = offers[id].buy_gem;\n        address pay_gem = offers[id].pay_gem;\n        uint256 top = _best[pay_gem][buy_gem];\n        uint256 old_top = 0;\n\n        // Find the larger-than-id order whose successor is less-than-id.\n        while (top != 0 && _isPricedLtOrEq(id, top)) {\n            old_top = top;\n            top = _rank[top].prev;\n        }\n        return old_top;\n    }\n\n    //find the id of the next higher offer after offers[id]\n    function _findpos(uint256 id, uint256 pos)\n        internal\n        view\n        returns (uint256)\n    {\n        require(id > 0);\n\n        // Look for an active order.\n        while (pos != 0 && !isActive(pos)) {\n            pos = _rank[pos].prev;\n        }\n\n        if (pos == 0) {\n            //if we got to the end of list without a single active offer\n            return _find(id);\n\n        } else {\n            // if we did find a nearby active offer\n            // Walk the order book down from there...\n            if(_isPricedLtOrEq(id, pos)) {\n                uint256 old_pos;\n\n                // Guaranteed to run at least once because of\n                // the prior if statements.\n                while (pos != 0 && _isPricedLtOrEq(id, pos)) {\n                    old_pos = pos;\n                    pos = _rank[pos].prev;\n                }\n                return old_pos;\n\n            // ...or walk it up.\n            } else {\n                while (pos != 0 && !_isPricedLtOrEq(id, pos)) {\n                    pos = _rank[pos].next;\n                }\n                return pos;\n            }\n        }\n    }\n\n    //return true if offers[low] priced less than or equal to offers[high]\n    function _isPricedLtOrEq(\n        uint256 low,   //lower priced offer's id\n        uint256 high   //higher priced offer's id\n    )\n        internal\n        view\n        returns (bool)\n    {\n        return SafeMath.mul(offers[low].buy_amt, offers[high].pay_amt)\n          >= SafeMath.mul(offers[high].buy_amt, offers[low].pay_amt);\n    }\n\n    //these variables are global only because of solidity local variable limit\n\n    //match offers with taker offer, and execute token transactions\n    function _matcho(\n        uint256 t_pay_amt,    //taker sell how much\n        address t_pay_gem,   //taker sell which token\n        uint256 t_buy_amt,    //taker buy how much\n        address t_buy_gem,   //taker buy which token\n        uint256 pos,          //position id\n        bool rounding      //match \"close enough\" orders?\n    )\n        internal\n        returns (uint256 id)\n    {\n        uint256 best_maker_id;    //highest maker id\n        uint256 t_buy_amt_old;    //taker buy how much saved\n        uint256 m_buy_amt;        //maker offer wants to buy this much token\n        uint256 m_pay_amt;        //maker offer wants to sell this much token\n\n        // there is at least one offer stored for token pair\n        while (_best[t_buy_gem][t_pay_gem] > 0) {\n            best_maker_id = _best[t_buy_gem][t_pay_gem];\n            m_buy_amt = offers[best_maker_id].buy_amt;\n            m_pay_amt = offers[best_maker_id].pay_amt;\n\n            // Ugly hack to work around rounding errors. Based on the idea that\n            // the furthest the amounts can stray from their \"true\" values is 1.\n            // Ergo the worst case has t_pay_amt and m_pay_amt at +1 away from\n            // their \"correct\" values and m_buy_amt and t_buy_amt at -1.\n            // Since (c - 1) * (d - 1) > (a + 1) * (b + 1) is equivalent to\n            // c * d > a * b + a + b + c + d, we write...\n            if (SafeMath.mul(m_buy_amt, t_buy_amt) > SafeMath.mul(t_pay_amt, m_pay_amt) +\n                (rounding ? m_buy_amt + t_buy_amt + t_pay_amt + m_pay_amt : 0))\n            {\n                break;\n            }\n            // ^ The `rounding` parameter is a compromise borne of a couple days\n            // of discussion.\n            buy(best_maker_id, Math.min(m_pay_amt, t_buy_amt));\n            t_buy_amt_old = t_buy_amt;\n            t_buy_amt = SafeMath.sub(t_buy_amt, Math.min(m_pay_amt, t_buy_amt));\n            t_pay_amt = SafeMath.mul(t_buy_amt, t_pay_amt) / t_buy_amt_old;\n\n            if (t_pay_amt == 0 || t_buy_amt == 0) {\n                break;\n            }\n        }\n\n        if (t_buy_amt > 0 && t_pay_amt > 0 && t_pay_amt >= _dust[t_pay_gem]) {\n            //new offer should be created\n            id = super_offer(t_pay_amt, t_pay_gem, t_buy_amt, t_buy_gem);\n            //insert offer into the sorted list\n            _sort(id, pos);\n        }\n    }\n\n    // Make a new offer without putting it in the sorted list.\n    // Takes funds from the caller into market escrow.\n    // ****Available to authorized contracts only!**********\n    // Keepers should call insert(id,pos) to put offer in the sorted list.\n    function _offeru(\n        uint256 pay_amt,      //maker (ask) sell how much\n        address pay_gem,     //maker (ask) sell which token\n        uint256 buy_amt,      //maker (ask) buy how much\n        address buy_gem      //maker (ask) buy which token\n    )\n        internal\n        returns (uint256 id)\n    {\n        require(_dust[pay_gem] <= pay_amt);\n        id = super_offer(pay_amt, pay_gem, buy_amt, buy_gem);\n        _near[id] = _head;\n        _head = id;\n        emit LogUnsortedOffer(id);\n    }\n\n    //put offer into the sorted list\n    function _sort(\n        uint256 id,    //maker (ask) id\n        uint256 pos    //position to insert into\n    )\n        internal\n    {\n        require(isActive(id));\n\n        address buy_gem = offers[id].buy_gem;\n        address pay_gem = offers[id].pay_gem;\n        uint256 prev_id;                                      //maker (ask) id\n\n        pos = pos == 0 || offers[pos].pay_gem != pay_gem || offers[pos].buy_gem != buy_gem || !isOfferSorted(pos)\n        ?\n            _find(id)\n        :\n            _findpos(id, pos);\n\n        if (pos != 0) {                                    //offers[id] is not the highest offer\n            //requirement below is satisfied by statements above\n            //require(_isPricedLtOrEq(id, pos));\n            prev_id = _rank[pos].prev;\n            _rank[pos].prev = id;\n            _rank[id].next = pos;\n        } else {                                           //offers[id] is the highest offer\n            prev_id = _best[pay_gem][buy_gem];\n            _best[pay_gem][buy_gem] = id;\n        }\n\n        if (prev_id != 0) {                               //if lower offer does exist\n            //requirement below is satisfied by statements above\n            //require(!_isPricedLtOrEq(id, prev_id));\n            _rank[prev_id].next = id;\n            _rank[id].prev = prev_id;\n        }\n\n        _span[pay_gem][buy_gem]++;\n        emit LogSortedOffer(id);\n    }\n\n    // Remove offer from the sorted list (does not cancel offer)\n    function _unsort(\n        uint256 id    //id of maker (ask) offer to remove from sorted list\n    )\n        internal\n        returns (bool)\n    {\n        address buy_gem = offers[id].buy_gem;\n        address pay_gem = offers[id].pay_gem;\n        require(_span[pay_gem][buy_gem] > 0);\n\n        require(_rank[id].delb == 0 &&                    //assert id is in the sorted list\n                 isOfferSorted(id));\n\n        if (id != _best[pay_gem][buy_gem]) {              // offers[id] is not the highest offer\n            require(_rank[_rank[id].next].prev == id);\n            _rank[_rank[id].next].prev = _rank[id].prev;\n        } else {                                          //offers[id] is the highest offer\n            _best[pay_gem][buy_gem] = _rank[id].prev;\n        }\n\n        if (_rank[id].prev != 0) {                        //offers[id] is not the lowest offer\n            require(_rank[_rank[id].prev].next == id);\n            _rank[_rank[id].prev].next = _rank[id].next;\n        }\n\n        _span[pay_gem][buy_gem]--;\n        _rank[id].delb = block.number;                    //mark _rank[id] for deletion\n        return true;\n    }\n\n    //Hide offer from the unsorted order book (does not cancel offer)\n    function _hide(\n        uint256 id     //id of maker offer to remove from unsorted list\n    )\n        internal\n        returns (bool)\n    {\n        uint256 uid = _head;               //id of an offer in unsorted offers list\n        uint256 pre = uid;                 //id of previous offer in unsorted offers list\n\n        require(!isOfferSorted(id));    //make sure offer id is not in sorted offers list\n\n        if (_head == id) {              //check if offer is first offer in unsorted offers list\n            _head = _near[id];          //set head to new first unsorted offer\n            _near[id] = 0;              //delete order from unsorted order list\n            return true;\n        }\n        while (uid > 0 && uid != id) {  //find offer in unsorted order list\n            pre = uid;\n            uid = _near[uid];\n        }\n        if (uid != id) {                //did not find offer id in unsorted offers list\n            return false;\n        }\n        _near[pre] = _near[id];         //set previous unsorted offer to point to offer after offer id\n        _near[id] = 0;                  //delete order from unsorted order list\n        return true;\n    }\n\n    // Accept given `quantity` of an offer. Transfers funds from caller to\n    // offer maker, and from market to caller.\n    function super_buy(uint256 id, uint256 quantity)\n        internal\n        returns (bool)\n    {\n        OfferInfo memory _offer = offers[id];\n        uint256 spend = SafeMath.mul(quantity, _offer.buy_amt) / _offer.pay_amt;\n\n        require(uint128(spend) == spend);\n        require(uint128(quantity) == quantity);\n\n        // For backwards semantic compatibility.\n        if (quantity == 0 || spend == 0 ||\n            quantity > _offer.pay_amt || spend > _offer.buy_amt)\n        {\n            return false;\n        }\n\n        offers[id].pay_amt = SafeMath.sub(_offer.pay_amt, quantity);\n        offers[id].buy_amt = SafeMath.sub(_offer.buy_amt, spend);\n        IErc20(_offer.buy_gem).transferFrom(msg.sender, _offer.owner, spend);\n        IErc20(_offer.pay_gem).transfer(msg.sender, quantity);\n\n        emit LogItemUpdate(id);\n        emit LogTake(\n            bytes32(id),\n            keccak256(abi.encodePacked(_offer.pay_gem, _offer.buy_gem)),\n            _offer.owner,\n            _offer.pay_gem,\n            _offer.buy_gem,\n            msg.sender,\n            uint128(quantity),\n            uint128(spend),\n            uint64(now)\n        );\n        emit LogTrade(quantity, _offer.pay_gem, spend, _offer.buy_gem);\n\n        if (offers[id].pay_amt == 0) {\n          delete offers[id];\n        }\n\n        return true;\n    }\n\n    // Make a new offer. Takes funds from the caller into market escrow.\n    function super_offer(uint256 pay_amt, address pay_gem, uint256 buy_amt, address buy_gem)\n        internal\n        returns (uint256 id)\n    {\n        require(uint128(pay_amt) == pay_amt);\n        require(uint128(buy_amt) == buy_amt);\n        require(pay_amt > 0);\n        require(pay_gem != address(0x0));\n        require(buy_amt > 0);\n        require(buy_gem != address(0x0));\n        require(pay_gem != buy_gem);\n\n        OfferInfo memory info;\n        info.pay_amt = pay_amt;\n        info.pay_gem = pay_gem;\n        info.buy_amt = buy_amt;\n        info.buy_gem = buy_gem;\n        info.owner = msg.sender;\n        info.timestamp = uint64(now);\n        id = _next_id();\n        offers[id] = info;\n\n        IErc20(pay_gem).transferFrom(msg.sender, address(this), pay_amt);\n\n        emit LogItemUpdate(id);\n        emit LogMake(\n            bytes32(id),\n            keccak256(abi.encodePacked(pay_gem, buy_gem)),\n            msg.sender,\n            pay_gem,\n            buy_gem,\n            uint128(pay_amt),\n            uint128(buy_amt),\n            uint64(now)\n        );\n    }\n\n    // ============ Math Functions ============\n\n    function rmul(uint256 x, uint256 y) internal pure returns (uint256 z) {\n        z = SafeMath.add(SafeMath.mul(x, y), RAY / 2) / RAY;\n    }\n    function wdiv(uint256 x, uint256 y) internal pure returns (uint256 z) {\n        z = SafeMath.add(SafeMath.mul(x, WAD), y / 2) / y;\n    }\n    function rdiv(uint256 x, uint256 y) internal pure returns (uint256 z) {\n        z = SafeMath.add(SafeMath.mul(x, RAY), y / 2) / y;\n    }\n}\n",
  "sourcePath": "/home/ankit/projects/solo/contracts/testing/TestOasisDex.sol",
  "compiler": {
    "name": "solc",
    "version": "0.5.7+commit.6da8b019.Linux.g++"
  },
  "schemaVersion": "3.0.23",
  "updatedAt": "2020-04-24T13:34:22.331Z",
  "devdoc": {
    "author": "dYdX * Contract for testing stuff against OasisDex. Removes some functionality like auth, note, and non-reentrancy protection.",
    "methods": {},
    "title": "TestOasisDex"
  },
  "userdoc": {
    "methods": {}
  }
}