{
  "contractName": "TestPriceOracle",
  "abi": [
    {
      "constant": true,
      "inputs": [
        {
          "name": "",
          "type": "address"
        }
      ],
      "name": "g_prices",
      "outputs": [
        {
          "name": "",
          "type": "uint256"
        }
      ],
      "payable": false,
      "stateMutability": "view",
      "type": "function"
    },
    {
      "constant": true,
      "inputs": [],
      "name": "ONE_DOLLAR",
      "outputs": [
        {
          "name": "",
          "type": "uint256"
        }
      ],
      "payable": false,
      "stateMutability": "view",
      "type": "function"
    },
    {
      "constant": false,
      "inputs": [
        {
          "name": "token",
          "type": "address"
        },
        {
          "name": "price",
          "type": "uint256"
        }
      ],
      "name": "setPrice",
      "outputs": [],
      "payable": false,
      "stateMutability": "nonpayable",
      "type": "function"
    },
    {
      "constant": true,
      "inputs": [
        {
          "name": "token",
          "type": "address"
        }
      ],
      "name": "getPrice",
      "outputs": [
        {
          "components": [
            {
              "name": "value",
              "type": "uint256"
            }
          ],
          "name": "",
          "type": "tuple"
        }
      ],
      "payable": false,
      "stateMutability": "view",
      "type": "function"
    }
  ],
  "bytecode": "0x608060405234801561001057600080fd5b50610293806100206000396000f3fe608060405234801561001057600080fd5b5060043610610067577c01000000000000000000000000000000000000000000000000000000006000350462e4768b811461006c57806338916d231461008157806341976e09146100aa578063572ca9e7146100ca575b600080fd5b61007f61007a3660046101b6565b6100d2565b005b61009461008f366004610190565b6100fb565b6040516100a1919061022a565b60405180910390f35b6100bd6100b8366004610190565b61010d565b6040516100a19190610216565b61009461014b565b73ffffffffffffffffffffffffffffffffffffffff909116600090815260208190526040902055565b60006020819052908152604090205481565b61011561015e565b50604080516020808201835273ffffffffffffffffffffffffffffffffffffffff93909316600090815292839052912054815290565b6ec097ce7bc90715b34b9f100000000081565b6040518060200160405280600081525090565b600061017d823561023b565b9392505050565b600061017d8235610238565b6000602082840312156101a257600080fd5b60006101ae8484610171565b949350505050565b600080604083850312156101c957600080fd5b60006101d58585610171565b92505060206101e685828601610184565b9150509250929050565b805160208301906102018482610207565b50505050565b61021081610238565b82525050565b6020810161022482846101f0565b92915050565b602081016102248284610207565b90565b600073ffffffffffffffffffffffffffffffffffffffff821661022456fea265627a7a72305820e259dd0d85d02c656a96cdfca20341ae116970c217535def6927051220f615606c6578706572696d656e74616cf50037",
  "source": "/*\n\n    Copyright 2019 dYdX Trading Inc.\n\n    Licensed under the Apache License, Version 2.0 (the \"License\");\n    you may not use this file except in compliance with the License.\n    You may obtain a copy of the License at\n\n    http://www.apache.org/licenses/LICENSE-2.0\n\n    Unless required by applicable law or agreed to in writing, software\n    distributed under the License is distributed on an \"AS IS\" BASIS,\n    WITHOUT WARRANTIES OR CONDITIONS OF ANY KIND, either express or implied.\n    See the License for the specific language governing permissions and\n    limitations under the License.\n\n*/\n\npragma solidity 0.5.7;\npragma experimental ABIEncoderV2;\n\nimport { IPriceOracle } from \"../protocol/interfaces/IPriceOracle.sol\";\nimport { Monetary } from \"../protocol/lib/Monetary.sol\";\n\n\n/**\n * @title TestPriceOracle\n * @author dYdX\n *\n * Oracle used for testing\n */\ncontract TestPriceOracle is IPriceOracle {\n\n    mapping (address => uint256) public g_prices;\n\n    function setPrice(\n        address token,\n        uint256 price\n    )\n        external\n    {\n        g_prices[token] = price;\n    }\n\n    function getPrice(\n        address token\n    )\n        public\n        view\n        returns (Monetary.Price memory)\n    {\n        return Monetary.Price({\n            value: g_prices[token]\n        });\n    }\n}\n",
  "sourcePath": "/home/ankit/projects/solo/contracts/testing/TestPriceOracle.sol",
  "compiler": {
    "name": "solc",
    "version": "0.5.7+commit.6da8b019.Linux.g++"
  },
  "schemaVersion": "3.0.23",
  "updatedAt": "2020-04-24T13:34:22.369Z",
  "devdoc": {
    "author": "dYdX * Oracle used for testing",
    "methods": {},
    "title": "TestPriceOracle"
  },
  "userdoc": {
    "methods": {}
  }
}