{
  "contractName": "WethPriceOracle",
  "abi": [
    {
      "constant": true,
      "inputs": [],
      "name": "ONE_DOLLAR",
      "outputs": [
        {
          "name": "",
          "type": "uint256"
        }
      ],
      "payable": false,
      "stateMutability": "view",
      "type": "function"
    },
    {
      "constant": true,
      "inputs": [],
      "name": "MEDIANIZER",
      "outputs": [
        {
          "name": "",
          "type": "address"
        }
      ],
      "payable": false,
      "stateMutability": "view",
      "type": "function"
    },
    {
      "inputs": [
        {
          "name": "medianizer",
          "type": "address"
        }
      ],
      "payable": false,
      "stateMutability": "nonpayable",
      "type": "constructor"
    },
    {
      "constant": true,
      "inputs": [
        {
          "name": "",
          "type": "address"
        }
      ],
      "name": "getPrice",
      "outputs": [
        {
          "components": [
            {
              "name": "value",
              "type": "uint256"
            }
          ],
          "name": "",
          "type": "tuple"
        }
      ],
      "payable": false,
      "stateMutability": "view",
      "type": "function"
    }
  ],
  "bytecode": "0x608060405234801561001057600080fd5b506040516020806103ca833981018060405261002f9190810190610067565b60008054600160a060020a031916600160a060020a03929092169190911790556100aa565b6000610060825161008d565b9392505050565b60006020828403121561007957600080fd5b60006100858484610054565b949350505050565b60006100988261009e565b92915050565b600160a060020a031690565b610311806100b96000396000f3fe608060405234801561001057600080fd5b506004361061005d577c0100000000000000000000000000000000000000000000000000000000600035046341976e098114610062578063572ca9e71461008b57806394c5eddb146100a0575b600080fd5b6100756100703660046101e1565b6100b5565b6040516100829190610284565b60405180910390f35b610093610174565b6040516100829190610292565b6100a8610187565b6040516100829190610270565b6100bd6101a3565b60008054604080517f59e02dd7000000000000000000000000000000000000000000000000000000008152815173ffffffffffffffffffffffffffffffffffffffff909316926359e02dd792600480840193919291829003018186803b15801561012657600080fd5b505afa15801561013a573d6000803e3d6000fd5b505050506040513d601f19601f8201168201806040525061015e9190810190610207565b5060408051602081019091529081529392505050565b6ec097ce7bc90715b34b9f100000000081565b60005473ffffffffffffffffffffffffffffffffffffffff1681565b6040518060200160405280600081525090565b60006101c282356102bc565b9392505050565b60006101c282516102c7565b60006101c282516102b9565b6000602082840312156101f357600080fd5b60006101ff84846101b6565b949350505050565b6000806040838503121561021a57600080fd5b600061022685856101d5565b9250506020610237858286016101c9565b9150509250929050565b61024a816102cc565b82525050565b805160208301906102618482610267565b50505050565b61024a816102b9565b6020810161027e8284610241565b92915050565b6020810161027e8284610250565b6020810161027e8284610267565b73ffffffffffffffffffffffffffffffffffffffff1690565b90565b600061027e826102a0565b151590565b600061027e826102bc56fea265627a7a723058206921cd6060ae0e02bc2bd892ed872456ca88e8e37eb989091a912df529cd0ac16c6578706572696d656e74616cf50037",
  "source": "/*\n\n    Copyright 2019 dYdX Trading Inc.\n\n    Licensed under the Apache License, Version 2.0 (the \"License\");\n    you may not use this file except in compliance with the License.\n    You may obtain a copy of the License at\n\n    http://www.apache.org/licenses/LICENSE-2.0\n\n    Unless required by applicable law or agreed to in writing, software\n    distributed under the License is distributed on an \"AS IS\" BASIS,\n    WITHOUT WARRANTIES OR CONDITIONS OF ANY KIND, either express or implied.\n    See the License for the specific language governing permissions and\n    limitations under the License.\n\n*/\n\npragma solidity 0.5.7;\npragma experimental ABIEncoderV2;\n\nimport { IPriceOracle } from \"../../protocol//interfaces/IPriceOracle.sol\";\nimport { Monetary } from \"../../protocol/lib/Monetary.sol\";\nimport { IMakerOracle } from \"../interfaces/IMakerOracle.sol\";\n\n\n/**\n * @title WethPriceOracle\n * @author dYdX\n *\n * PriceOracle that returns the price of Wei in USD\n */\ncontract WethPriceOracle is\n    IPriceOracle\n{\n    // ============ Storage ============\n\n    IMakerOracle public MEDIANIZER;\n\n    // ============ Constructor =============\n\n    constructor(\n        address medianizer\n    )\n        public\n    {\n        MEDIANIZER = IMakerOracle(medianizer);\n    }\n\n    // ============ IPriceOracle Functions =============\n\n    function getPrice(\n        address /* token */\n    )\n        public\n        view\n        returns (Monetary.Price memory)\n    {\n        (bytes32 value, /* bool fresh */) = MEDIANIZER.peek();\n        return Monetary.Price({ value: uint256(value) });\n    }\n}\n",
  "sourcePath": "/home/ankit/projects/solo/contracts/external/oracles/WethPriceOracle.sol",
  "compiler": {
    "name": "solc",
    "version": "0.5.7+commit.6da8b019.Linux.g++"
  },
  "schemaVersion": "3.0.23",
  "updatedAt": "2020-04-24T13:34:22.106Z",
  "devdoc": {
    "author": "dYdX * PriceOracle that returns the price of Wei in USD",
    "methods": {},
    "title": "WethPriceOracle"
  },
  "userdoc": {
    "methods": {}
  }
}